:100000000C9438000C9457000C9455000C94550037
:100010000C9455000C9455000C9455000C9455000C
:100020000C9455000C9455000C9455000C945500FC
:100030000C9455000C9455000C9455000C945500EC
:100040000C9455000C9455000C9455000C945500DC
:100050000C9455000C9455000C9455000C945500CC
:100060000C9455000C9455000C9455000C945500BC
:1000700011241FBECFEFD4E0DEBFCDBF11E0A0E062
:10008000B1E0ECEDF0E002C005900D92A030B107B8
:10009000D9F721E0A0E0B1E001C01D92A230B20783
:1000A000E1F70E946B000C946C000C9400001F920E
:1000B0000F920FB60F9211248F939F9381E090E0DF
:1000C00090930101809300019F918F910F900FBE3B
:0C00D0000F901F901895FFCFF894FFCF01
:00000001FF
