:100000000C9438000C9455000C9455000C94550039
:100010000C9455000C9455000C9455000C9455000C
:100020000C9455000C9455000C9455000C945500FC
:100030000C9455000C9455000C9455000C945500EC
:100040000C9455000C9455000C9455000C945500DC
:100050000C9455000C9455000C9455000C945500CC
:100060000C9455000C9455000C9455000C945500BC
:1000700011241FBECFEFD4E0DEBFCDBF11E0A0E062
:10008000B1E0E4EBF0E002C005900D92A030B107C2
:10009000D9F721E0A0E0B1E001C01D92A030B20785
:1000A000E1F70E9457000C9458000C940000FFCF19
:0400B000F894FFCFF2
:00000001FF
