S00D00004E6F6465322E737265635F
S1130000C2C00000E0C00000DEC00000DCC0000090
S1130010DAC00000D8C00000D6C00000D4C0000080
S1130020D2C00000D0C00000CEC00000CCC0000090
S1130030CAC00000C8C00000C6C00000C4C00000A0
S1130040C2C00000C0C00000BEC00000BCC00000B0
S1130050BAC00000B8C00000B6C00000B4C10000BF
S1130060B2C00000B0C00000AEC00000ACC00000D0
S1130070AAC00000A8C00000A6C00000A4C00000E0
S1130080A2C00000A0C000009EC000009CC00000F0
S11300909AC0000098C0000096C000000CC5000083
S11300A092C0000090C000008EC000008CC0000010
S11300B08AC0000088C0000086C0000084C0000020
S11300C082C0000080C000007EC000007CC0000030
S11300D07AC0000078C0000076C0000074C0000040
S11300E072C000007605C805C805C805C805C8055E
S11300F0C805C8057605C805C805C805C805C805E6
S1130100C805C8057805C805C805C805C805C805D3
S1130110C805C805C805C805C805C805C805C80573
S1130120C805C8057805C805C805C805C805C805B3
S1130130C805C805C805C805C805C805C805C80553
S1130140C805C805C405C805C805C805C805C80547
S1130150C805C805A105C805C805C805C805C8055A
S1130160C805C805C805C805C805C805C805C80523
S1130170C805C8059505C805C805C805C805C80546
S1130180C805C805B30511241FBECFEFD1E2DEBFF9
S1130190CDBF00E00CBF12E0A0E0B2E0E6E4F9E17C
S11301A000E00BBF02C007900D92A636B107D9F745
S11301B022E0A6E6B2E001C01D92AC37B207E1F737
S11301C074D10C94A10C1CCFEAE7F0E08081806824
S11301D08083ACE7B0E08C91806C8C9380818760E5
S11301E080830895EAE7F0E08081806480838081E1
S11301F086FDFDCF80917800909179000895CF938A
S1130200C82F93D040E06CE18BE276D040E660E604
S113021080E672D04C2F6FEF8FE06ED0CF910895AF
S11302208F929F92AF92BF92CF92DF92EF92FF9202
S11302300F931F93CF93DF9300D000D0CDB7DEB7D9
S113024081E64ED0A82E82E64BD0829586958770A3
S1130250B12CAA0CBB1CAA0CBB1CAA0CBB1CA82A44
S113026085E63ED08F70C82ED12CC60106D7982EB5
S1130270892E1C141D047CF4E82EF92E00E010E0F5
S113028086E6800F2DD0F70181937F010F5F1F4F0A
S11302900C151D05ACF340E061E08CE22DD0BA8270
S11302A0A982DC82CB829D828E822A2D3A814C2DBA
S11302B05C81692D782D80E090E026960FB6F89445
S11302C0DEBF0FBECDBFDF91CF911F910F91FF9085
S11302D0EF90DF90CF90BF90AF909F908F90089554
S11302E0CF93C82F2F9883E02BD08C2F29D080E078
S11302F027D02F9ACF9108951F93CF93DF93182F70
S1130300D62FC42F2F9885E01BD0812F19D08D2F85
S113031017D08C2F15D02F9ADF91CF911F9108956C
S11303202F9880EC0DD02F9A089502D0F9CF08951C
S113033084B1876884B9239881E58CBD2F9A089588
S11303408EBD0DB407FEFDCF8EB50895E0ECF0E050
S1130350908195FFFDCF8093C6000895E0ECF0E016
S113036080818823ECF78091C6000895AA2797FD21
S1130370A095BA2F880F991FAA1FBB1F880F991F1A
S1130380AA1FBB1F9C01AD01220F331F441F551F21
S1130390220F331F441F551F60E074E284EF90E086
S11303A028D6215031092093C4003093C50088E138
S11303B08093C1008EE08093C2006EEA71E086EA09
S11303C091E082C708951F920F920FB60F921124E5
S11303D00BB60F920F931F932F933F934F935F93FB
S11303E06F937F938F939F93AF93BF93CF93DF9339
S11303F0EF93FF930091660210916702C801202FCA
S1130400392F40E050E060E070E080E090E0223777
S1130410324041055105610571058105910509F0D9
S11304203CF40F5F1F4F109367020093660209C0EC
S11304308091680281608093680210926702109232
S11304406602FF91EF91DF91CF91BF91AF919F91A0
S11304508F917F916F915F914F913F912F911F9158
S11304600F910F900BBE0F900FBE0F901F90189519
S1130470B9DE883C91056CF48091060290910702E4
S1130480892B81F0109207021092060281E090E01D
S1130490089581E090E0909307028093060280E043
S11304A090E0089580E090E00895CF93DF93CDB776
S11304B0DEB7A0970FB6F894DEBF0FBECDBF81E0C4
S11304C085BD80936E0016BC80E895E24FDF7CDE2C
S11304D080E090E094DE99D2C2D2DAD0B1D278949E
S11304E089E092E04CD7CE0101966C01E12CF12C0D
S11304F08701A80197016CEE71E588EB9DE325D196
S1130500C12CD12C0F2EFDE24F2EF2E05F2EF02DE8
S11305100F2EF0E32F2EF2E03F2EF02D0F2EF3E5F9
S1130520EF2EF2E0FF2EF02D0F2EFBE56F2EF2E002
S11305307F2EF02DD8A2CF8E73DE298F3A8F4B8F6A
S11305405C8F6D8F7E8F0D8D1E8D898D9A8D8D3074
S1130550910589F08A329105E9F0019709F51F9315
S11305600F93AAE2B2E0BF93AF93F8D60F900F9027
S11305700F900F901AC0D80111968C9111978F93F8
S11305808C918F935F924F92E9D60F900F900F90BA
S11305900F900BC0F801A280B3808480958005C0C1
S11305A03F922F92DBD60F900F90C801FED560DFEB
S11305B0F1E08F16910409F446D28091680280FF1D
S11305C050C080D06C016F8D78A1681B790BAE018F
S11305D04F5F5F4FC501880F991F880F991F8A0DC0
S11305E09B1D03D18C018F3F910581F07CF01F92FC
S11305F02FEF2F93ACE3B2E0BF93AF93AFD60F903E
S11306000F900F900F900FEF10E013C08130FFEFA9
S11306109F077CF42FEF2F9381E08F93ACE3B2E03C
S1130620BF93AF939BD60F900F900F900F9001E064
S11306301FEFBF92AF92FF92EF9290D61F930F934A
S11306407F926F928BD6C8015CD0809168028E7FB6
S1130650809368020FB6F894DEBF0FBECDBFD8A258
S1130660CF8E9FEFA0E7B2E09150A040B040E1F7F9
S113067000C0000061CFE2E0F1E080818F7B8083E5
S11306808AE68A95F1F700C08081806480830895AA
S1130690E1E0F1E0808182608083808180618083F9
S11306A0A2E0B1E08C9180618C9380818062808330
S11306B080818860808380818064808310920701B8
S11306C0DACF0895E2E0F1E080818F7D808380813C
S11306D0877F80832AE62A95F1F700C0809106017E
S11306E090E0982F88272081286020832AE62A9585
S11306F0F1F700C020910601308130623083822BF3
S11307000895CF93DF9300D0CDB7DEB7992334F0AB
S1130710E2E0F1E020812260208308C0E2E0F1E021
S113072020812D7F208391958195910990E599836E
S11307301A828B8363E070E0CE0101969AD10F9008
S11307400F900F90DF91CF9108958F929F92AF9267
S1130750BF92CF92DF92EF92FF920F931F93CF93AA
S1130760DF9349015A01E6011A821B821C821D8211
S1130770198218826E837F83888799872A873B87AB
S11307804C875D87EE86FF86088B198B20E030E06E
S113079040E85FE314D29B01AC0160E07EEF8FEF91
S11307A096E475D2DCD27B8B6A8B20E030E040E8A3
S11307B05FE3C501B40103D29B01AC0160E070E0CA
S11307C080E89EE464D2CBD26C8B7D8B8E8B9F8B26
S11307D0DF91CF911F910F91FF90EF90DF90CF9019
S11307E0BF90AF909F908F9008954F925F926F92B9
S11307F07F928F929F92AF92BF92CF92DF92EF92AD
S1130800FF920F931F93CF93DF938B01EA016C0147
S1130810C61AD70A8A899B898C159D05A4F09195DF
S113082081959109C816D906C4F0B601882777FDC9
S11308308095982FC7D22E813F814885598576D3DC
S11308404B015C0113C00F2E812CFEEF9F2EAA24B6
S1130850AA94F6E4BF2EF02D09C00F2E812CFEEFD2
S11308609F2EAA24AA94F6ECBF2EF02DEE24D7FCDA
S1130870E094FE2C8A819B81AC81BD81BC01CD01B9
S11308806C0D7D1D8E1D9F1DCC88DD88EE88FF8834
S1130890C616D706E806F9066CF4CA82DB82EC8237
S11308A0FD820F2E412C512CF0E86F2EFEE47F2E9A
S11308B0F02D26C0F094E094D094C094C11CD11CB7
S11308C0E11CF11C6C157D058E059F056CF4CA8234
S11308D0DB82EC82FD820F2E412C512CF0E86F2E2E
S11308E0FEEC7F2EF02D0CC06A837B838C839D836A
S11308F069D22A853B854C855D8518D32B013C0143
S113090068817981601B710B882777FD8095982F0A
S113091059D22E853F854889598908D36B017C01BA
S113092019830883A3019201C501B40148D1A70129
S1130930960145D114D2462F572F682F792F413075
S113094080E858078FEF6807780724F441E050E8FF
S11309506FEF7FEF411580E858076105710524F0BA
S11309604FEF5FE760E070E088279927841B950BC1
S1130970DF91CF911F910F91FF90EF90DF90CF9077
S1130980BF90AF909F908F907F906F905F904F90AB
S113099008958F929F92AF92BF92CF92DF92EF927F
S11309A0FF926B017C0120E030E040EA51E46BD11E
S11309B0181614F120E030E0A901C701B601B2D243
S11309C08823D4F06091690270916A0280E090E01B
S11309D0F7D14B015C0120E030E040EA51E4C7016B
S11309E0B60155D19B01AC01C501B4019FD2BCD164
S11309F07093890060938800FF90EF90DF90CF9010
S1130A00BF90AF909F908F900895259AE0E8F0E012
S1130A10808182688083E1E8F0E080818A6180835C
S1130A208FE39CE990936A02809369029093870014
S1130A308093860060E070E080EC9FE3AACF089585
S1130A406C9A749A089574982FEF89E698E121506E
S1130A5080409040E1F700C00000749A08958CE053
S1130A608093B8008FEF8093BB0084E08093BC0038
S1130A700895ECEBF0E0208120FDFDCF60936D0242
S1130A80FC01208120936E0220FD0CC0623050F0E6
S1130A90DC011196EFE6F2E081E09D9191938F5F86
S1130AA08613FBCF10926C0288EF8093080285EACC
S1130AB08093BC0008951F920F920FB60F921124D9
S1130AC00BB60F922F933F938F939F93AF93BF9344
S1130AD0EF93FF938091B90090E0FC013897E135E2
S1130AE0F10508F055C0EE58FF4F9FC210926B02FB
S1130AF0E0916B0280916D02E81770F481E08E0F33
S1130B0080936B02F0E0E259FD4F80818093BB003B
S1130B1085E88093BC0043C080916C02816080931F
S1130B206C0284E98093BC003AC0E0916B0281E0DE
S1130B308E0F80936B028091BB00F0E0E259FD4F71
S1130B40808320916B0230E080916D0290E00197E8
S1130B502817390724F485EC8093BC0020C085E86D
S1130B608093BC001CC08091BB00E0916B02F0E05C
S1130B70E259FD4F808380916C02816080936C0206
S1130B8084E98093BC000BC085EA8093BC0007C055
S1130B908091B9008093080284E08093BC00FF91A7
S1130BA0EF91BF91AF919F918F913F912F910F90B2
S1130BB00BBE0F900FBE0F901F9018955058BB2777
S1130BC0AA270ED075C166D130F06BD120F031F474
S1130BD09F3F11F41EF45BC10EF4E095E7FB51C195
S1130BE0E92F77D180F3BA17620773078407950753
S1130BF018F071F49EF58FC10EF4E0950B2EBA2F08
S1130C00A02D0B01B90190010C01CA01A00111240E
S1130C10FF27591B99F0593F50F4503E68F11A16BA
S1130C20F040A22F232F342F4427585FF3CF46954B
S1130C3037952795A795F0405395C9F77EF41F166D
S1130C40BA0B620B730B840BBAF09150A1F0FF0F37
S1130C50BB1F661F771F881FC2F70EC0BA0F621F23
S1130C60731F841F48F4879577956795B795F79513
S1130C709E3F08F0B3CF9395880F08F09927EE0FA5
S1130C80979587950895D9D008F481E008950CD0FC
S1130C900FC107D140F0FED030F021F45F3F19F0CE
S1130CA0F0C0511139C1F3C014D198F39923C9F399
S1130CB05523B1F3951B550BBB27AA27621773075E
S1130CC0840738F09F5F5F4F220F331F441FAA1F12
S1130CD0A9F333D00E2E3AF0E0E830D091505040D2
S1130CE0E695001CCAF729D0FE2F27D0660F771F80
S1130CF0881FBB1F261737074807AB07B0E809F062
S1130D00BB0B802DBF01FF2793585F4F2AF09E3FF6
S1130D10510568F0B6C000C15F3FECF3983EDCF3C8
S1130D20869577956795B795F7959F5FC9F7880F6F
S1130D30911D9695879597F90895E1E0660F771FC1
S1130D40881FBB1F621773078407BA0720F0621B52
S1130D50730B840BBA0BEE1F88F7E095089504D04B
S1130D606894B111D9C00895BCD088F09F5790F011
S1130D70B92F9927B751A0F0D1F0660F771F881FBC
S1130D80991F1AF0BA95C9F712C0B13081F0C3D0D7
S1130D90B1E00895C0C0672F782F8827B85F39F075
S1130DA0B93FCCF3869577956795B395D9F73EF41B
S1130DB090958095709561957F4F8F4F9F4F0895C3
S1130DC0E89409C097FB3EF49095809570956195E1
S1130DD07F4F8F4F9F4F9923A9F0F92F96E9BB2797
S1130DE09395F695879577956795B795F111F8CF13
S1130DF0FAF4BB0F11F460FF1BC06F5F7F4F8F4F7E
S1130E009F4F16C0882311F096E911C0772321F073
S1130E109EE8872F762F05C0662371F096E8862F0B
S1130E2070E060E02AF09A95660F771F881FDAF762
S1130E30880F9695879597F90895990F0008550F8F
S1130E40AA0BE0E8FEEF16161706E807F907C0F04C
S1130E5012161306E407F50798F0621B730B840B54
S1130E60950B39F40A2661F0232B242B252B21F42E
S1130E7008950A2609F4A140A6958FEF811D811DCE
S1130E80089597F99F6780E870E060E008959FEF08
S1130E9080EC089500240A9416161706180609060D
S1130EA0089500240A9412161306140605060895DC
S1130EB0092E0394000C11F4882352F0BB0F40F464
S1130EC0BF2B11F460FF04C06F5F7F4F8F4F9F4FA4
S1130ED0089557FD9058440F551F59F05F3F71F026
S1130EE04795880F97FB991F61F09F3F79F087958D
S1130EF00895121613061406551FF2CF4695F1DF16
S1130F0008C0161617061806991FF1CF86957105A5
S1130F10610508940895E894BB2766277727CB01D9
S1130F2097F908958ADF08F48FEF08950BD0C0CFA6
S1130F30B1DF28F0B6DF18F0952309F0A2CFA7CFD0
S1130F401124EACFC6DFA0F3959FD1F3950F50E0AB
S1130F50551F629FF001729FBB27F00DB11D639F67
S1130F60AA27F00DB11DAA1F649F6627B00DA11D0D
S1130F70661F829F2227B00DA11D621F739FB00DB3
S1130F80A11D621F839FA00D611D221F749F332723
S1130F90A00D611D231F849F600D211D822F762FBC
S1130FA06A2F11249F5750408AF0E1F088234AF0B9
S1130FB0EE0FFF1FBB1F661F771F881F9150504005
S1130FC0A9F79E3F510570F05CCFA6CF5F3FECF3CD
S1130FD0983EDCF3869577956795B795F795E795F1
S1130FE09F5FC1F7FE2B880F911D9695879597F902
S1130FF00895052E97FB16F400940FD057FD05D0E5
S11310001AD007FC02D046F408C05095409530959C
S113101021953F4F4F4F5F4F089590958095709560
S113102061957F4F8F4F9F4F0895EE0FFF1F0590DF
S1131030F491E02D1994A1E21A2EAA1BBB1BFD0109
S11310400DC0AA1FBB1FEE1FFF1FA217B307E407A3
S1131050F50720F0A21BB30BE40BF50B661F771FFB
S1131060881F991F1A9469F76095709580959095DB
S11310709B01AC01BD01CF010895CF93DF93823072
S1131080910510F482E090E0E0917402F091750211
S113109020E030E0A0E0B0E0309739F140815181A8
S11310A048175907B8F04817590771F4828193819A
S11310B0109729F013969C938E9312972CC09093BB
S11310C075028093740227C02115310531F042174F
S11310D0530718F0A901DB0101C0EF019A01BD011A
S11310E0DF010280F381E02DD7CF21153105F9F01E
S11310F0281B390B2430310580F48A819B816115CA
S1131100710521F0FB019383828304C090937502DF
S113111080937402FE01329644C0FE01E20FF31F75
S11311208193919322503109398328833AC02091C5
S1131130720230917302232B41F420910202309108
S113114003023093730220937202209100023091C3
S113115001022115310541F42DB73EB74091040237
S113116050910502241B350BE0917202F091730239
S1131170E217F307A0F42E1B3F0B2817390778F06A
S1131180AC014E5F5F4F2417350748F04E0F5F1FC9
S113119050937302409372028193919302C0E0E0F2
S11311A0F0E0CF01DF91CF910895CF93DF930097C3
S11311B009F487C0FC01329713821282C091740231
S11311C0D0917502209781F420813181280F391F35
S11311D080917202909173028217930779F5F093CC
S11311E07302E09372026DC0DE0120E030E0AE17BE
S11311F0BF0750F412964D915C9113979D014115D0
S1131200510509F1DA01F3CFB383A28340815181FF
S1131210840F951F8A179B0771F48D919C911197E8
S1131220840F951F02969183808312968D919C91D1
S11312301397938382832115310529F4F093750262
S1131240E09374023EC0D9011396FC93EE93129777
S11312504D915D91A40FB51FEA17FB0779F48081C6
S11312609181840F951F0296D90111969C938E93B8
S11312708281938113969C938E931297E0E0F0E021
S11312808A819B81009719F0FE01EC01F9CFCE0110
S1131290029628813981820F931F20917202309126
S11312A073022817390769F4309729F410927502EC
S11312B01092740202C013821282D0937302C093FC
S11312C07202DF91CF9108950F931F93CF93DF9311
S11312D0EC018B01009731F46115710519F480E07C
S11312E090E037C06EE070E081E090E063D2FC01F2
S11312F00097A9F380E883830115110571F0138722
S1131300028781E883838091760290917702892B0A
S113131021F4F0937702E09376022097C9F0D18705
S1131320C08783818260838380917802909179025F
S1131330892B71F4F0937902E093780280917A0218
S113134090917B02892B21F4F0937B02E0937A0243
S1131350CF01DF91CF911F910F910895CF93DF9328
S1131360CDB7DEB7FE01369661917191AF018091E0
S113137078029091790230D0DF91CF9108950F9344
S11313801F93CF93DF93E0917802F0917902238148
S113139021FF1BC0EC0100E010E08991609178020C
S11313A070917902DB011896ED91FC9119978823CD
S11313B031F01995892B89F30FEF1FEFEECF8AE0F7
S11313C01995892B11F4C80102C08FEF9FEFDF91AB
S11313D0CF911F910F9108952F923F924F925F9258
S11313E06F927F928F929F92AF92BF92CF92DF9231
S11313F0EF92FF920F931F93CF93DF93CDB7DEB796
S11314002C970FB6F894DEBF0FBECDBF7C016B01E5
S11314108A01FC0117821682838181FFB0C1CE014B
S113142001964C01F7019381F60193FD859193FF99
S113143081916F01882309F49EC1853239F493FDAB
S1131440859193FF81916F01853221F4B70190E07A
S1131450E8D1E8CF512C312C20E02032A0F48B329B
S113146069F030F4803259F0833269F420612CC081
S11314708D3239F0803339F4216026C02260246033
S113148023C0286021C027FD27C030ED380F3A3033
S113149078F426FF06C0FAE05F9E300D1124532E27
S11314A013C08AE0389E300D1124332E20620CC004
S11314B08E3221F426FD5FC1206406C08C3611F4FF
S11314C0206802C0883641F4F60193FD859193FFAC
S11314D081916F018111C1CF982F9F7D95549330D5
S11314E028F40C5F1F4FFFE3F9830DC0833631F0FE
S11314F0833771F0833509F057C021C0F80180812A
S113150089830E5F1F4F44244394512C540114C00B
S11315103801F2E06F0E711CF801A080B18026FF43
S113152003C0652D70E002C06FEF7FEFC5012C870B
S11315306DD12C0183012C852F77222E16C0380102
S1131540F2E06F0E711CF801A080B18026FF03C089
S1131550652D70E002C06FEF7FEFC5012C8744D189
S11315602C012C852068222E830123FC19C0832D95
S113157090E048165906A0F4B70180E290E051D1FA
S11315803A94F5CFF50127FC859127FE81915F01FF
S1131590B70190E046D131103A94F1E04F1A510866
S11315A04114510479F7DEC0843611F0893631F5DF
S11315B0F80127FF07C060817181828193810C5FEC
S11315C01F4F08C060817181882777FD8095982F0F
S11315D00E5F1F4F2F76B22E97FF09C0909580950E
S11315E0709561957F4F8F4F9F4F2068B22E2AE0F0
S11315F030E0A40148D1A82EA81843C0853729F4A7
S11316002F7EB22E2AE030E025C0F22FF97FBF2EC4
S11316108F36C1F018F4883579F0ADC0803719F0F1
S1131620883721F0A8C02F2F2061B22EB4FE0DC040
S11316308B2D8460B82E09C024FF0AC09F2F9660AA
S1131640B92E06C028E030E005C020E130E002C039
S113165020E132E0F801B7FE07C060817181828128
S113166093810C5F1F4F06C06081718180E090E020
S11316700E5F1F4FA40107D1A82EA818FB2DFF77DA
S1131680BF2EB6FE0BC02B2D2E7FA51450F4B4FE36
S11316900AC0B2FC08C02B2D2E7E05C07A2C2B2D3F
S11316A003C07A2C01C0752C24FF0DC0FE01EA0D85
S11316B0F11D8081803311F4297E09C022FF06C008
S11316C07394739404C0822F867809F0739423FD75
S11316D012C020FF06C05A2C731418F4530C571868
S11316E0732C731460F4B70180E290E02C8799D0D6
S11316F073942C85F6CF731410F4371801C0312C71
S113170024FF11C0B70180E390E02C878AD02C8598
S113171022FF16C021FF03C088E590E002C088E7DD
S113172090E0B7010CC0822F867851F021FD02C0F1
S113173080E201C08BE227FD8DE2B70190E071D019
S1131740A51430F4B70180E390E06BD05A94F8CF3D
S1131750AA94F401EA0DF11D8081B70190E061D0F3
S1131760A110F6CF332009F45DCEB70180E290E0FA
S113177058D03A94F7CFF7018681978102C08FEF52
S11317809FEF2C960FB6F894DEBF0FBECDBFDF914E
S1131790CF911F910F91FF90EF90DF90CF90BF906A
S11317A0AF909F908F907F906F905F904F903F90FD
S11317B02F9008950F931F93CF93DF93869F8001FB
S11317C0879F100D969F100D1124C80156DCEC0163
S11317D0009721F0A80160E070E011D0CE01DF9104
S11317E0CF911F910F910895FC01059061507040B5
S11317F00110D8F7809590958E0F9F1F0895DC01F6
S113180001C06D9341505040E0F70895FC016150D0
S1131810704001900110D8F7809590958E0F9F1F0E
S113182008950F931F93CF93DF93182F092FEB0184
S11318308B8181FD03C08FEF9FEF20C082FF10C01A
S11318404E815F812C813D81421753077CF4E881EE
S1131850F9819F012F5F3F4F39832883108306C08E
S1131860E885F985812F1995892B29F72E813F81E8
S11318702F5F3F4F3F832E83812F902FDF91CF9196
S11318801F910F910895FA01AA27283051F12031B0
S113189081F1E8946F936E7F6E5F7F4F8F4F9F4F00
S11318A0AF4FB1E03ED0B4E03CD0670F781F891F42
S11318B09A1FA11D680F791F8A1F911DA11D6A0F10
S11318C0711D811D911DA11D20D009F468943F91C3
S11318D02AE0269F11243019305D3193DEF6CF01C2
S11318E00895462F4770405D4193B3E00FD0C9F788
S11318F0F6CF462F4F70405D4A3318F0495D31FDF5
S11319004052419302D0A9F7EACFB4E0A695979547
S1131910879577956795BA95C9F70097610571051D
S113192008959B01AC010A2E069457954795379567
S11319302795BA95C9F7620F731F841F951FA01DC1
S10919400895F894FFCFA6
S113194600007C0220000100F850555454592049E7
S113195653205354494C4C20414C4956452C20594C
S113196645414821212121210D00257300256400CC
S1131976494420756E6B6E6F776E0D004469736310
S11319867265746520766F6C746167653A202564A8
S11319960D0A00593D2025640D0A00646973633DF0
S10919A62025640D0A0077
S9030000FC
