:10000000C2C00000E0C00000DEC00000DCC0000094
:10001000DAC00000D8C00000D6C00000D4C0000084
:10002000D2C00000D0C00000CEC00000CCC0000094
:10003000CAC00000C8C00000C6C00000C4C00000A4
:10004000C2C00000C0C00000BEC00000BCC00000B4
:10005000BAC00000B8C00000B6C00000B4C00000C4
:10006000B2C00000B0C00000AEC00000ACC00000D4
:10007000AAC00000A8C00000A6C00000A4C00000E4
:10008000A2C00000A0C000009EC000009CC00000F4
:100090009AC0000098C0000096C000006EC2000028
:1000A00092C0000090C000008EC000008CC0000014
:1000B0008AC0000088C0000086C0000084C0000024
:1000C00082C0000080C000007EC000007CC0000034
:1000D0007AC0000078C0000076C0000074C0000044
:1000E00072C00000D8022A032A032A032A032A0323
:1000F0002A032A03D8022A032A032A032A032A03EB
:100100002A032A03DA022A032A032A032A032A03D8
:100110002A032A032A032A032A032A032A032A0377
:100120002A032A03DA022A032A032A032A032A03B8
:100130002A032A032A032A032A032A032A032A0357
:100140002A032A0326032A032A032A032A032A034B
:100150002A032A0303032A032A032A032A032A035E
:100160002A032A032A032A032A032A032A032A0327
:100170002A032A03F7022A032A032A032A032A034B
:100180002A032A03150311241FBECFEFD1E2DEBFDD
:10019000CDBF00E00CBF12E0A0E0B2E0E0E4F2E18D
:1001A00000E00BBF02C007900D92AA31B107D9F74A
:1001B00022E0AAE1B2E001C01D92AD32B207E1F740
:1001C000D0D00C941E091CCFEAE7F0E08081806853
:1001D0008083ACE7B0E08C91806C8C9380818760E9
:1001E00080830895EAE7F0E08081806480838081E5
:1001F00086FDFDCF80917800909179000895CF938E
:10020000C82F40E06CE18BE276D040E660E680E605
:1002100072D04C2F6FEF8FE06ED0CF9108958F92F8
:100220009F92AF92BF92CF92DF92EF92FF920F9385
:100230001F93CF93DF9300D000D0CDB7DEB781E618
:100240004ED0A82E82E64BD0829586958770B12C31
:10025000AA0CBB1CAA0CBB1CAA0CBB1CA82A85E6BA
:100260003ED08F70C82ED12CC601B1D3982E892EC6
:100270001C141D047CF4E82EF92E00E010E086E644
:10028000800F2DD0F70181937F010F5F1F4F0C1559
:100290001D05ACF340E061E08CE22DD0BA82A9826A
:1002A000DC82CB829D828E822A2D3A814C2D5C810C
:1002B000692D782D80E090E026960FB6F894DEBF89
:1002C0000FBECDBFDF91CF911F910F91FF90EF90A7
:1002D000DF90CF90BF90AF909F908F900895CF9375
:1002E000C82F2F9883E017D18C2F15D180E013D120
:1002F0002F9ACF9108951F93CF93DF93182FD62F66
:10030000C42F2F9885E007D1812F05D18D2F03D1E0
:100310008C2F01D12F9ADF91CF911F9108952F98A3
:1003200080ECF9D02F9A08955DDF883C91056CF43C
:100330008091060290910702892B81F010920702AA
:100340001092060281E090E0089581E090E09093A1
:1003500007028093060280E090E0089580E090E03C
:100360000895CF93DF93CDB7DEB72C970FB6F894EF
:10037000DEBF0FBECDBF62E070E080E895E290D1B5
:10038000C2D0CDDF80E090E03ADF96D01DDFC9D04B
:100390003AD078940F2EF9E0EF2EF2E0FF2EF02DF8
:1003A0000F2EF6E0DF2EF02D3ADF29833A834B83C0
:1003B0005C836D837E830D811E8189819A818A97FA
:1003C00049F4F801DE0117968D2D01900D928A9562
:1003D000E1F705C0FF92EF926BD40F900F90C80128
:1003E0008ED34F81588569857A858B859C8519D0F8
:1003F0009BDF2FEF80E792E0215080409040E1F7B3
:1004000000C00000D1CFE1E0F1E080818061808315
:10041000808182608083E2E0F1E08081806180837E
:1004200008950F931F93CF93DF93CDB7DEB729972E
:100430000FB6F894DEBF0FBECDBF4C835D836E83D5
:100440007F83888799870E811F810530110534F0DD
:10045000E2E0F1E08081826080830FC00C3F8FEF8B
:1004600018074CF4E2E0F1E080818D7F80831195E4
:100470000195110902C000E010E01F930F9384E181
:1004800092E09F938F9314D480E589831A820B8323
:1004900063E070E0CE0101964ED00F900F900F9068
:1004A0000F9029960FB6F894DEBF0FBECDBFDF9137
:1004B000CF911F910F910895E0E8F0E0808182686C
:1004C0008083E1E8F0E080818A618083259A8FE370
:1004D0009CE990931B0280931A029093870080936B
:1004E000860060911A0270911B0280E090E03AD180
:1004F0002AE939E949E95DE3C3D108D1709389005C
:1005000060938800089584B1876884B9239881E551
:100510008CBD2F9A08958EBD0DB407FEFDCF8EB50C
:1005200008958CE08093B8008FEF8093BB0084E047
:100530008093BC000895ECEBF0E0208120FDFDCF1E
:1005400060931E02FC01208120931F0220FD0CC03D
:10055000623050F0DC011196E0E2F2E081E09D9122
:1005600091938F5F8613FBCF10921D0288EF8093CB
:10057000080285EA8093BC0008951F920F920FB67F
:100580000F9211240BB60F922F933F938F939F934B
:10059000AF93BF93EF93FF938091B90090E0FC017C
:1005A0003897E135F10508F055C0EE58FF4FE7C127
:1005B00010921C02E0911C0280911E02E81770F458
:1005C00081E08E0F80931C02F0E0E15EFD4F8081A0
:1005D0008093BB0085E88093BC0043C080911D02DE
:1005E000816080931D0284E98093BC003AC0E09151
:1005F0001C0281E08E0F80931C028091BB00F0E012
:10060000E15EFD4F808320911C0230E080911E024C
:1006100090E001972817390724F485EC8093BC00FB
:1006200020C085E88093BC001CC08091BB00E09195
:100630001C02F0E0E15EFD4F808380911D0281602D
:1006400080931D0284E98093BC000BC085EA8093EF
:10065000BC0007C08091B9008093080284E08093B9
:10066000BC00FF91EF91BF91AF919F918F913F910E
:100670002F910F900BBE0F900FBE0F901F901895EB
:10068000E0ECF0E0908195FFFDCF8093C6000895E7
:10069000E0ECF0E080818823ECF78091C6000895BB
:1006A000CF93DF93EB01AA2797FDA095BA2F880F70
:1006B000991FAA1FBB1F880F991FAA1FBB1F9C0150
:1006C000AD01220F331F441F551F220F331F441F3C
:1006D000551F60E074E284EF90E035D1215031097C
:1006E0002093C4003093C50088E18093C100219716
:1006F00011F48EE801C08EE08093C20068E473E0DC
:1007000080E493E08BD2DF91CF91089598D088F068
:100710009F5790F0B92F9927B751A0F0D1F0660FED
:10072000771F881F991F1AF0BA95C9F712C0B13008
:1007300081F09FD0B1E008959CC0672F782F882763
:10074000B85F39F0B93FCCF3869577956795B39547
:10075000D9F73EF490958095709561957F4F8F4FB6
:100760009F4F0895E89409C097FB3EF490958095BB
:10077000709561957F4F8F4F9F4F9923A9F0F92F67
:1007800096E9BB279395F695879577956795B795E5
:10079000F111F8CFFAF4BB0F11F460FF1BC06F5FCB
:1007A0007F4F8F4F9F4F16C0882311F096E911C0DD
:1007B000772321F09EE8872F762F05C0662371F0FE
:1007C00096E8862F70E060E02AF09A95660F771F12
:1007D000881FDAF7880F9695879597F9089597F906
:1007E0009F6780E870E060E008959FEF80EC0895D7
:1007F00000240A9416161706180609060895002400
:100800000A9412161306140605060895092E039479
:10081000000C11F4882352F0BB0F40F4BF2B11F4ED
:1008200060FF04C06F5F7F4F8F4F9F4F089557FD4C
:100830009058440F551F59F05F3F71F04795880F4E
:1008400097FB991F61F09F3F79F0879508951216E5
:1008500013061406551FF2CF4695F1DF08C0161691
:1008600017061806991FF1CF869571056105089442
:100870000895E894BB2766277727CB0197F9089559
:100880000BD0C4CFB5DF28F0BADF18F0952309F0FC
:10089000A6CFABCF1124EECFCADFA0F3959FD1F343
:1008A000950F50E0551F629FF001729FBB27F00D1E
:1008B000B11D639FAA27F00DB11DAA1F649F662773
:1008C000B00DA11D661F829F2227B00DA11D621FC2
:1008D000739FB00DA11D621F839FA00D611D221F7C
:1008E000749F3327A00D611D231F849F600D211D60
:1008F000822F762F6A2F11249F5750408AF0E1F003
:1009000088234AF0EE0FFF1FBB1F661F771F881F4B
:1009100091505040A9F79E3F510570F060CFAACF8B
:100920005F3FECF3983EDCF3869577956795B79536
:10093000F795E7959F5FC1F7FE2B880F911D969560
:10094000879597F90895052E97FB16F400940FD01C
:1009500057FD05D01AD007FC02D046F408C05095C8
:100960004095309521953F4F4F4F5F4F089590959B
:100970008095709561957F4F8F4F9F4F0895EE0F33
:10098000FF1F0590F491E02D1994A1E21A2EAA1BE5
:10099000BB1BFD010DC0AA1FBB1FEE1FFF1FA2172F
:1009A000B307E407F50720F0A21BB30BE40BF50B2C
:1009B000661F771F881F991F1A9469F760957095B5
:1009C000809590959B01AC01BD01CF010895CF9317
:1009D000DF938230910510F482E090E0E0912502EF
:1009E000F091260220E030E0A0E0B0E0309739F14D
:1009F0004081518148175907B8F04817590771F4D9
:100A000082819381109729F013969C938E9312976D
:100A10002CC0909326028093250227C02115310512
:100A200031F04217530718F0A901DB0101C0EF01B3
:100A30009A01BD01DF010280F381E02DD7CF21159E
:100A40003105F9F0281B390B2430310580F48A81F7
:100A50009B816115710521F0FB019383828304C0A2
:100A60009093260280932502FE01329644C0FE0137
:100A7000E20FF31F81939193225031093983288328
:100A80003AC02091230230912402232B41F420917B
:100A9000020230910302309324022093230220911A
:100AA0000002309101022115310541F42DB73EB706
:100AB0004091040250910502241B350BE091230262
:100AC000F0912402E217F307A0F42E1B3F0B281726
:100AD000390778F0AC014E5F5F4F2417350748F0B7
:100AE0004E0F5F1F509324024093230281939193F2
:100AF00002C0E0E0F0E0CF01DF91CF910895CF9305
:100B0000DF93009709F487C0FC01329713821282A9
:100B1000C0912502D0912602209781F42081318155
:100B2000280F391F80912302909124028217930786
:100B300079F5F0932402E09323026DC0DE0120E0FA
:100B400030E0AE17BF0750F412964D915C911397A9
:100B50009D014115510509F1DA01F3CFB383A28359
:100B600040815181840F951F8A179B0771F48D91E5
:100B70009C911197840F951F029691838083129602
:100B80008D919C911397938382832115310529F4CC
:100B9000F0932602E09325023EC0D9011396FC9300
:100BA000EE9312974D915D91A40FB51FEA17FB07C5
:100BB00079F480819181840F951F0296D901119655
:100BC0009C938E938281938113969C938E9312971C
:100BD000E0E0F0E08A819B81009719F0FE01EC01D2
:100BE000F9CFCE01029628813981820F931F20917F
:100BF0002302309124022817390769F4309729F429
:100C0000109226021092250202C013821282D09303
:100C10002402C0932302DF91CF9108950F931F9375
:100C2000CF93DF93EC018B01009731F461157105CF
:100C300019F480E090E037C06EE070E081E090E071
:100C400036D2FC010097A9F380E8838301151105D2
:100C500071F01387028781E8838380912702909146
:100C60002802892B21F4F0932802E0932702209791
:100C7000C9F0D187C08783818260838380912902F4
:100C800090912A02892B71F4F0932A02E0932902B1
:100C900080912B0290912C02892B21F4F0932C024D
:100CA000E0932B02CF01DF91CF911F910F91089517
:100CB000CF93DF93CDB7DEB7FE0136966191719188
:100CC000AF018091290290912A0203D0DF91CF9148
:100CD00008952F923F924F925F926F927F928F92E0
:100CE0009F92AF92BF92CF92DF92EF92FF920F93BB
:100CF0001F93CF93DF93CDB7DEB72C970FB6F89441
:100D0000DEBF0FBECDBF7C016B018A01FC011782E3
:100D10001682838181FFB0C1CE0101964C01F7019B
:100D20009381F60193FD859193FF81916F01882353
:100D300009F49EC1853239F493FD859193FF819129
:100D40006F01853221F4B70190E0E8D1E8CF512C52
:100D5000312C20E02032A0F48B3269F030F4803264
:100D600059F0833269F420612CC08D3239F0803320
:100D700039F4216026C02260246023C0286021C08D
:100D800027FD27C030ED380F3A3078F426FF06C033
:100D9000FAE05F9E300D1124532E13C08AE0389E76
:100DA000300D1124332E20620CC08E3221F426FD2A
:100DB0005FC1206406C08C3611F4206802C08836FA
:100DC00041F4F60193FD859193FF81916F018111AB
:100DD000C1CF982F9F7D9554933028F40C5F1F4FFF
:100DE000FFE3F9830DC0833631F0833771F083352B
:100DF00009F057C021C0F801808189830E5F1F4F21
:100E000044244394512C540114C03801F2E06F0E75
:100E1000711CF801A080B18026FF03C0652D70E031
:100E200002C06FEF7FEFC5012C876DD12C018301CC
:100E30002C852F77222E16C03801F2E06F0E711C20
:100E4000F801A080B18026FF03C0652D70E002C0CC
:100E50006FEF7FEFC5012C8744D12C012C852068D2
:100E6000222E830123FC19C0832D90E048165906D9
:100E7000A0F4B70180E290E051D13A94F5CFF501AA
:100E800027FC859127FE81915F01B70190E046D153
:100E900031103A94F1E04F1A51084114510479F796
:100EA000DEC0843611F0893631F5F80127FF07C01E
:100EB00060817181828193810C5F1F4F08C06081C6
:100EC0007181882777FD8095982F0E5F1F4F2F76B1
:100ED000B22E97FF09C090958095709561957F4FD0
:100EE0008F4F9F4F2068B22E2AE030E0A40148D1F6
:100EF000A82EA81843C0853729F42F7EB22E2AE0E9
:100F000030E025C0F22FF97FBF2E8F36C1F018F4E4
:100F1000883579F0ADC0803719F0883721F0A8C046
:100F20002F2F2061B22EB4FE0DC08B2D8460B82E01
:100F300009C024FF0AC09F2F9660B92E06C028E082
:100F400030E005C020E130E002C020E132E0F801ED
:100F5000B7FE07C060817181828193810C5F1F4F52
:100F600006C06081718180E090E00E5F1F4FA40198
:100F700007D1A82EA818FB2DFF77BF2EB6FE0BC0F9
:100F80002B2D2E7FA51450F4B4FE0AC0B2FC08C06D
:100F90002B2D2E7E05C07A2C2B2D03C07A2C01C060
:100FA000752C24FF0DC0FE01EA0DF11D80818033F8
:100FB00011F4297E09C022FF06C07394739404C003
:100FC000822F867809F0739423FD12C020FF06C09B
:100FD0005A2C731418F4530C5718732C731460F4B0
:100FE000B70180E290E02C8799D073942C85F6CFDE
:100FF000731410F4371801C0312C24FF11C0B7014D
:1010000080E390E02C878AD02C8522FF16C021FF38
:1010100003C088E590E002C088E790E0B7010CC00B
:10102000822F867851F021FD02C080E201C08BE260
:1010300027FD8DE2B70190E071D0A51430F4B7011F
:1010400080E390E06BD05A94F8CFAA94F401EA0DB3
:10105000F11D8081B70190E061D0A110F6CF33205F
:1010600009F45DCEB70180E290E058D03A94F7CF12
:10107000F7018681978102C08FEF9FEF2C960FB604
:10108000F894DEBF0FBECDBFDF91CF911F910F91BE
:10109000FF90EF90DF90CF90BF90AF909F908F9098
:1010A0007F906F905F904F903F902F9008950F9397
:1010B0001F93CF93DF93869F8001879F100D969F8C
:1010C000100D1124C80183DCEC01009721F0A80168
:1010D00060E070E011D0CE01DF91CF911F910F91B0
:1010E0000895FC010590615070400110D8F780957B
:1010F00090958E0F9F1F0895DC0101C06D934150A4
:101100005040E0F70895FC016150704001900110DB
:10111000D8F7809590958E0F9F1F08950F931F937A
:10112000CF93DF93182F092FEB018B8181FD03C033
:101130008FEF9FEF20C082FF10C04E815F812C8116
:101140003D81421753077CF4E881F9819F012F5FAD
:101150003F4F39832883108306C0E885F985812FA6
:101160001995892B29F72E813F812F5F3F4F3F83B0
:101170002E83812F902FDF91CF911F910F91089592
:10118000FA01AA27283051F1203181F1E8946F93B8
:101190006E7F6E5F7F4F8F4F9F4FAF4FB1E03ED05E
:1011A000B4E03CD0670F781F891F9A1FA11D680FFC
:1011B000791F8A1F911DA11D6A0F711D811D911D2F
:1011C000A11D20D009F468943F912AE0269F1124A4
:1011D0003019305D3193DEF6CF010895462F477008
:1011E000405D4193B3E00FD0C9F7F6CF462F4F7063
:1011F000405D4A3318F0495D31FD4052419302D0C1
:10120000A9F7EACFB4E0A695979587957795679566
:10121000BA95C9F700976105710508959B01AC0166
:101220000A2E06945795479537952795BA95C9F78D
:10123000620F731F841F951FA01D0895F894FFCFA0
:1012400000002D0220000100F8494420756E6B6EED
:0A1250006F776E0025640D0A0000A0
:00000001FF
