:100000000C9477030C9494030C9494030C94940331
:100010000C9494030C9494030C9494030C94940304
:100020000C9494030C9494030C9494030C949403F4
:100030000C9494030C9494030C9494030C949403E4
:100040000C9494030C9494030C9494030C949403D4
:100050000C9494030C9494030C9494030C949403C4
:100060000C9494030C9494030C9494030C949403B4
:10007000084AD73B3BCE016E84BCBFFDC12F3D6C0F
:1000800074319ABD56833DDA3D00C77F11BED9E475
:10009000BB4C3E916BAAAABE000000803F0000004E
:1000A0000000005C00000C000C007C287C2858DC60
:1000B00068002410480028542840000C00000078F4
:1000C00084008478000054385400107C1000804074
:1000D0000000101010000040000060100C003854A8
:1000E0003800487C40004864580044542C001C10E0
:1000F0007C005C5424003854240064140C006854C0
:100100002C004854380000480000804800001028A7
:1001100044002828280044281000045408003844CB
:100120005C00781478007C542800384428007C4413
:1001300038007C5444007C140400384474007C1063
:100140007C00447C440020403C007C106C007C40DF
:1001500040007C187C0078103C00384438007C1447
:1001600008003844B8007C14680048542400047C1B
:1001700004007C407C003C603C007C307C006C10C7
:100180006C000C700C0064544C00007C44000C109B
:100190006000447C000008040800808080000004A7
:1001A0000800304878007C4830003048480030482B
:1001B0007C00306850001078140090A878007C080B
:1001C000700050744000808074007C106800447C93
:1001D0004000781078007808700030483000F82827
:1001E00010003048F8007810080050582800083CEB
:1001F000480038407800384038007820780048308F
:10020000480098A078004868580010788400007C66
:1002100000008478100008040804000000000000BA
:10022000005F00000007000700147F147F14242AD9
:100230007F2A1223130864623649552250000503B1
:100240000000001C2241000041221C00082A1C2A38
:100250000808083E08080050300000080808080890
:10026000006060000020100804023E5149453E0035
:10027000427F400042615149462141454B311814AB
:10028000127F1027454545393C4A494930017109DB
:1002900005033649494936064949291E00363600C4
:1002A00000005636000000081422411414141414DF
:1002B00041221408000201510906324979413E7E6B
:1002C0001111117E7F494949363E414141227F410A
:1002D00041221C7F494949417F090901013E4141B1
:1002E00051327F0808087F00417F41002040413F94
:1002F000017F081422417F404040407F0204027F7A
:100300007F0408107F3E4141413E7F090909063EB6
:100310004151215E7F091929464649494931010168
:100320007F01013F4040403F1F2040201F7F201899
:10033000207F631408146303047804036151494562
:100340004300007F4141020408102041417F00002A
:100350000402010204404040404000010204002029
:10036000545454787F4844443838444444203844F2
:1003700044487F3854545418087E09010208145424
:10038000543C7F0804047800447D40002040443DF4
:1003900000007F10284400417F40007C041804784E
:1003A0007C0804047838444444387C141414080845
:1003B0001414187C7C080404084854545420043F46
:1003C0004440203C4040207C1C2040201C3C4030CD
:1003D000403C44281028440C5050503C4464544C39
:1003E00044000836410000007F000000413608004C
:1003F0000201030201000000000000000000065F8F
:100400005F060000000007070007070000147F7F59
:10041000147F7F1400242E6B6B3A12000046663066
:10042000180C666200307A4F5D377A480004070383
:100430000000000000001C3E63410000000041631A
:100440003E1C000000082A3E1C1C3E2A0808083EEC
:100450003E0808000000A0E0600000000008080856
:10046000080808000000006060000000006030180C
:100470000C060301003E7F594D7F3E000042427F43
:100480007F40400000627359496F66000022634953
:10049000497F360000181C16137F7F100027674520
:1004A000457D3900003C7E4B497930000003637183
:1004B000190F070000367F49497F360000064F4973
:1004C000693F1E000000006C6C0000000000A0EC02
:1004D0006C00000000081C36634100000014141476
:1004E0001414140000004163361C0800000203517C
:1004F000590F0600003E7F415D5D1F1E007C7E138C
:10050000137E7C0000417F7F49497F36001C3E639B
:100510004141632200417F7F41637F1C00417F7F17
:10052000495D416300417F7F491D0103001C3E631B
:1005300041517372007F7F08087F7F000000417F78
:100540007F41000000307040417F3F0100417F7FCC
:10055000081C776300417F7F41406070007F7F0609
:100560000C067F7F007F7F060C187F7F001C3E6398
:1005700041633E1C00417F7F49090F06001E3F2159
:10058000717F5E0000417F7F19396F460026674DFD
:10059000597B32000003417F7F410300007F7F4091
:1005A000407F7F00001F3F60603F1F00007F7F3063
:1005B00018307F7F0063771C081C776300074F7833
:1005C000784F0700006773594D47637100007F7FC4
:1005D00041410000000103060C1830600000414159
:1005E0007F7F000000080C0603060C080080808056
:1005F0008080808080000003070400000020745485
:10060000543C784000413F7F44447C3800387C446F
:10061000446C280000307848493F7F4000387C54C3
:10062000545C180000487E7F490302000098BCA477
:10063000A4F87C0400417F7F08047C780000447D9E
:100640007D4000000040C484FD7D000000417F7FAC
:1006500010386C440000417F7F400000007C7C0C1F
:10066000180C7C78007C7C04047C780000387C4486
:10067000447C38000084FCF8A4243C1800183C2476
:10068000A4F8FC8400447C78441C180000485C54A6
:10069000547424000000043E7F442400003C7C404D
:1006A000403C7C40001C3C60603C1C00003C7C608A
:1006B00030607C3C00446C3810386C44009CBCA01A
:1006C000A0FC7C00004C64745C4C64000008083E94
:1006D000774141000000000077770000004141773A
:1006E0003E08080000020301030203010000112478
:1006F0001FBECFEFD4E0DEBFCDBF12E0A0E0B1E07F
:10070000E0E6FAE202C005900D92A83CB107D9F7E5
:1007100022E0A8ECB2E001C01D92A23EB207E1F7D0
:100720000E9422060C942E150C9400003098089517
:10073000883721F484E08093001411C0893721F4B4
:1007400085E0809300140BC08C3621F486E0809302
:10075000001405C0823719F487E0809300142899AB
:10076000FECF809100140895CF93C82F40E06CE134
:100770008BE20E94BF0640E660E680E60E94BF066C
:100780004C2F6FEF8FE00E94BF06CF910895EF923C
:10079000FF920F931F93CF93DF93EC017B018A01AC
:1007A000BC0175956795759567957595679581E415
:1007B0000E949D066C2F6295660F607E82E40E9407
:1007C0009D06602F85E40E949D06101611067CF49C
:1007D000E7010E0D1F1D0F2EF6E4FF2EF02D69917F
:1007E0008F2D0E949D06F394C017D107C1F740E0FA
:1007F00050E061E070E080E090E00E94AF06DF91A1
:10080000CF911F910F91FF90EF9008958F929F923B
:10081000AF92BF92CF92DF92EF92FF920F931F930E
:10082000CF93DF93CDB7DEB78DB69EB685E60E9437
:100830008E068F70C82ED12C8DB79EB78C199D094E
:100840000FB6F8949EBF0FBE8DBFEDB7FEB73196C1
:100850005F011C141D047CF47F0100E010E086E6BB
:10086000800F0E948E06F70181937F010F5F1F4F5B
:100870000C151D05A4F340E061E08CE20E94BF0668
:10088000C5010FB6F8949EBE0FBE8DBEDF91CF910D
:100890001F910F91FF90EF90DF90CF90BF90AF909E
:1008A0009F908F900895CF93DF9388E70E949803DD
:1008B00090E09093D3028093D20289E70E9498033C
:1008C00090E09093D7028093D60286B384701F92F3
:1008D0008F9384E891E09F938F930E941B120F9057
:1008E0000F900F900F90C7E8D1E074C088E70E9486
:1008F000980390E09093D1028093D00289E70E9400
:10090000980390E09093D5028093D4028091D00216
:100910009091D1022091CA023091CB022817390759
:1009200074F49093CB028093CA029F938F93DF93CA
:10093000CF930E941B120F900F900F900F908091F9
:10094000D4029091D5022091C8023091C902281793
:10095000390774F49093C9028093C8029F938F93D0
:10096000DF93CF930E941B120F900F900F900F9068
:100970008091D0029091D10220910801309109011B
:100980008217930774F490930901809308019F9351
:100990008F93DF93CF930E941B120F900F900F90B5
:1009A0000F908091D4029091D50220910601309150
:1009B00007018217930774F490930701809306014F
:1009C0009F938F93DF93CF930E941B120F900F90F2
:1009D0000F900F90B2998ACFDF91CF910895BA9876
:1009E000C29A8CE891E00E942F120E9453048BE976
:1009F00091E00E942F120895CF93DF9300D000D092
:100A000000D0CDB7DEB788E70E94980390E09093BE
:100A1000D1028093D00289E70E949803E82FF0E08A
:100A20008091D0029091D1022091D2023091D302D4
:100A300028173907B4F4AC01421B530B64E6649FDA
:100A4000C001659F900D11246091CA027091CB0284
:100A5000621B730B0E946D0F7093D1026093D002E2
:100A600016C0AC01421B530B64E6649FC001659F36
:100A7000900D11244091080150910901B901641BA6
:100A8000750B0E946D0F7093D1026093D00260913C
:100A9000D6027091D7026E177F07BCF4E61BF70BE6
:100AA00024E62E9FC0012F9F900D11242091C80293
:100AB0003091C902A901461B570BBA010E946D0F64
:100AC0007093D5026093D40214C0E61BF70B24E6A2
:100AD0002E9FC0012F9F900D11242091060130916F
:100AE0000701621B730B0E946D0F7093D502609318
:100AF000D4024091D4028091D50266B32091D002F5
:100B00009091D10229839A834B838C836695669555
:100B100081E0682761706D831E82392F5C8170E0EF
:100B200080E090E026960FB6F894DEBF0FBECDBFF2
:100B3000DF91CF9108958F929F92AF92BF92CF9203
:100B4000DF92EF92FF92CF93DF9300D000D000D0DE
:100B5000CDB7DEB70E94FC0429833A834B835C83C4
:100B600089809A80AB80BC80B401882777FD80950E
:100B7000982F0E94910D6B017C01B501882777FDAC
:100B80008095982F0E94910DA70196010E94A50CB7
:100B90006B017C01889CB001899C700D700D112443
:100BA000AA9CC001AB9C900D900D1124680F791F79
:100BB00080E090E00E948F0D0E94B00E4B015C011E
:100BC00020EE3EE245E652E4C701B6010E94490E1E
:100BD0000E945E0D6B01C501B4010E945E0D7B0198
:100BE000C701B60126960FB6F894DEBF0FBECDBF83
:100BF000DF91CF91FF90EF90DF90CF90BF90AF90BB
:100C00009F908F9008950E949B059B0181359105CF
:100C10007CF06838710574F46E3271056CF4243D13
:100C20008FEF38075CF42A373F4F54F083E0089584
:100C30008FEF089582E0089581E0089580E008959F
:100C400082E00895CF93DF9300D000D000D0CDB7DD
:100C5000DEB785B7806885BF80B7806280BF80E8D7
:100C600095E20E94650C0E9496030E942B0B00E007
:100C700010E028E040E060E08BEE91E00E94B50AD1
:100C80000E94B10B0E94EF040E94580C0E9433098D
:100C90000E944B0C0E94DD0680E490E00E94B403A9
:100CA0000E941D0B0E94B10B06E012E00E94FC04A2
:100CB00029833A834B835C836D837E8346E050E0D7
:100CC000BE016F5F7F4F8AE190E00E94C7038FEF04
:100CD0009FE20197F1F700C000000E940604FC01AA
:100CE00083818F9382818F9381818F9380818F9372
:100CF0001F930F930E941B120E94AC099FEF2FEFCE
:100D00008EE0915020408040E1F700C000000F903D
:100D10000F900F900F900F900F90C8CFCF93C82FC8
:100D2000C49883E00E94530C8C2F0E94530C80E0E7
:100D30000E94530CC49ACF910895CF93DF93D82F7C
:100D4000C62FC49882E00E94530C8D2F0E94530C32
:100D50008C2F0E94530CC49ADF91CF910895C498B0
:100D6000880F991F880F991F8068482B592BCB013A
:100D7000880F991F842B0E94530CC49A08951F93C7
:100D8000CF93DF93182FD62FC42FC49885E00E94ED
:100D9000530C812F0E94530C8D2F0E94530C8C2FCB
:100DA0000E94530CC49ADF91CF911F910895C4986B
:100DB00080EC0E94530CC49A08950E94D7060895AF
:100DC000EF92FF920F931F93CF93DF937C01DC018F
:100DD00014968D919C91159718161906E4F4C0E0AD
:100DE000D0E0CE01880F991FD7011296ED91FC91AA
:100DF0001397E80FF91F00E010E025E04C2F60E0AA
:100E0000808191810E94B50A2196F70184819581A4
:100E1000C817D90734F30E9403062091CC02309101
:100E2000CD02232BD9F4D70118962D913C91199717
:100E300091E0823009F090E0992339F081E02115AA
:100E4000310509F480E0811101C0970181E090E053
:100E50009093CD028093CC02790106C08F3F21F49C
:100E60001092CD021092CC02C701DF91CF911F9159
:100E70000F91FF90EF900895EF92FF920F931F93C1
:100E8000CF93DF937C01DC0114968D919C91159793
:100E900018161906E4F4C0E0D0E0CE01880F991FBF
:100EA000D7011296ED91FC911397E80FF91F00E01E
:100EB00010E025E04C2F60E0808191810E94B50A0E
:100EC0002196F70184819581C817D90734F3D7019A
:100ED00016962D913C9117972F5F3F4F220F331F8E
:100EE000220F331F220F331FB9016850710940E4EC
:100EF00050E080E090E00E94150C0E940306F7018C
:100F00002681378191E0813009F090E0992309F43E
:100F10004FC091E02115310509F490E0992309F4BF
:100F200047C0C0E0D0E0D70116966D917C9117972D
:100F30006F5F7F4F660F771F660F771F660F771FF4
:100F40009B012C1B3D0B225031096C1B7D0B6A5001
:100F5000710940E450E080E090E00E94150CF70138
:100F6000668177816F5F7F4F660F771F660F771FF0
:100F7000660F771F9B012C1B3D0B685071096C1B82
:100F80007D0B40E450E080E090E00E94150C0E9450
:100F9000B10B2296C830D10531F6D70116968D9146
:100FA0009C911797019717969C938E93169788C0DC
:100FB00091E0833009F090E0992309F454C0F701DF
:100FC000448155814150510991E02417350709F4B6
:100FD00090E0992309F447C0C0E0D0E0D70116960D
:100FE0006D917C9117976F5F7F4F660F771F660F2C
:100FF000771F660F771F9B012C0F3D1F68507109EB
:101000006C0F7D1F40E450E080E090E00E94150CE2
:10101000F701668177816F5F7F4F660F771F660FDD
:10102000771F660F771F9B012C0F3D1F2E5F3F4FD1
:101030006C0F7D1F6650710940E450E080E090E045
:101040000E94150C0E94B10B2296C830D10531F6D2
:10105000D70116968D919C911797019617969C93A0
:101060008E9316972DC0220F331FD7011A96ED913C
:10107000FC911B97E20FF31F0190F081E02D91E0AE
:10108000811190E0992341F091E024813581232B57
:1010900009F490E0911111C0F7012085318591E0AC
:1010A000823009F090E0992359F081E02115310553
:1010B00009F480E0811103C003C07F0101C0790100
:1010C00081E090E09093CD028093CC02C701DF9144
:1010D000CF911F910F91FF90EF900895AF92BF9223
:1010E000CF92DF92EF92FF920F931F93CF93DF93F4
:1010F0008C01E62EF72EEA016A01CC0CDD1CC6013C
:101100000E94D60FD80113969C938E9312971C16AB
:101110001D0654F5AE2CBF2CC0E0D0E0F801E280F3
:10112000F380EC0EFD1EF501A081B181FD0101905F
:101130000020E9F73197CF018A1B9B0B0E94D60F45
:10114000D7018D939C93F501819191915F01D80115
:101150001296ED91FC911397EC0FFD1F9183808304
:101160002296CC16DD06D1F6F80117821682DF91A1
:10117000CF911F910F91FF90EF90DF90CF90BF9094
:10118000AF900895EF92FF920F931F93CF93DF9349
:10119000EC018B018C819D8101969D838C83FB01E9
:1011A000D187C0876C817D81660F771F8A859B857B
:1011B0000E94FD109B878A87EC80FD80F1E0EF1A8A
:1011C000F0E8FF0AEE0CFF1CE80EF91E8EE090E03E
:1011D0000E94D60FF70191838083EC81FD81E1505D
:1011E000F048EE0FFF1F8A859B85E80FF91F1183DA
:1011F00000836C817D81660F771F8A819B810E94AD
:10120000FD109B838A83EC80FD80F1E0EF1AF0E80B
:10121000FF0AEE0CFF1CE80EF91EF801A081B18157
:10122000FD0101900020E9F73197CF018A1B9B0B4C
:101230000E94D60FF70191838083F801808191810C
:10124000EC81FD81E150F048EE0FFF1F2A813B81C8
:10125000E20FF31F91838083DF91CF911F910F9154
:10126000FF90EF900895CF93DF93CDB7DEB76C97E3
:101270000FB6F894DEBF0FBECDBF86E0E8E6F1E022
:10128000DE01119601900D928A95E1F743E050E05E
:10129000BE016F5F7F4F8AE191E00E946E086AE1B4
:1012A00071E086E391E00E94C20888E0EEE6F1E09A
:1012B000DE01179601900D928A95E1F744E050E027
:1012C000BE01695F7F4F8CE091E00E946E086CE088
:1012D00071E086E391E00E94C20866E371E082E576
:1012E00091E00E94C20886E0E6E7F1E0DE011F9689
:1012F00001900D928A95E1F743E050E0BE01615FF5
:101300007F4F84E491E00E946E0864E471E082E51E
:1013100091E00E94C20888E0ECE7F1E0DE0155961A
:1013200001900D928A95E1F744E050E0BE016B5EBA
:101330007F4F88E291E00E946E0868E271E082E5EA
:1013400091E00E94C2086C960FB6F894DEBF0FBE03
:10135000CDBFDF91CF9108950E941D0B80910A01AE
:1013600090910B01DC011C96ED91FC911D97099564
:1013700090930B0180930A010E94B10B0895209174
:10138000600130916101232BF9F02091CE02309160
:10139000CF02211594E039072CF084EB92E00E94F3
:1013A0002F1208954091640150916501FA01E20FF6
:1013B000F31F80838091CE029091CF02019690938B
:1013C000CF028093CE020895E0916201F091630113
:1013D00080830895EF92FF920F931F93CF93DF9333
:1013E000683059F4082F10E0000F111F000F111F73
:1013F000000F111F0B501D4F1AC0653071F4082FDC
:1014000010E000521109C801880F991F880F991F19
:10141000080F191F065E1D4F0AC0643041F4082FE3
:1014200010E0000F111F000F111F025E1F4F452B10
:1014300031F0E62EF12C1E141F049CF01FC0E62E86
:10144000F12C1E141F04D4F4C0E0D0E0FE01E00F24
:10145000F11F84910E94BF092196CE15DF05B4F3D8
:101460000DC0C0E0D0E0FE01E00FF11F8491809537
:101470000E94BF092196CE15DF05ACF3DF91CF9115
:101480001F910F91FF90EF900895809160019091CE
:101490006101892BB9F08091CE029091CF02811524
:1014A00024E0920734F084EB92E00E942F128FEF39
:1014B00008952091640130916501F901E80FF91F49
:1014C0008081089580E0089540916001509161010C
:1014D000452BD1F02091CE023091CF022F7730787A
:1014E000332334F42150310920683F6F2F5F3F4F81
:1014F0009695982F882797958795280F391F3093B1
:10150000CF022093CE0208958055E0916601F091BC
:101510006701808308952091600130916101232B40
:10152000C1F04091CE025091CF029A012F773078CE
:10153000332334F42150310920683F6F2F5F3F4F30
:10154000421B530B840F951F9093CF028093CE02C2
:101550000895E0916601F09167011082E0916601C3
:10156000F091670180E1808308956F927F928F925E
:101570009F92AF92BF92CF92DF92EF92FF920F9322
:101580001F93CF93DF93EC01962E742E822E862F1D
:1015900090E00E948B0A872D90E00E94640AFE0171
:1015A00001900020E9F731976F01CC1ADD0A1C1475
:1015B0001D0424F57E01C0E0D0E08FE790E05C01DF
:1015C000A818B108612CA801682DF70181917F014D
:1015D0000E94EA09980C892D90E0A816B90654F4E7
:1015E000739480E090E00E948B0A872D90E00E9427
:1015F000640A962C2196CC16DD0629F7DF91CF914F
:101600001F910F91FF90EF90DF90CF90BF90AF9020
:101610009F908F907F906F900895CF930E94640A5F
:1016200080E090E00E948B0AC0E080E00E94BF0949
:10163000CF5FC038D1F7CF910895CF93DF93C0E04B
:10164000D0E0CE010E940D0B2196C830D105C9F71C
:10165000DF91CF910895E0916601F09167018EEAE4
:101660008083E0916601F091670181EA8083E091D7
:101670006601F09167018AED8083E0916601F09147
:10168000670182E18083E0916601F091670188EC57
:101690008083E0916601F091670188EA8083E091A0
:1016A0006601F09167018FE38083E0916601F0911C
:1016B000670185ED8083E0916601F091670180E824
:1016C0008083E0916601F091670181E88083E09179
:1016D0006601F091670180E58083E0916601F091F9
:1016E000670189ED8083E0916601F091670181E2F5
:1016F0008083E0916601F091670180E28083E09150
:101700006601F091670182E08083E0916601F091CB
:1017100067018BED8083E0916601F091670180E3C2
:101720008083E0916601F09167018DEA8083E0910A
:101730006601F09167011082E0916601F091670106
:1017400084EA8083E0916601F091670186EA8083F4
:10175000E0916601F09167018FEA80830E941D0B82
:101760000895CF93E0916601F09167011082E091B6
:101770006601F091670180E1808380916001909122
:101780006101892B21F140E050E060EBC0E070E0A6
:10179000E0916601F091670160838C2F972FE091B3
:1017A0006201F09163019C01240F351FA091640137
:1017B000B0916501A20FB31F2C9120830196803850
:1017C000910569F76F5F40585F4F683B09F7CF910C
:1017D0000895CF93DF93EB010E948B0ACE01DD23A6
:1017E0000CF407969595879595958795959587958A
:1017F0000E94640A0E94450ABE01677070787723D0
:1018000034F461507109686F7F6F6F5F7F4F21E023
:1018100030E0A90102C0440F551F6A95E2F7842702
:101820000E94BF09DF91CF9108958F929F92AF924E
:10183000BF92CF92DF92EF92FF920F931F93CF93BD
:10184000DF938C016B015A01790184179507B4F479
:10185000862E9D2C0DC0BE01C8010E94E90B219669
:10186000CE15DF05C4F30F5F1F4F0A151B0534F4B7
:10187000CE14DF04C4F7C82DD92DEDCFDF91CF9161
:101880001F910F91FF90EF90DF90CF90BF90AF909E
:101890009F908F90089587B3806B87BBBE9881E53A
:1018A0008DB9C49A08958FB9779BFECF8FB10895F3
:1018B000B898B99808955D9BFECF8CB981E090E00F
:1018C00008955F9BFECF8CB10895CF93DF93AA2735
:1018D00097FDA095BA2F880F991FAA1FBB1F880FCD
:1018E000991FAA1FBB1F9C01AD01220F331F441F6C
:1018F000551F220F331F441F551F60E070E08BE41B
:1019000090E00E94810FE901219761E67CE08BE580
:101910009CE00E94D011C9B9D0BD88E18AB98EE897
:1019200080BD81E090E0DF91CF91089563D158F0C0
:1019300080E891E009F49EEF64D128F040E851E09E
:1019400059F45EEF09C02EC196C1E92FE07871D13C
:1019500068F3092E052AC1F32617370748075907E8
:1019600038F00E2E07F8E02569F0E025E0640AC0A3
:10197000EF6307F8009407FADB01B9019D01DC0170
:10198000CA01AD01EF9341D043D10AD05F915523F5
:1019900031F02BED3FE049E450FD49EC23C20895BE
:1019A000DF93DD27B92FBF7740E85FE316161706F0
:1019B00048075B0710F4D92F65D19F938F937F93CE
:1019C0006F930CD2E0E7F0E0F0D022D12F913F915D
:1019D0004F915F916AD1DD2349F09058A2EA2AED38
:1019E0003FE049EC5FE3D0785D270DD2DF9110C175
:1019F00008D140F0FFD030F021F45F3F19F0CCC0A7
:101A000051113AC1CFC015D198F39923C9F3552389
:101A1000B1F3951B550BBB27AA27621773078407E1
:101A200038F09F5F5F4F220F331F441FAA1FA9F397
:101A300033D00E2E3AF0E0E830D091505040E69589
:101A4000001CCAF729D0FE2F27D0660F771F881FEA
:101A5000BB1F261737074807AB07B0E809F0BB0BD9
:101A6000802DBF01FF2793585F4F2AF09E3F5105FD
:101A700068F092C001C15F3FECF3983EDCF38695BD
:101A800077956795B795F7959F5FC9F7880F911D73
:101A90009695879597F90895E1E0660F771F881F5F
:101AA000BB1F621773078407BA0720F0621B730B12
:101AB000840BBA0BEE1F88F7E095089504D0689464
:101AC000B111DAC00895BDD088F09F5790F0B92FBA
:101AD0009927B751A0F0D1F0660F771F881F991F83
:101AE0001AF0BA95C9F712C0B13081F0C4D0B1E094
:101AF0000895C1C0672F782F8827B85F39F0B93FA4
:101B0000CCF3869577956795B395D9F73EF4909584
:101B10008095709561957F4F8F4F9F4F0895E89402
:101B200009C097FB3EF490958095709561957F4F25
:101B30008F4F9F4F9923A9F0F92F96E9BB279395D3
:101B4000F695879577956795B795F111F8CFFAF4E3
:101B5000BB0F11F460FF1BC06F5F7F4F8F4F9F4F14
:101B600016C0882311F096E911C0772321F09EE872
:101B7000872F762F05C0662371F096E8862F70E0D8
:101B800060E02AF09A95660F771F881FDAF7880FB2
:101B90009695879597F9089597F99F6780E870E083
:101BA00060E008959FEF80EC0895DF93CF931F933B
:101BB0000F93FF92EF92DF927B018C01689405C036
:101BC000DA2EEF0172D0FE01E894A59125913591AE
:101BD00045915591AEF3EF0116D1FE019701A80191
:101BE000DA9479F7DF90EF90FF900F911F91CF91EA
:101BF000DF91089500240A941616170618060906A0
:101C0000089500240A941216130614060506089572
:101C1000092E0394000C11F4882352F0BB0F40F4FA
:101C2000BF2B11F460FF04C06F5F7F4F8F4F9F4F3A
:101C3000089557FD9058440F551F59F05F3F71F0BC
:101C40004795880F97FB991F61F09F3F79F0879523
:101C50000895121613061406551FF2CF4695F1DFAC
:101C600008C0161617061806991FF1CF869571053C
:101C7000610508940895E894BB2766277727CB0170
:101C800097F908959B01AC0160E070E080E89FE364
:101C90000DC10BD0BDCFAEDF28F0B3DF18F0952318
:101CA00009F07ACF7FCF1124E7CFC3DFA0F3959F50
:101CB000D1F3950F50E0551F629FF001729FBB2733
:101CC000F00DB11D639FAA27F00DB11DAA1F649FDF
:101CD0006627B00DA11D661F829F2227B00DA11D92
:101CE000621F739FB00DA11D621F839FA00D611D18
:101CF000221F749F3327A00D611D231F849F600D39
:101D0000211D822F762F6A2F11249F5750408AF071
:101D1000E1F088234AF0EE0FFF1FBB1F661F771FFD
:101D2000881F91505040A9F79E3F510570F034CF65
:101D3000A3CF5F3FECF3983EDCF3869577956795EC
:101D4000B795F795E7959F5FC1F7FE2B880F911D1B
:101D50009695879597F9089511F40EF423CFA8C0AE
:101D600070DFD0F39923D9F3CEF39F57550B87FF3C
:101D7000ADD00024A0E640EA900180585695979592
:101D800028F4805C660F771F881F20F0261737071E
:101D9000480730F4621B730B840B202931294A2B2E
:101DA000A69517940794202531254A2758F7660FE2
:101DB000771F881F20F026173707480730F4620B7B
:101DC000730B840B200D311D411DA09581F7B901C6
:101DD000842F9158880F9695879508959B01AC01A3
:101DE00058CF5058BB27AA270ED012CF03DF30F0B0
:101DF00008DF20F031F49F3F11F41EF4D3CE0EF42F
:101E0000E095E7FBC9CEE92F14DF80F3BA1762072C
:101E100073078407950718F071F49EF52CCF0EF424
:101E2000E0950B2EBA2FA02D0B01B90190010C01EA
:101E3000CA01A0011124FF27591B99F0593F50F402
:101E4000503E68F11A16F040A22F232F342F44275A
:101E5000585FF3CF469537952795A795F040539552
:101E6000C9F77EF41F16BA0B620B730B840BBAF022
:101E70009150A1F0FF0FBB1F661F771F881FC2F78D
:101E80000EC0BA0F621F731F841F48F487957795A1
:101E90006795B795F7959E3F08F0B3CF9395880F58
:101EA00008F09927EE0F979587950895ACDDB0CE91
:101EB0009F3F31F0915020F4879577956795B795BE
:101EC000880F911D9695879597F9089591505040E8
:101ED000660F771F881FD2F7089597FB072E16F419
:101EE000009407D077FD09D00E94A00F07FC05D011
:101EF0003EF4909581959F4F0895709561957F4F21
:101F00000895052E97FB1EF400940E94980F57FD2C
:101F100007D00E94B40F07FC03D04EF40C94980F26
:101F200050954095309521953F4F4F4F5F4F089505
:101F300090958095709561957F4F8F4F9F4F089535
:101F4000AA1BBB1B51E107C0AA1FBB1FA617B707DF
:101F500010F0A61BB70B881F991F5A95A9F78095FB
:101F60009095BC01CD010895A1E21A2EAA1BBB1BBE
:101F7000FD010DC0AA1FBB1FEE1FFF1FA217B30755
:101F8000E407F50720F0A21BB30BE40BF50B661F6B
:101F9000771F881F991F1A9469F76095709580952F
:101FA00090959B01AC01BD01CF010895CF93DF93C4
:101FB0008230910510F482E090E0E091DA02F09135
:101FC000DB0220E030E0A0E0B0E0309739F1408162
:101FD000518148175907B8F04817590771F48281A1
:101FE0009381109729F013969C938E9312972CC08F
:101FF0009093DB028093DA0227C02115310531F07E
:102000004217530718F0A901DB0101C0EF019A0143
:10201000BD01DF010280F381E02DD7CF211531050D
:10202000F9F0281B390B2430310580F48A819B811B
:102030006115710521F0FB019383828304C09093A5
:10204000DB028093DA02FE01329644C0FE01E20F09
:10205000F31F8193919322503109398328833AC029
:102060002091D8023091D902232B41F42091020112
:10207000309103013093D9022093D80220910001BE
:10208000309101012115310541F42DB73EB7409142
:10209000040150910501241B350BE091D802F09109
:1020A000D902E217F307A0F42E1B3F0B28173907BC
:1020B00078F0AC014E5F5F4F2417350748F04E0FA4
:1020C0005F1F5093D9024093D8028193919302C02D
:1020D000E0E0F0E0CF01DF91CF910895CF93DF935F
:1020E000009709F487C0FC01329713821282C091D5
:1020F000DA02D091DB02209781F420813181280F10
:10210000391F8091D8029091D9028217930779F5EF
:10211000F093D902E093D8026DC0DE0120E030E0F8
:10212000AE17BF0750F412964D915C9113979D0125
:102130004115510509F1DA01F3CFB383A283408140
:102140005181840F951F8A179B0771F48D919C9183
:102150001197840F951F02969183808312968D911B
:102160009C911397938382832115310529F4F09371
:10217000DB02E093DA023EC0D9011396FC93EE93A2
:1021800012974D915D91A40FB51FEA17FB0779F4E3
:1021900080819181840F951F0296D90111969C939D
:1021A0008E938281938113969C938E931297E0E095
:1021B000F0E08A819B81009719F0FE01EC01F9CFD4
:1021C000CE01029628813981820F931F2091D80277
:1021D0003091D9022817390769F4309729F4109201
:1021E000DB021092DA0202C013821282D093D9026B
:1021F000C093D802DF91CF910895A0E0B0E0E3E072
:10220000F1E10C94FB14EC01CB01209719F40E942E
:10221000D60FB8C0FE01E60FF71F9E01225031090C
:10222000E217F30708F4ACC0D9010D911C91119786
:1022300006171707B8F00530110508F49FC0A8016C
:10224000445051094617570708F498C00250110925
:10225000061B170B019311936D937C93CF010E9482
:102260006E108CC05B01A01AB10A4E01800E911E47
:10227000A091DA02B091DB02612C712C60E070E079
:10228000109709F449C0A815B905C9F5ED90FC905F
:102290001197670142E0C40ED11CCA14DB0478F127
:1022A00047018A189B08640142E0C40ED11C1296B3
:1022B000BC9012971396AC91B5E0CB16D10440F0C8
:1022C000B282A38391828082D9018D939C9309C0AD
:1022D0000E5F1F4F0E0D1F1DF90111830083EB2DA3
:1022E000FA2F6115710531F0DB011396FC93EE9323
:1022F000129744C0F093DB02E093DA023FC06D9185
:102300007C9111976616770608F43B01BD01129681
:102310000D90BC91A02DB4CF6091D8027091D902DC
:1023200068157905E9F468167906D0F44091000142
:10233000509101014115510541F44DB75EB76091CF
:10234000040170910501461B570BE417F507C0F413
:10235000F093D902E093D802F901918380830EC0F3
:102360000E94D60F7C01009759F0A801BE010E947F
:10237000C711CE010E946E10C70104C0CE0102C079
:1023800080E090E0CDB7DEB7EEE00C941715FB01CE
:10239000DC0102C001900D9241505040D8F70895E1
:1023A0000F931F93CF93DF93EC018B01009731F4D0
:1023B0006115710519F480E090E038C06EE070E0BE
:1023C00081E090E00E942E14FC010097A1F380E8C8
:1023D00083830115110571F01387028781E88383D8
:1023E0008091DC029091DD02892B21F4F093DD02D3
:1023F000E093DC022097C9F0D187C0878381826097
:1024000083838091DE029091DF02892B71F4F09337
:10241000DF02E093DE028091E0029091E102892BDD
:1024200021F4F093E102E093E002CF01DF91CF913C
:102430001F910F910895A0E0B0E0E1E2F2E10C9469
:102440000715FE01359661917191AF018091DE0211
:102450009091DF020E945C12E2E00C9423150F932E
:102460001F93CF93DF93E091DE02F091DF0223818F
:1024700021FF1BC0EC0100E010E089916091DE02B9
:102480007091DF02DB011896ED91FC91199788237A
:1024900031F00995892B89F30FEF1FEFEECF8AE01A
:1024A0000995892B11F4C80102C08FEF9FEFDF91CE
:1024B000CF911F910F910895ACE0B0E0E2E6F2E118
:1024C0000C94F7147C016B018A01FC0117821682BF
:1024D000838181FFBDC1CE0101964C01F70193813B
:1024E000F60193FD859193FF81916F01882309F493
:1024F000ABC1853239F493FD859193FF81916F01D2
:10250000853229F4B70190E00E946714E7CF512C7F
:10251000312C20E02032A0F48B3269F030F480328C
:1025200059F0833269F420612CC08D3239F0803348
:1025300039F4216026C02260246023C0286021C0B5
:1025400027FD27C030ED380F3A3078F426FF06C05B
:10255000FAE05F9E300D1124532E13C08AE0389E9E
:10256000300D1124332E20620CC08E3221F426FD52
:102570006BC1206406C08C3611F4206802C0883616
:1025800041F4F60193FD859193FF81916F018111D3
:10259000C1CF982F9F7D9554933028F40C5F1F4F27
:1025A000FFE3F9830DC0833631F0833771F0833553
:1025B00009F05BC022C0F801808189830E5F1F4F44
:1025C00044244394512C540115C03801F2E06F0E9D
:1025D000711CF801A080B18026FF03C0652D70E05A
:1025E00002C06FEF7FEFC5012C870E945C142C01A5
:1025F00083012C852F77222E17C03801F2E06F0E51
:10260000711CF801A080B18026FF03C0652D70E029
:1026100002C06FEF7FEFC5012C870E944A142C0186
:102620002C852068222E830123FC1BC0832D90E083
:1026300048165906B0F4B70180E290E00E94671492
:102640003A94F4CFF50127FC859127FE81915F0133
:10265000B70190E00E94671431103A94F1E04F1AEC
:1026600051084114510471F7E5C0843611F08936E0
:1026700039F5F80127FF07C060817181828193815C
:102680000C5F1F4F08C060817181882777FD80959E
:10269000982F0E5F1F4F2F76B22E97FF09C090958F
:1026A0008095709561957F4F8F4F9F4F2068B22E18
:1026B0002AE030E0A4010E949914A82EA81844C072
:1026C000853729F42F7EB22E2AE030E025C0F22F84
:1026D000F97FBF2E8F36C1F018F4883579F0B4C079
:1026E000803719F0883721F0AFC02F2F2061B22E2C
:1026F000B4FE0DC08B2D8460B82E09C024FF0AC023
:102700009F2F9660B92E06C028E030E005C020E17A
:1027100030E002C020E132E0F801B7FE07C060817E
:102720007181828193810C5F1F4F06C0608171812E
:1027300080E090E00E5F1F4FA4010E949914A82E24
:10274000A818FB2DFF77BF2EB6FE0BC02B2D2E7FBA
:10275000A51450F4B4FE0AC0B2FC08C02B2D2E7E86
:1027600005C07A2C2B2D03C07A2C01C0752C24FFB8
:102770000DC0FE01EA0DF11D8081803311F4297E28
:1027800009C022FF06C07394739404C0822F867818
:1027900009F0739423FD13C020FF06C05A2C731454
:1027A00018F4530C5718732C731468F4B70180E2B3
:1027B00090E02C870E94671473942C85F5CF7314D6
:1027C00010F4371801C0312C24FF12C0B70180E388
:1027D00090E02C870E9467142C8522FF17C021FFF0
:1027E00003C088E590E002C088E790E0B7010CC024
:1027F000822F867859F021FD02C080E201C08BE271
:1028000027FD8DE2B70190E00E946714A51438F40B
:10281000B70180E390E00E9467145A94F7CFAA941E
:10282000F401EA0DF11D8081B70190E00E94671468
:10283000A110F5CF332009F451CEB70180E290E02A
:102840000E9467143A94F6CFF7018681978102C0FF
:102850008FEF9FEF2C96E2E10C9413150F931F93CB
:10286000CF93DF93869F8001879F100D969F100D59
:102870001124C8010E94D60FEC01009729F0A8018D
:1028800060E070E00E945514CE01DF91CF911F915E
:102890000F910895FC010590615070400110D8F728
:1028A000809590958E0F9F1F0895DC0101C06D9358
:1028B00041505040E0F70895FC0161507040019094
:1028C0000110D8F7809590958E0F9F1F08950F9354
:1028D0001F93CF93DF93182F092FEB018B8181FD7D
:1028E00003C08FEF9FEF20C082FF10C04E815F8139
:1028F0002C813D81421753077CF4E881F9819F01C7
:102900002F5F3F4F39832883108306C0E885F98500
:10291000812F0995892B29F72E813F812F5F3F4F0A
:102920003F832E83812F902FDF91CF911F910F91A5
:102930000895FA01AA27283051F1203181F1E89455
:102940006F936E7F6E5F7F4F8F4F9F4FAF4FB1E0A2
:102950003ED0B4E03CD0670F781F891F9A1FA11D9D
:10296000680F791F8A1F911DA11D6A0F711D811D9E
:10297000911DA11D20D009F468943F912AE0269F63
:1029800011243019305D3193DEF6CF010895462FC2
:102990004770405D4193B3E00FD0C9F7F6CF462FA3
:1029A0004F70405D4A3318F0495D31FD405241930C
:1029B00002D0A9F7EACFB4E0A695979587957795C9
:1029C0006795BA95C9F700976105710508959B0150
:1029D000AC010A2E06945795479537952795BA95D9
:1029E000C9F7620F731F841F951FA01D08952F92B2
:1029F0003F924F925F926F927F928F929F92AF928F
:102A0000BF92CF92DF92EF92FF920F931F93CF93DB
:102A1000DF93CDB7DEB7CA1BDB0B0FB6F894DEBF72
:102A20000FBECDBF09942A88398848885F846E8498
:102A30007D848C849B84AA84B984C884DF80EE80E2
:102A4000FD800C811B81AA81B981CE0FD11D0FB6EB
:102A5000F894DEBF0FBECDBFED010895F894FFCF0F
:102A60000000E2022000FF00FF0052017B02000094
:102A700000000000000000003C078402000000008D
:102A80000000000000003C078C0200000000000075
:102A900000000000E00697020000000000000000B7
:102AA00000003C079F020000000000000000000042
:102AB0003C07AA02000000000000000000003C07E4
:102AC000010000120018001013021B0223022B0247
:102AD0002F0236023B0241022F0246024B025502F0
:102AE0005E026C022564002564200A0043616C6963
:102AF00062726174696E672E2E2E0043616C69628A
:102B000072617465642E0078203D200025642020C9
:102B10000079203D200058203D200059203D200014
:102B200041203D20007468657461203D20004469A7
:102B300072656374696F6E203D20004D6964646C3A
:102B40006520627574746F6E3D2000506C65617312
:102B5000652063616C696272617465206A6F797364
:102B60007469636B2100783A25346409793A253415
:102B7000640D00506C617965723100506C6179654B
:102B8000723200506C6179657233004C6F77004D82
:102B9000656469756D004869676800556C74726199
:102BA0000045617379004861726400312E204865E8
:102BB000726D616E00322E2052616F756C00332E83
:102BC00020416C6C6520616E647265002D696E66D3
:102BD0005E696E662E2048616E7300477261706890
:102BE00069637300436F6E74726F6C004869676845
:102BF0002073636F7265004F7074696F6E73004469
:102C00006966666963756C7479004D61696E206DE3
:102C1000656E75004F757473696465206F66207307
:082C2000637265656E2100007E
:00000001FF
