:100000000C9477030C9488040C9494030C9494033C
:100010000C9494030C9494030C9494030C9459073B
:100020000C9494030C9494030C9494030C949403F4
:100030000C9494030C94C30D0C9494030C949403AB
:100040000C9494030C9494030C9494030C949403D4
:100050000C9494030C9494030C9494030C949403C4
:100060000C9494030C9494030C9494030C949403B4
:10007000084AD73B3BCE016E84BCBFFDC12F3D6C0F
:1000800074319ABD56833DDA3D00C77F11BED9E475
:10009000BB4C3E916BAAAABE000000803F0000004E
:1000A0000000005C00000C000C007C287C2858DC60
:1000B00068002410480028542840000C00000078F4
:1000C00084008478000054385400107C1000804074
:1000D0000000101010000040000060100C003854A8
:1000E0003800487C40004864580044542C001C10E0
:1000F0007C005C5424003854240064140C006854C0
:100100002C004854380000480000804800001028A7
:1001100044002828280044281000045408003844CB
:100120005C00781478007C542800384428007C4413
:1001300038007C5444007C140400384474007C1063
:100140007C00447C440020403C007C106C007C40DF
:1001500040007C187C0078103C00384438007C1447
:1001600008003844B8007C14680048542400047C1B
:1001700004007C407C003C603C007C307C006C10C7
:100180006C000C700C0064544C00007C44000C109B
:100190006000447C000008040800808080000004A7
:1001A0000800304878007C4830003048480030482B
:1001B0007C00306850001078140090A878007C080B
:1001C000700050744000808074007C106800447C93
:1001D0004000781078007808700030483000F82827
:1001E00010003048F8007810080050582800083CEB
:1001F000480038407800384038007820780048308F
:10020000480098A078004868580010788400007C66
:1002100000008478100008040804000000000000BA
:10022000005F00000007000700147F147F14242AD9
:100230007F2A1223130864623649552250000503B1
:100240000000001C2241000041221C00082A1C2A38
:100250000808083E08080050300000080808080890
:10026000006060000020100804023E5149453E0035
:10027000427F400042615149462141454B311814AB
:10028000127F1027454545393C4A494930017109DB
:1002900005033649494936064949291E00363600C4
:1002A00000005636000000081422411414141414DF
:1002B00041221408000201510906324979413E7E6B
:1002C0001111117E7F494949363E414141227F410A
:1002D00041221C7F494949417F090901013E4141B1
:1002E00051327F0808087F00417F41002040413F94
:1002F000017F081422417F404040407F0204027F7A
:100300007F0408107F3E4141413E7F090909063EB6
:100310004151215E7F091929464649494931010168
:100320007F01013F4040403F1F2040201F7F201899
:10033000207F631408146303047804036151494562
:100340004300007F4141020408102041417F00002A
:100350000402010204404040404000010204002029
:10036000545454787F4844443838444444203844F2
:1003700044487F3854545418087E09010208145424
:10038000543C7F0804047800447D40002040443DF4
:1003900000007F10284400417F40007C041804784E
:1003A0007C0804047838444444387C141414080845
:1003B0001414187C7C080404084854545420043F46
:1003C0004440203C4040207C1C2040201C3C4030CD
:1003D000403C44281028440C5050503C4464544C39
:1003E00044000836410000007F000000413608004C
:1003F0000201030201000000000000000000065F8F
:100400005F060000000007070007070000147F7F59
:10041000147F7F1400242E6B6B3A12000046663066
:10042000180C666200307A4F5D377A480004070383
:100430000000000000001C3E63410000000041631A
:100440003E1C000000082A3E1C1C3E2A0808083EEC
:100450003E0808000000A0E0600000000008080856
:10046000080808000000006060000000006030180C
:100470000C060301003E7F594D7F3E000042427F43
:100480007F40400000627359496F66000022634953
:10049000497F360000181C16137F7F100027674520
:1004A000457D3900003C7E4B497930000003637183
:1004B000190F070000367F49497F360000064F4973
:1004C000693F1E000000006C6C0000000000A0EC02
:1004D0006C00000000081C36634100000014141476
:1004E0001414140000004163361C0800000203517C
:1004F000590F0600003E7F415D5D1F1E007C7E138C
:10050000137E7C0000417F7F49497F36001C3E639B
:100510004141632200417F7F41637F1C00417F7F17
:10052000495D416300417F7F491D0103001C3E631B
:1005300041517372007F7F08087F7F000000417F78
:100540007F41000000307040417F3F0100417F7FCC
:10055000081C776300417F7F41406070007F7F0609
:100560000C067F7F007F7F060C187F7F001C3E6398
:1005700041633E1C00417F7F49090F06001E3F2159
:10058000717F5E0000417F7F19396F460026674DFD
:10059000597B32000003417F7F410300007F7F4091
:1005A000407F7F00001F3F60603F1F00007F7F3063
:1005B00018307F7F0063771C081C776300074F7833
:1005C000784F0700006773594D47637100007F7FC4
:1005D00041410000000103060C1830600000414159
:1005E0007F7F000000080C0603060C080080808056
:1005F0008080808080000003070400000020745485
:10060000543C784000413F7F44447C3800387C446F
:10061000446C280000307848493F7F4000387C54C3
:10062000545C180000487E7F490302000098BCA477
:10063000A4F87C0400417F7F08047C780000447D9E
:100640007D4000000040C484FD7D000000417F7FAC
:1006500010386C440000417F7F400000007C7C0C1F
:10066000180C7C78007C7C04047C780000387C4486
:10067000447C38000084FCF8A4243C1800183C2476
:10068000A4F8FC8400447C78441C180000485C54A6
:10069000547424000000043E7F442400003C7C404D
:1006A000403C7C40001C3C60603C1C00003C7C608A
:1006B00030607C3C00446C3810386C44009CBCA01A
:1006C000A0FC7C00004C64745C4C64000008083E94
:1006D000774141000000000077770000004141773A
:1006E0003E08080000020301030203010000112478
:1006F0001FBECFEFD4E0DEBFCDBF12E0A0E0B1E07F
:10070000E2EDFCE202C005900D92AC38B107D9F7DA
:1007100022E0ACE8B2E001C01D92A73BB207E1F7CE
:100720000E94CD0A0C9467160C940000309808952E
:10073000883721F484E08093001411C0893721F4B4
:1007400085E0809300140BC08C3621F486E0809302
:10075000001405C0823719F487E0809300142899AB
:10076000FECF809100140895CF93C82F0E944B06AE
:1007700043E063E08BE20E942D0640E660E680E6FF
:100780000E942D064C2F6FEF8FE00E942D0685B73B
:10079000826085BF8BB780648BBFCF910895EF9245
:1007A000FF920F931F93CF93DF9300D000D000D020
:1007B000CDB7DEB749835A836B837C838D839E8359
:1007C00009811A81EB80FC80B80175956795759554
:1007D00067957595679581E50E940B06602F629578
:1007E000660F607E82E50E940B066E2D85E50E94F5
:1007F0000B061E141F0484F400E010E0ED81FE815E
:10080000E00FF11F608186E5800F0E940B060F5FED
:100810001F4F0E151F0591F740E050E060E070E0BB
:1008200081E090E00E941D0626960FB6F894DEBF88
:100830000FBECDBFDF91CF911F910F91FF90EF9031
:1008400008958F929F92AF92BF92CF92DF92EF92D4
:10085000FF920F931F93CF93DF9300D000D000D06F
:10086000CDB7DEB781E60E94FC05A82E82E60E9485
:10087000FC05829586958770B12CAA0CBB1CAA0C2E
:10088000BB1CAA0CBB1CA82A85E60E94FC058F7025
:10089000C82ED12CC6010E941A11982E892E1C1424
:1008A0001D0484F4E82EF92E00E010E086E6800FA7
:1008B0000E94FC05F70181937F010F5F1F4F0C150C
:1008C0001D05A4F340E061E08CE20E942D06BA828F
:1008D000A982DC82CB829D828E822A2D3A814C2D88
:1008E0005C81692D782D80E090E026960FB6F89413
:1008F000DEBF0FBECDBFDF91CF911F910F91FF9053
:10090000EF90DF90CF90BF90AF909F908F90089521
:100910001F920F920FB60F9211248F939F9381E035
:1009200090E090938D0280938C029F918F910F9015
:100930000FBE0F901F901895BA98C29A0895CF9243
:10094000DF92EF92FF920F931F93CF93DF93CDB778
:10095000DEB728970FB6F894DEBF0FBECDBF88E78D
:100960000E94980390E09093AA028093A90289E7DD
:100970000E949803282F30E03093AC022093AB0202
:1009800016B31695169581E01827117000E01093A4
:100990009202009393028091A9029091AA02409141
:1009A0000C0150910D0148175907B4F4BC01641BA8
:1009B000750BE4E6E69FC001E79F900D112460915E
:1009C0000A0170910B01641B750B0E94B1107093AA
:1009D000AA026093A90217C0BC01641B750BE4E670
:1009E000E69FC001E79F900D1124609190027091E5
:1009F0009102FA01E61BF70BBF010E94B110709340
:100A0000AA026093A902409108015091090142177E
:100A10005307ACF4241B350B64E6629FC001639F4F
:100A2000900D11246091060170910701641B750BF4
:100A30000E94B1107093AC026093AB0215C0241BEE
:100A4000350B64E6629FC001639F900D11242091D5
:100A50008E0230918F02BA01621B730B0E94B1109B
:100A60007093AC026093AB02E090A902C090AA021E
:100A7000F090AB02D090AC0282E70E94980390E025
:100A80006091A9027091AA026D5F7F4F6730710576
:100A900010F4E12CC12CE091AB02F091AC02339642
:100AA000379710F4F12CD12CE982CA82FB82DC82C8
:100AB0001D830E8398878F832E2D3C2D4F2D5D2D0A
:100AC000612F702F988528960FB6F894DEBF0FBE61
:100AD000CDBFDF91CF911F910F91FF90EF90DF90ED
:100AE000CF9008958F929F92AF92BF92CF92DF9254
:100AF000EF92FF92CF93DF93CDB7DEB728970FB673
:100B0000F894DEBF0FBECDBF0E949F0429833A83B5
:100B10004B835C8389809A80AB80BC80B40188273A
:100B200077FD8095982F0E943C0F6B017C01B501E9
:100B3000882777FD8095982F0E943C0FA70196018A
:100B40000E944E0E6B017C01889CB001899C700D47
:100B5000700D1124AA9CC001AB9C900D900D112426
:100B6000680F791F80E090E00E943A0F0E945B10AE
:100B70004B015C0120EE3EE245E652E4C701B601BE
:100B80000E94F40F0E94090F6B01C501B4010E947D
:100B9000090F7B01C701B60128960FB6F894DEBF96
:100BA0000FBECDBFDF91CF91FF90EF90DF90CF9040
:100BB000BF90AF909F908F9008950E9472059B0107
:100BC000813591057CF06838710574F46E327105D9
:100BD0006CF4243D8FEF38075CF42A373F4F54F014
:100BE00083E008958FEF089582E0089581E00895ED
:100BF00080E0089582E00895CF93C82FC49883E0E1
:100C00000E9458068C2F0E94580680E00E945806C9
:100C1000C49ACF910895CF93DF93D82FC62FC4984D
:100C200082E00E9458068D2F0E9458068C2F0E9449
:100C30005806C49ADF91CF910895C498880F991FE0
:100C4000880F991F8068482B592BCB01880F991F5B
:100C5000842B0E945806C49A08951F93CF93DF9364
:100C6000182FD62FC42FC49885E00E945806812FD4
:100C70000E9458068D2F0E9458068C2F0E945806FD
:100C8000C49ADF91CF911F910895C49880EC0E947F
:100C90005806C49A08950E9450060E944506089579
:100CA00087B3806B87BBBE9881E58DB9C49A0895E0
:100CB0008FB9779BFECF8FB108955D9BFECF8CB926
:100CC00008955F9BFECF8CB10895AA2797FDA0954C
:100CD000BA2F880F991FAA1FBB1F880F991FAA1F21
:100CE000BB1F9C01AD01220F331F441F551F220F54
:100CF000331F441F551F60E070E08BE490E00E94BA
:100D0000C5102150310929B930BD88E18AB98EE872
:100D100080BD61E676E08DE596E00E9414130895AB
:100D20008BE4809387001092860083E080938B0091
:100D30008CE180938A0080E180937D000895EF929A
:100D4000FF920F931F93CF93DF93CDB7DEB76397D7
:100D50000FB6F894DEBF0FBECDBF80919602909182
:100D60009702892B41F40E94900681E090E09093D5
:100D70009702809396028091A3029091A40201971A
:100D800091F580919402909195020196909395022D
:100D9000809394029F938F9389EB91E09F938F931D
:100DA0007E018FE0E80EF11CFF92EF920E94731318
:100DB00000E010E028E040E060E0C7010E94240C61
:100DC00028E041E060E08DEB91E00E94240C0E945D
:100DD000290D1092A4021092A3020F900F900F9071
:100DE0000F900F900F900E949F0429833A834B83AA
:100DF0005C836D837E838F8398878AE2482F8987FF
:100E00001A86CE0101969E878D8798E0692F9B8771
:100E10001C8650E070E09E850E94CF031F9288E000
:100E20008F938BEC91E09F938F930E945F1380913F
:100E3000A5029091A6020F900F900F900F90892B12
:100E400059F180919802909199020196909399029C
:100E5000809398029F938F9389EB91E09F938F9358
:100E60007E018FE0E80EF11CFF92EF920E94731357
:100E700000E010E028E045E065E0C7010E94240C96
:100E80000E94290D1092A6021092A5020F900F90B9
:100E90000F900F900F900F9063960FB6F894DEBFEF
:100EA0000FBECDBFDF91CF911F910F91FF90EF90BB
:100EB00008951F920F920FB60F9211248F939F9354
:100EC00081E090E09093A4028093A3029F918F9180
:100ED0000F900FBE0F901F90189581E08093A00295
:100EE000089581E090E090939B0280939A02909302
:100EF0009F0280939E020895DC011296ED91FC9171
:100F00001397EE0FFF1F14968D919C911597E80F84
:100F1000F91F8FE092E0918380830895EF92FF9212
:100F20000F931F93CF93DF937C01DC0116968D9175
:100F30009C91179718161906E4F4C0E0D0E0CE0192
:100F4000880F991FD7011496ED91FC911597E80F22
:100F5000F91F00E010E025E04C2F60E080819181D6
:100F60000E94240C2196F70186819781C817D90722
:100F700034F30E94DD05DF91CF911F910F91FF9017
:100F8000EF9008958F929F92AF92BF92CF92DF928F
:100F9000EF92FF920F931F93CF93DF938C01D62F85
:100FA000C72F5A016A01CC0CDD1CC6010E941A1120
:100FB000D80115969C938E9314971A141B0454F51C
:100FC0008D2E9C2EC0E0D0E0F801E480F580EC0E80
:100FD000FD1ED401ED91FC91DF010D900020E9F799
:100FE000CD0101978E1B9F0B0E941A11F70191836F
:100FF0008083D4018D919D914D01D8011496ED917E
:10100000FC911597EC0FFD1F918380832296CC16DF
:10101000DD06D1F6F801B782A68213821282DF9133
:10102000CF911F910F91FF90EF90DF90CF90BF90E5
:10103000AF909F908F900895EF92FF920F931F9320
:10104000CF93DF93EC018B018E819F8101969F836B
:101050008E83FB01D187C0876E817F81660F771FEA
:101060008A859B850E9441129B878A87EE80FF803C
:10107000F1E0EF1AF0E8FF0AEE0CFF1CE80EF91E93
:1010800080E190E00E941A11F70191838083EE8144
:10109000FF81E150F048EE0FFF1F8A859B85E80F26
:1010A000F91F118300836E817F81660F771F8C810A
:1010B0009D810E9441129D838C83EE80FF80F1E030
:1010C000EF1AF0E8FF0AEE0CFF1CE80EF91EF8011B
:1010D000A081B181FD0101900020E9F73197CF0196
:1010E0008A1B9B0B0E941A11F70191838083F801E0
:1010F00080819181EE81FF81E150F048EE0FFF1F6A
:101100002C813D81E20FF31F91838083DF91CF918A
:101110001F910F91FF90EF900895CF93DF93CDB77C
:10112000DEB76C970FB6F894DEBF0FBECDBF60E19F
:1011300071E080E891E00E941C0886E0EDE9F1E0B2
:10114000DE01119601900D928A95E1F743E050E09F
:10115000BE016F5F7F4F80E491E00E94C20760E4B0
:1011600071E080E691E00E941C0888E0E3EAF1E08B
:10117000DE01179601900D928A95E1F744E050E068
:10118000BE01695F7F4F80E391E00E94C20760E388
:1011900071E080E691E00E941C0860E671E080E862
:1011A00091E00E941C0860E271E080E891E00E94FA
:1011B0001C0886E0EBEAF1E0DE011F9601900D923B
:1011C0008A95E1F743E050E0BE01615F7F4F80E721
:1011D00091E00E94C20760E771E080E891E00E9420
:1011E0001C0888E0E1EBF1E0DE01559601900D92DC
:1011F0008A95E1F744E050E0BE016B5E7F4F80E5E9
:1012000091E00E94C20760E571E080E891E00E94F1
:101210001C086C960FB6F894DEBF0FBECDBFDF91F1
:10122000CF9108950E948C0C80910E0190910F0136
:10123000DC011C96ED91FC911D970995E0910E0142
:10124000F0910F0181818F9380818F930E945F13B2
:101250000E94290D0F900F9008950F931F93CF9325
:10126000DF9340919C0250919D0248305105A9F5B1
:1012700020919201213099F4FC01228133812F3F8A
:10128000FFEF3F0731F424E030E0FC013383228399
:1012900018C021503109FC013383228312C023304E
:1012A00081F4FC012281338146815781241735075F
:1012B00019F41382128205C02F5F3F4FFC01338364
:1012C000228310929D0210929C028FEF80939201D4
:1012D00010929F0210929E026DC020919E0230914A
:1012E0009F022130310509F065C020919201213023
:1012F00071F0233009F05EC033C080919C02909160
:101300009D02019690939D0280939C0253C0FC0124
:1013100002811381000F111F000F111F000F111FF9
:10132000E801C41BD50B085F1F4F041B150B8091F0
:101330009001909191019801281B390BBE01681B07
:10134000790B40E450E080E090E00E948D0D980120
:1013500040E450E0BE0180E090E00E948D0DCDCFD2
:10136000FC0122813381220F331F220F331F220FF2
:10137000331FBA01620F731F285F3F4F420F531F85
:101380002091900130919101EB01C20FD31F8A018E
:10139000020F131F9A0140E450E080E090E00E94A9
:1013A0008D0D980140E450E0BE0180E090E00E9485
:1013B0008D0DA3CFDF91CF911F910F910895CF9203
:1013C000DF92EF92FF920F931F93CF93DF93CDB7EE
:1013D000DEB728970FB6F894DEBF0FBECDBF6C0105
:1013E000DC0116968D919C91179718161906F4F446
:1013F000E12CF12CC701880F991FD6011496ED91AD
:10140000FC911597E80FF91F00E010E025E04E2D44
:1014100060E0808191810E94240CBFEFEB1AFB0AEF
:10142000F60186819781E816F90624F3D601129613
:101430002D913C9113972F5F3F4F220F331F220FA7
:10144000331F220F331FB9016850710940E450E087
:1014500080E090E00E948D0D0E94DD05182F0E9413
:101460009F0429833A834B835C836D837E838F83C0
:10147000988720919E0230919F02232B09F06AC029
:10148000113061F034F41F3F09F44BC0112351F1C6
:1014900075C01230B1F0133051F070C081E090E0AF
:1014A00090939F0280939E028093920167C081E097
:1014B00090E090939F0280939E0283E0809392013C
:1014C0005DC0F60180859185892B09F457C081E0C4
:1014D00090E090939B0280939A0290939F02809356
:1014E0009E024CC0D60112968D919C911397880F45
:1014F000991F1A96ED91FC911B97E80FF91F019027
:10150000F081E02D86819781892BC1F181E090E007
:1015100090939B0280939A0290939F0280939E02E5
:101520002DC08D819E81019749F5F60182819381BD
:10153000880F991F0284F385E02DE80FF91F0190B1
:10154000F081E02D0684F785E02D3097B9F0C601D3
:10155000099514C060919201862F8D7F813021F40E
:10156000C6010E942D090AC01F3F41F410929B0240
:1015700010929A0210929F0210929E0228960FB625
:10158000F894DEBF0FBECDBFDF91CF911F910F91B9
:10159000FF90EF90DF90CF900895CF93DF9300D02E
:1015A00000D000D0CDB7DEB785B7806885BF80B7E3
:1015B000806280BF80E895E20E94650680E090E04E
:1015C0000E94B4030E9496030E949A0C0E949C04FD
:1015D0000E94D70D0E948D0878940F2EFFE7EF2E02
:1015E000F2E0FF2EF02D01E010E080918C0290914E
:1015F0008D02892BF9F00E94210429833A834B83C1
:101600005C836D837E8389819A81039729F410938B
:10161000A6020093A50206C0FF92EF920E945F13FC
:101620000F900F908D819E810E94B21110928D02B9
:1016300010928C028091A002882319F0813071F001
:10164000D4CF8091A1029091A202019771F60E94DD
:1016500012091092A2021092A102C7CF80919301A9
:1016600090919401019709F60E949F06BECF2091A8
:101670009B0130919C01232BD1F02091A702309146
:10168000A802211594E03907BCF4409197015091CC
:101690009801FA01E20FF31F80838091A7029091D5
:1016A000A80201969093A8028093A7020895E09162
:1016B0009501F091960180830895EF92FF920F9328
:1016C0001F93CF93DF93683059F4082F10E0000F79
:1016D000111F000F111F000F111F0B501D4F1AC0BB
:1016E000653071F4082F10E000521109C801880F0D
:1016F000991F880F991F080F191F065E1D4F0AC0FA
:10170000643041F4082F10E0000F111F000F111F6B
:10171000025E1F4F452B31F0E62EF12C1E141F04E4
:101720009CF01FC0E62EF12C1E141F04D4F4C0E060
:10173000D0E0FE01E00FF11F84910E94370B21964B
:10174000CE15DF05B4F30DC0C0E0D0E0FE01E00F20
:10175000F11F849180950E94370B2196CE15DF05ED
:10176000ACF3DF91CF911F910F91FF90EF9008950F
:1017700080919B0190919C01892B89F08091A70217
:101780009091A802811524E092075CF420919701C2
:1017900030919801F901E80FF91F8081089580E0E8
:1017A000089580E0089540919B0150919C01452B44
:1017B000D1F02091A7023091A8022F7730783323FF
:1017C00034F42150310920683F6F2F5F3F4F9695C9
:1017D000982F882797958795280F391F3093A8024F
:1017E0002093A70208958055E0919901F0919A0104
:1017F0008083089520919B0130919C01232BC1F09F
:101800004091A7025091A8029A012F773078332394
:1018100034F42150310920683F6F2F5F3F4F421B46
:10182000530B840F951F9093A8028093A7020895ED
:10183000E0919901F0919A011082E0919901F09163
:101840009A0180E1808308956F927F928F929F9298
:10185000AF92BF92CF92DF92EF92FF920F931F93BE
:10186000CF93DF93EC01962E742E822E862F90E07C
:101870000E94FA0B872D90E00E94D30BFE0101908D
:101880000020E9F731976F01CC1ADD0A1C141D0402
:1018900024F57E01C0E0D0E08FE790E05C01A8185D
:1018A000B108612CA801682DF70181917F010E9488
:1018B0005D0B980C892D90E0A816B90654F473942A
:1018C00080E090E00E94FA0B872D90E00E94D30BFD
:1018D000962C2196CC16DD0629F7DF91CF911F912A
:1018E0000F91FF90EF90DF90CF90BF90AF909F90BF
:1018F0008F907F906F900895CF930E94D30B80E0DC
:1019000090E00E94FA0BC0E080E00E94370BCF5FAE
:10191000C038D1F7CF910895CF93DF93C0E0D0E0E6
:10192000CE010E947C0C2196C830D105C9F7DF9109
:10193000CF910895E0919901F0919A018EEA808308
:10194000E0919901F0919A0181EA8083E0919901F7
:10195000F0919A018AED8083E0919901F0919A01CA
:1019600082E18083E0919901F0919A0188EC808373
:10197000E0919901F0919A0188EA8083E0919901C0
:10198000F0919A018FE38083E0919901F0919A019F
:1019900085ED8083E0919901F0919A0180E8808340
:1019A000E0919901F0919A0181E88083E091990199
:1019B000F0919A0180E58083E0919901F0919A017C
:1019C00089ED8083E0919901F0919A0181E2808311
:1019D000E0919901F0919A0180E28083E091990170
:1019E000F0919A0182E08083E0919901F0919A014F
:1019F0008BED8083E0919901F0919A0180E38083DF
:101A0000E0919901F0919A018DEA8083E09199012A
:101A1000F0919A011082E0919901F0919A0184EA83
:101A20008083E0919901F0919A0186EA8083E091A8
:101A30009901F0919A018FEA80830E948C0C83E0D7
:101A40008FBD8AE18EBD80E489BF88E28BBD1ABC60
:101A50000895CF93E0919901F0919A011082E0915D
:101A60009901F0919A0180E1808380919B0190918E
:101A70009C01892B21F140E050E060EBC0E070E078
:101A8000E0919901F0919A0160838C2F972FE0915A
:101A90009501F09196019C01240F351FA0919701AB
:101AA000B0919801A20FB31F2C912083019680382A
:101AB000910569F76F5F40585F4F683B09F7CF9119
:101AC0000895CF93DF93EB010E94FA0BCE01DD2343
:101AD0000CF4079695958795959587959595879597
:101AE0000E94D30B0E94B80BBE01677070787723F9
:101AF00034F461507109686F7F6F6F5F7F4F21E031
:101B000030E0A90102C0440F551F6A95E2F784270F
:101B10000E94370BDF91CF9108958F929F92AF92E1
:101B2000BF92CF92DF92EF92FF920F931F93CF93CA
:101B3000DF938C016B015A01790184179507B4F486
:101B4000862E9D2C0DC0BE01C8010E94610D2196FC
:101B5000CE15DF05C4F30F5F1F4F0A151B0534F4C4
:101B6000CE14DF04C4F7C82DD92DEDCFDF91CF916E
:101B70001F910F91FF90EF90DF90CF90BF90AF90AB
:101B80009F908F9008951F920F920FB60F9211247D
:101B90008F939F9381E090E09093A2028093A102A3
:101BA0009F918F910F900FBE0F901F901895B8982E
:101BB000B99808955058BB27AA270ED0D4C1C5D1D3
:101BC00030F0CAD120F031F49F3F11F41EF495C1DA
:101BD0000EF4E095E7FB8BC1E92FD6D180F3BA175D
:101BE000620773078407950718F071F49EF5EEC13C
:101BF0000EF4E0950B2EBA2FA02D0B01B901900128
:101C00000C01CA01A0011124FF27591B99F0593F6B
:101C100050F4503E68F11A16F040A22F232F342FB3
:101C20004427585FF3CF469537952795A795F04001
:101C30005395C9F77EF41F16BA0B620B730B840B16
:101C4000BAF09150A1F0FF0FBB1F661F771F881FCE
:101C5000C2F70EC0BA0F621F731F841F48F4879526
:101C600077956795B795F7959E3F08F0B3CF939515
:101C7000880F08F09927EE0F97958795089565D1FD
:101C800058F080E891E009F49EEF66D128F040E832
:101C900051E059F45EEF09C030C198C1E92FE078F6
:101CA00073D168F3092E052AC1F3261737074807B1
:101CB000590738F00E2E07F8E02569F0E025E064BA
:101CC0000AC0EF6307F8009407FADB01B9019D0130
:101CD000DC01CA01AD01EF9343D045D10AD05F9139
:101CE000552331F02BED3FE049E450FD49EC63CF43
:101CF0000895DF93DD27B92FBF7740E85FE316161D
:101D0000170648075B0710F4D92F67D19F938F936D
:101D10007F936F930ED2E0E7F0E0F2D024D12F91C1
:101D20003F914F915F916CD1DD2349F09058A2EA29
:101D30002AED3FE049EC5FE3D0785D274DDFDF918E
:101D400012C10CD010C108D140F0FFD030F021F406
:101D50005F3F19F0CCC051113AC1CFC015D198F3F3
:101D60009923C9F35523B1F3951B550BBB27AA271C
:101D700062177307840738F09F5F5F4F220F331F8E
:101D8000441FAA1FA9F333D00E2E3AF0E0E830D05A
:101D900091505040E695001CCAF729D0FE2F27D05D
:101DA000660F771F881FBB1F261737074807AB072B
:101DB000B0E809F0BB0B802DBF01FF2793585F4FA0
:101DC0002AF09E3F510568F092C001C15F3FECF3DD
:101DD000983EDCF3869577956795B795F7959F5F65
:101DE000C9F7880F911D9695879597F90895E1E0B9
:101DF000660F771F881FBB1F621773078407BA0718
:101E000020F0621B730B840BBA0BEE1F88F7E09572
:101E1000089504D06894B111DAC00895BDD088F057
:101E20009F5790F0B92F9927B751A0F0D1F0660FC6
:101E3000771F881F991F1AF0BA95C9F712C0B130E1
:101E400081F0C4D0B1E00895C1C0672F782F8827F2
:101E5000B85F39F0B93FCCF3869577956795B39520
:101E6000D9F73EF490958095709561957F4F8F4F8F
:101E70009F4F0895E89409C097FB3EF49095809594
:101E8000709561957F4F8F4F9F4F9923A9F0F92F40
:101E900096E9BB279395F695879577956795B795BE
:101EA000F111F8CFFAF4BB0F11F460FF1BC06F5FA4
:101EB0007F4F8F4F9F4F16C0882311F096E911C0B6
:101EC000772321F09EE8872F762F05C0662371F0D7
:101ED00096E8862F70E060E02AF09A95660F771FEB
:101EE000881FDAF7880F9695879597F9089597F9DF
:101EF0009F6780E870E060E008959FEF80EC0895B0
:101F0000DF93CF931F930F93FF92EF92DF927B01AA
:101F10008C01689405C0DA2EEF0172D0FE01E894BE
:101F2000A5912591359145915591AEF3EF0154DE80
:101F3000FE019701A801DA9479F7DF90EF90FF9006
:101F40000F911F91CF91DF91089500240A941616E6
:101F5000170618060906089500240A941216130697
:101F6000140605060895092E0394000C11F4882325
:101F700052F0BB0F40F4BF2B11F460FF04C06F5F41
:101F80007F4F8F4F9F4F089557FD9058440F551F17
:101F900059F05F3F71F04795880F97FB991F61F0EB
:101FA0009F3F79F087950895121613061406551F62
:101FB000F2CF4695F1DF08C0161617061806991FCE
:101FC000F1CF86957105610508940895E894BB27C3
:101FD00066277727CB0197F908959B01AC0160E054
:101FE00070E080E89FE3ADCE0BD0BDCFAEDF28F030
:101FF000B3DF18F0952309F07ACF7FCF1124E7CF14
:10200000C3DFA0F3959FD1F3950F50E0551F629F5A
:10201000F001729FBB27F00DB11D639FAA27F00D41
:10202000B11DAA1F649F6627B00DA11D661F829F68
:102030002227B00DA11D621F739FB00DA11D621F4D
:10204000839FA00D611D221F749F3327A00D611D6A
:10205000231F849F600D211D822F762F6A2F11244C
:102060009F5750408AF0E1F088234AF0EE0FFF1F9F
:10207000BB1F661F771F881F91505040A9F79E3FD6
:10208000510570F034CFA3CF5F3FECF3983EDCF303
:10209000869577956795B795F795E7959F5FC1F713
:1020A000FE2B880F911D9695879597F9089511F449
:1020B0000EF423CF41C070DFD0F39923D9F3CEF3D0
:1020C0009F57550B87FF46D00024A0E640EA9001B9
:1020D00080585695979528F4805C660F771F881F67
:1020E00020F026173707480730F4621B730B840B68
:1020F000202931294A2BA6951794079420253125AC
:102100004A2758F7660F771F881F20F026173707D2
:10211000480730F4620B730B840B200D311D411DF9
:10212000A09581F7B901842F9158880F96958795CE
:1021300008959B01AC0158CF9F3F31F0915020F49E
:10214000879577956795B795880F911D9695879593
:1021500097F9089591505040660F771F881FD2F766
:10216000089597FB072E16F4009407D077FD09D049
:102170000E94E41007FC05D03EF4909581959F4F96
:102180000895709561957F4F0895052E97FB1EF475
:1021900000940E94DC1057FD07D00E94F81007FC45
:1021A00003D04EF40C94DC10509540953095219559
:1021B0003F4F4F4F5F4F0895909580957095619573
:1021C0007F4F8F4F9F4F0895AA1BBB1B51E107C044
:1021D000AA1FBB1FA617B70710F0A61BB70B881FB7
:1021E000991F5A95A9F780959095BC01CD01089546
:1021F000A1E21A2EAA1BBB1BFD010DC0AA1FBB1F0B
:10220000EE1FFF1FA217B307E407F50720F0A21B7C
:10221000B30BE40BF50B661F771F881F991F1A94E9
:1022200069F760957095809590959B01AC01BD0113
:10223000CF010895CF93DF938230910510F482E0AF
:1022400090E0E091AF02F091B00220E030E0A0E039
:10225000B0E0309739F14081518148175907B8F003
:102260004817590771F482819381109729F01396CA
:102270009C938E9312972CC09093B0028093AF02E0
:1022800027C02115310531F04217530718F0A90175
:10229000DB0101C0EF019A01BD01DF010280F38182
:1022A000E02DD7CF21153105F9F0281B390B24304B
:1022B000310580F48A819B816115710521F0FB0154
:1022C0009383828304C09093B0028093AF02FE0197
:1022D000329644C0FE01E20FF31F81939193225086
:1022E0003109398328833AC02091AD023091AE0282
:1022F000232B41F420910201309103013093AE026F
:102300002093AD022091000130910101211531058A
:1023100041F42DB73EB74091040150910501241BB3
:10232000350BE091AD02F091AE02E217F307A0F495
:102330002E1B3F0B2817390778F0AC014E5F5F4F1B
:102340002417350748F04E0F5F1F5093AE0240939D
:10235000AD028193919302C0E0E0F0E0CF01DF9104
:10236000CF910895CF93DF93009709F487C0FC01C4
:10237000329713821282C091AF02D091B00220979F
:1023800081F420813181280F391F8091AD02909115
:10239000AE028217930779F5F093AE02E093AD0297
:1023A0006DC0DE0120E030E0AE17BF0750F412969A
:1023B0004D915C9113979D014115510509F1DA0189
:1023C000F3CFB383A28340815181840F951F8A1775
:1023D0009B0771F48D919C911197840F951F029624
:1023E0009183808312968D919C911397938382831E
:1023F0002115310529F4F093B002E093AF023EC0FD
:10240000D9011396FC93EE9312974D915D91A40F11
:10241000B51FEA17FB0779F480819181840F951F1E
:102420000296D90111969C938E9382819381139683
:102430009C938E931297E0E0F0E08A819B81009755
:1024400019F0FE01EC01F9CFCE0102962881398105
:10245000820F931F2091AD023091AE0228173907E9
:1024600069F4309729F41092B0021092AF0202C0C2
:1024700013821282D093AE02C093AD02DF91CF914E
:102480000895A0E0B0E0E7E4F2E10C943416EC012A
:10249000CB01209719F40E941A11B8C0FE01E60F73
:1024A000F71F9E0122503109E217F30708F4ACC070
:1024B000D9010D911C91119706171707B8F0053037
:1024C000110508F49FC0A801445051094617570749
:1024D00008F498C002501109061B170B01931193C1
:1024E0006D937C93CF010E94B2118CC05B01A01A46
:1024F000B10A4E01800E911EA091AF02B091B002C0
:10250000612C712C60E070E0109709F449C0A815A7
:10251000B905C9F5ED90FC901197670142E0C40E32
:10252000D11CCA14DB0478F147018A189B086401A6
:1025300042E0C40ED11C1296BC9012971396AC9137
:10254000B5E0CB16D10440F0B282A38391828082A1
:10255000D9018D939C9309C00E5F1F4F0E0D1F1D57
:10256000F90111830083EB2DFA2F6115710531F00C
:10257000DB011396FC93EE93129744C0F093B002E4
:10258000E093AF023FC06D917C911197661677067C
:1025900008F43B01BD0112960D90BC91A02DB4CF63
:1025A0006091AD027091AE0268157905E9F4681684
:1025B0007906D0F440910001509101014115510577
:1025C00041F44DB75EB76091040170910501461B5F
:1025D000570BE417F507C0F4F093AE02E093AD0299
:1025E000F901918380830EC00E941A117C0100972B
:1025F00059F0A801BE010E940B13CE010E94B21136
:10260000C70104C0CE0102C080E090E0CDB7DEB7C4
:10261000EEE00C945016FB01DC0102C001900D921B
:1026200041505040D8F708950F931F93CF93DF93F5
:10263000EC018B01009731F46115710519F480E00C
:1026400090E038C06EE070E081E090E00E94671595
:10265000FC010097A1F380E883830115110571F057
:102660001387028781E883838091B1029091B2023F
:10267000892B21F4F093B202E093B1022097C9F0C4
:10268000D187C0878381826083838091B3029091D8
:10269000B402892B71F4F093B402E093B3028091F9
:1026A000B5029091B602892B21F4F093B602E09323
:1026B000B502CF01DF91CF911F910F910895A0E056
:1026C000B0E0E5E6F3E10C944016FE013596619129
:1026D0007191AF018091B3029091B4020E94951361
:1026E000E2E00C945C16AEE0B0E0E9E7F3E10C94B4
:1026F0003E160D891E8986E08C831A8309838FEF2D
:102700009FE79E838D83AE01475E5F4F6F89788D13
:10271000CE0101960E949513EF81F885E00FF11F1D
:1027200010822E96E4E00C945A16ACE0B0E0EBE98F
:10273000F3E10C9430167C016B018A01FC011782D5
:102740001682838181FFBDC1CE0101964C01F70144
:102750009381F60193FD859193FF81916F01882309
:1027600009F4ABC1853239F493FD859193FF8191D2
:102770006F01853229F4B70190E00E94A015E7CFE0
:10278000512C312C20E02032A0F48B3269F030F44F
:10279000803259F0833269F420612CC08D3239F0D7
:1027A000803339F4216026C02260246023C0286071
:1027B00021C027FD27C030ED380F3A3078F426FFCE
:1027C00006C0FAE05F9E300D1124532E13C08AE03C
:1027D000389E300D1124332E20620CC08E3221F42D
:1027E00026FD6BC1206406C08C3611F4206802C03F
:1027F000883641F4F60193FD859193FF81916F0135
:102800008111C1CF982F9F7D9554933028F40C5F90
:102810001F4FFFE3F9830DC0833631F0833771F02A
:10282000833509F05BC022C0F801808189830E5F87
:102830001F4F44244394512C540115C03801F2E039
:102840006F0E711CF801A080B18026FF03C0652DBA
:1028500070E002C06FEF7FEFC5012C870E949515D5
:102860002C0183012C852F77222E17C03801F2E02E
:102870006F0E711CF801A080B18026FF03C0652D8A
:1028800070E002C06FEF7FEFC5012C870E948315B7
:102890002C012C852068222E830123FC1BC0832D54
:1028A00090E048165906B0F4B70180E290E00E942B
:1028B000A0153A94F4CFF50127FC859127FE81916C
:1028C0005F01B70190E00E94A01531103A94F1E049
:1028D0004F1A51084114510471F7E5C0843611F0C4
:1028E000893639F5F80127FF07C06081718182813F
:1028F00093810C5F1F4F08C060817181882777FD2D
:102900008095982F0E5F1F4F2F76B22E97FF09C02C
:1029100090958095709561957F4F8F4F9F4F206860
:10292000B22E2AE030E0A4010E94D215A82EA818E9
:1029300044C0853729F42F7EB22E2AE030E025C02E
:10294000F22FF97FBF2E8F36C1F018F4883579F059
:10295000B4C0803719F0883721F0AFC02F2F206125
:10296000B22EB4FE0DC08B2D8460B82E09C024FF9A
:102970000AC09F2F9660B92E06C028E030E005C03F
:1029800020E130E002C020E132E0F801B7FE07C0EC
:1029900060817181828193810C5F1F4F06C06081CD
:1029A000718180E090E00E5F1F4FA4010E94D2155C
:1029B000A82EA818FB2DFF77BF2EB6FE0BC02B2D1F
:1029C0002E7FA51450F4B4FE0AC0B2FC08C02B2D13
:1029D0002E7E05C07A2C2B2D03C07A2C01C0752CBD
:1029E00024FF0DC0FE01EA0DF11D8081803311F43A
:1029F000297E09C022FF06C07394739404C0822FFD
:102A0000867809F0739423FD13C020FF06C05A2C6A
:102A1000731418F4530C5718732C731468F4B7011B
:102A200080E290E02C870E94A01573942C85F5CF4E
:102A3000731410F4371801C0312C24FF12C0B701F1
:102A400080E390E02C870E94A0152C8522FF17C000
:102A500021FF03C088E590E002C088E790E0B7015D
:102A60000CC0822F867859F021FD02C080E201C09F
:102A70008BE227FD8DE2B70190E00E94A015A5141E
:102A800038F4B70180E390E00E94A0155A94F7CF84
:102A9000AA94F401EA0DF11D8081B70190E00E9433
:102AA000A015A110F5CF332009F451CEB70180E273
:102AB00090E00E94A0153A94F6CFF70186819781A5
:102AC00002C08FEF9FEF2C96E2E10C944C160F930F
:102AD0001F93CF93DF93869F8001879F100D969F52
:102AE000100D1124C8010E941A11EC01009729F061
:102AF000A80160E070E00E948E15CE01DF91CF91B9
:102B00001F910F910895FC010590615070400110D4
:102B1000D8F7809590958E0F9F1F0895DC0101C016
:102B20006D9341505040E0F70895FC0161507040B2
:102B300001900110D8F7809590958E0F9F1F0895F2
:102B40000F931F93CF93DF93182F092FEB018B81E6
:102B500081FD03C08FEF9FEF20C082FF10C04E8128
:102B60005F812C813D81421753077CF4E881F98114
:102B70009F012F5F3F4F39832883108306C0E8856C
:102B8000F985812F0995892B29F72E813F812F5FA8
:102B90003F4F3F832E83812F902FDF91CF911F9145
:102BA0000F910895FA01AA27283051F1203181F1BF
:102BB000E8946F936E7F6E5F7F4F8F4F9F4FAF4F45
:102BC000B1E03ED0B4E03CD0670F781F891F9A1F58
:102BD000A11D680F791F8A1F911DA11D6A0F711D0C
:102BE000811D911DA11D20D009F468943F912AE018
:102BF000269F11243019305D3193DEF6CF01089500
:102C0000462F4770405D4193B3E00FD0C9F7F6CF30
:102C1000462F4F70405D4A3318F0495D31FD4052F8
:102C2000419302D0A9F7EACFB4E0A695979587958E
:102C300077956795BA95C9F700976105710508956D
:102C40009B01AC010A2E0694579547953795279519
:102C5000BA95C9F7620F731F841F951FA01D0895B1
:102C60002F923F924F925F926F927F928F929F929C
:102C7000AF92BF92CF92DF92EF92FF920F931F938A
:102C8000CF93DF93CDB7DEB7CA1BDB0B0FB6F8943B
:102C9000DEBF0FBECDBF09942A88398848885F847B
:102CA0006E847D848C849B84AA84B984C884DF80EC
:102CB000EE80FD800C811B81AA81B981CE0FD11DD0
:102CC0000FB6F894DEBF0FBECDBFED010895F894A6
:022CD000FFCF34
:102CD2000000B7022000FF007F00FF007F0080019C
:102CE2003C0200000000000000000000DF096D0748
:102CF200370200000000000000000000DF097C072E
:102D0200460200000000000000000000DF09710719
:102D12004F0200000000000000000000DF09710700
:102D22005702000000000000000000008E0771073B
:102D3200620200000000000000000000DF097107CD
:102D42006A0200000000000000000000DF097107B5
:102D5200750200000000000000000000DF09000012
:102D62000100FF01000012001800100100D401DC74
:102D720001E401EC01F001F701FC010202F001079C
:102D8200020C0216021F022D0225356400686572CC
:102D92006D732065722062657374006C203D20257E
:102DA200640D0A00506C617965723100506C617972
:102DB20065723200506C6179657233004C6F770036
:102DC2004D656469756D004869676800556C747279
:102DD200610045617379004861726400312E2048B8
:102DE20065726D616E00322E2052616F756C003318
:102DF2002E20416C6C6520616E647265002D696ED7
:102E0200665E696E662E2048616E7300506C617951
:102E12002067616D65004772617068696373004382
:102E22006F6E74726F6C00486967682073636F72AB
:102E320065006F7074696F6E7300446966666963DA
:102E4200756C7479004D61696E206D656E7500490F
:0C2E52004420756E6B6E6F776E0D0000F3
:00000001FF
