S00D00004E6F6465312E7372656360
S11300000C9477030C9494030C9494030C9494032D
S11300100C9494030C9494030C9494030C94940300
S11300200C9494030C9494030C9494030C949403F0
S11300300C9494030C9494030C9494030C949403E0
S11300400C9494030C9494030C9494030C949403D0
S11300500C9494030C9494030C9494030C949403C0
S11300600C9494030C9494030C9494030C949403B0
S1130070084AD73B3BCE016E84BCBFFDC12F3D6C0B
S113008074319ABD56833DDA3D00C77F11BED9E471
S1130090BB4C3E916BAAAABE000000803F0000004A
S11300A00000005C00000C000C007C287C2858DC5C
S11300B068002410480028542840000C00000078F0
S11300C084008478000054385400107C1000804070
S11300D00000101010000040000060100C003854A4
S11300E03800487C40004864580044542C001C10DC
S11300F07C005C5424003854240064140C006854BC
S11301002C004854380000480000804800001028A3
S113011044002828280044281000045408003844C7
S11301205C00781478007C542800384428007C440F
S113013038007C5444007C140400384474007C105F
S11301407C00447C440020403C007C106C007C40DB
S113015040007C187C0078103C00384438007C1443
S113016008003844B8007C14680048542400047C17
S113017004007C407C003C603C007C307C006C10C3
S11301806C000C700C0064544C00007C44000C1097
S11301906000447C000008040800808080000004A3
S11301A00800304878007C48300030484800304827
S11301B07C00306850001078140090A878007C0807
S11301C0700050744000808074007C106800447C8F
S11301D04000781078007808700030483000F82823
S11301E010003048F8007810080050582800083CE7
S11301F0480038407800384038007820780048308B
S1130200480098A078004868580010788400007C62
S113021000008478100008040804000000000000B6
S1130220005F00000007000700147F147F14242AD5
S11302307F2A1223130864623649552250000503AD
S11302400000001C2241000041221C00082A1C2A34
S11302500808083E0808005030000008080808088C
S1130260006060000020100804023E5149453E0031
S1130270427F400042615149462141454B311814A7
S1130280127F1027454545393C4A494930017109D7
S113029005033649494936064949291E00363600C0
S11302A000005636000000081422411414141414DB
S11302B041221408000201510906324979413E7E67
S11302C01111117E7F494949363E414141227F4106
S11302D041221C7F494949417F090901013E4141AD
S11302E051327F0808087F00417F41002040413F90
S11302F0017F081422417F404040407F0204027F76
S11303007F0408107F3E4141413E7F090909063EB2
S11303104151215E7F091929464649494931010164
S11303207F01013F4040403F1F2040201F7F201895
S1130330207F63140814630304780403615149455E
S11303404300007F4141020408102041417F000026
S11303500402010204404040404000010204002025
S1130360545454787F4844443838444444203844EE
S113037044487F3854545418087E09010208145420
S1130380543C7F0804047800447D40002040443DF0
S113039000007F10284400417F40007C041804784A
S11303A07C0804047838444444387C141414080841
S11303B01414187C7C080404084854545420043F42
S11303C04440203C4040207C1C2040201C3C4030C9
S11303D0403C44281028440C5050503C4464544C35
S11303E044000836410000007F0000004136080048
S11303F00201030201000000000000000000065F8B
S11304005F060000000007070007070000147F7F55
S1130410147F7F1400242E6B6B3A12000046663062
S1130420180C666200307A4F5D377A48000407037F
S11304300000000000001C3E634100000000416316
S11304403E1C000000082A3E1C1C3E2A0808083EE8
S11304503E0808000000A0E0600000000008080852
S11304600808080000000060600000000060301808
S11304700C060301003E7F594D7F3E000042427F3F
S11304807F40400000627359496F6600002263494F
S1130490497F360000181C16137F7F10002767451C
S11304A0457D3900003C7E4B49793000000363717F
S11304B0190F070000367F49497F360000064F496F
S11304C0693F1E000000006C6C0000000000A0ECFE
S11304D06C00000000081C36634100000014141472
S11304E01414140000004163361C08000002035178
S11304F0590F0600003E7F415D5D1F1E007C7E1388
S1130500137E7C0000417F7F49497F36001C3E6397
S11305104141632200417F7F41637F1C00417F7F13
S1130520495D416300417F7F491D0103001C3E6317
S113053041517372007F7F08087F7F000000417F74
S11305407F41000000307040417F3F0100417F7FC8
S1130550081C776300417F7F41406070007F7F0605
S11305600C067F7F007F7F060C187F7F001C3E6394
S113057041633E1C00417F7F49090F06001E3F2155
S1130580717F5E0000417F7F19396F460026674DF9
S1130590597B32000003417F7F410300007F7F408D
S11305A0407F7F00001F3F60603F1F00007F7F305F
S11305B018307F7F0063771C081C776300074F782F
S11305C0784F0700006773594D47637100007F7FC0
S11305D041410000000103060C1830600000414155
S11305E07F7F000000080C0603060C080080808052
S11305F08080808080000003070400000020745481
S1130600543C784000413F7F44447C3800387C446B
S1130610446C280000307848493F7F4000387C54BF
S1130620545C180000487E7F490302000098BCA473
S1130630A4F87C0400417F7F08047C780000447D9A
S11306407D4000000040C484FD7D000000417F7FA8
S113065010386C440000417F7F400000007C7C0C1B
S1130660180C7C78007C7C04047C780000387C4482
S1130670447C38000084FCF8A4243C1800183C2472
S1130680A4F8FC8400447C78441C180000485C54A2
S1130690547424000000043E7F442400003C7C4049
S11306A0403C7C40001C3C60603C1C00003C7C6086
S11306B030607C3C00446C3810386C44009CBCA016
S11306C0A0FC7C00004C64745C4C64000008083E90
S11306D07741410000000000777700000041417736
S11306E03E08080000020301030203010000112474
S11306F01FBECFEFD4E0DEBFCDBF12E0A0E0B1E07B
S1130700E6E8F9E202C005900D92AA36B107D9F7DE
S113071022E0AAE6B2E001C01D92A238B207E1F7D6
S11307200E9499050C94C1140C940000309808950B
S1130730883721F484E08093001411C0893721F4B0
S113074085E0809300140BC08C3621F486E08093FE
S1130750001405C0823719F487E0809300142899A7
S1130760FECF809100140895CF93C82F40E06CE130
S11307708BE20E94440640E660E680E60E9444065E
S11307804C2F6FEF8FE00E944406CF910895EF92B3
S1130790FF920F931F93CF93DF9300D000D000D02C
S11307A0CDB7DEB749835A836B837C838D839E8365
S11307B009811A81ED80FE80B8017595679575955C
S11307C067957595679581E40E942206602F62956E
S11307D0660F607E82E40E9422066E2D85E40E94EC
S11307E022061E141F0484F400E010E0EB81FC8157
S11307F0E00FF11F608186E4800F0E9422060F5FE4
S11308001F4F0E151F0591F740E050E061E070E0C6
S113081080E090E00E94340626960FB6F894DEBF7E
S11308200FBECDBFDF91CF911F910F91FF90EF903D
S113083008958F929F92AF92BF92CF92DF92EF92E0
S1130840FF920F931F93CF93DF93CDB7DEB78DB68F
S11308509EB685E60E9413068F70C82ED12C8DB7E4
S11308609EB78C199D090FB6F8949EBF0FBE8DBF1D
S1130870EDB7FEB731965F011C141D047CF47F01B3
S113088000E010E086E6800F0E941306F7018193D2
S11308907F010F5F1F4F0C151D05A4F340E061E0BD
S11308A08CE20E944406C5010FB6F8949EBE0FBEAA
S11308B08DBEDF91CF911F910F91FF90EF90DF904C
S11308C0CF90BF90AF909F908F900895BA98C29A9E
S11308D00895CF93DF9300D000D000D0CDB7DEB71A
S11308E088E70E94980390E09093730280937202C9
S11308F089E70E949803282F30E0309377022093F1
S11309007602E6B3E695E69581E0E827E170F0E04B
S1130910E0937402F09375028091720290917302D5
S113092040910C0150910D0148175907B4F4BC01D2
S1130930641B750BA4E6A69FC001A79F900D11240C
S113094060910A0170910B01641B750B0E94000FEA
S1130950709373026093720217C0BC01641B750B21
S1130960A4E6A69FC001A79F900D112460916C027C
S113097070916D02DA01A61BB70BBD010E94000F36
S113098070937302609372024091080150910901BF
S113099042175307ACF4241B350B64E6629FC00175
S11309A0639F900D11246091060170910701641BEF
S11309B0750B0E94000F709377026093760215C046
S11309C0241B350B64E6629FC001639F900D1124C4
S11309D020916A0230916B02BA01621B730B0E9470
S11309E0000F7093770260937602409176028091B3
S11309F07702209172029091730229839A834B8328
S1130A008C83ED83FE83392F582F6E2F7F2F80E048
S1130A1090E026960FB6F894DEBF0FBECDBFDF91EF
S1130A20CF9108958F929F92AF92BF92CF92DF920F
S1130A30EF92FF92CF93DF9300D000D000D0CDB7D8
S1130A40DEB70E94690429833A834B835C838980DF
S1130A509A80AB80BC80B401882777FD8095982F5D
S1130A600E94240D6B017C01B501882777FD8095D8
S1130A70982F0E94240DA70196010E94380C6B0147
S1130A807C01889CB001899C700D700D1124AA9C76
S1130A90C001AB9C900D900D1124680F791F80E06C
S1130AA090E00E94220D0E94430E4B015C0120EE57
S1130AB03EE245E652E4C701B6010E94DC0D0E9405
S1130AC0F10C6B01C501B4010E94F10C7B01C7015B
S1130AD0B60126960FB6F894DEBF0FBECDBFDF91E8
S1130AE0CF91FF90EF90DF90CF90BF90AF909F9009
S1130AF08F9008950E9412059B01813591057CF029
S1130B006838710574F46E3271056CF4243D8FEF0E
S1130B1038075CF42A373F4F54F083E008958FEF91
S1130B20089582E0089581E0089580E0089582E0C8
S1130B300895CF93DF93CDB7DEB72C970FB6F89413
S1130B40DEBF0FBECDBF85B7806885BF80B780622A
S1130B5080BF61E070E080E895E20E94F50B0E949E
S1130B6096030E94B00A00E010E028E040E060E054
S1130B7088E891E00E943A0A0E94360B0E946604BB
S1130B800E94EA0B0E94B80881E090E00E94D00B1A
S1130B900E94620680E490E00E94B4030F2EFAE201
S1130BA0CF2EF02DA12C0F2EF6E0DF2EF02DB12C40
S1130BB07E0187E0E80EF11C03EA11E00E9469045B
S1130BC02F83388749875A876B877C874C2DC98246
S1130BD0AA82DD82BE826E2DFC82EB825A2D7C813C
S1130BE08D2D9B2D0E94C7030E941904FC01858151
S1130BF08F9384818F9383818F9382818F9381815B
S1130C008F9380818F931F930F930E94AE110E9444
S1130C10310980E090EF0197F1F70FB6F894DEBF49
S1130C200FBECDBFCBCFCF93C82FC49883E00E9413
S1130C30E50B8C2F0E94E50B80E00E94E50BC49A23
S1130C40CF910895CF93DF93D82FC62FC49882E015
S1130C500E94E50B8D2F0E94E50B8C2F0E94E50B63
S1130C60C49ADF91CF910895C498880F991F880F73
S1130C70991F8068482B592BCB01880F991F842B0F
S1130C800E94E50BC49A08951F93CF93DF93182F06
S1130C90D62FC42FC49885E00E94E50B812F0E94B3
S1130CA0E50B8D2F0E94E50B8C2F0E94E50BC49A57
S1130CB0DF91CF911F910895C49880EC0E94E50BB9
S1130CC0C49A08950E945C060895EF92FF920F93D0
S1130CD01F93CF93DF937C01DC0114968D919C913B
S1130CE0159718161906E4F4C0E0D0E0CE01880F79
S1130CF0991FD7011296ED91FC911397E80FF91FF4
S1130D0000E010E025E04C2F60E0808191810E949A
S1130D103A0A2196F70184819581C817D90734F3DB
S1130D200E947A0520916E0230916F02232BD9F430
S1130D30D70118962D913C91199791E0823009F0D2
S1130D4090E0992339F081E02115310509F480E020
S1130D50811101C0970181E090E090936F0280932C
S1130D606E02790106C08F3F21F410926F02109237
S1130D706E02C701DF91CF911F910F91FF90EF9009
S1130D800895EF92FF920F931F93CF93DF937C010B
S1130D90DC0114968D919C91159718161906E4F4AC
S1130DA0C0E0D0E0CE01880F991FD7011296ED91D3
S1130DB0FC911397E80FF91F00E010E025E04C2F99
S1130DC060E0808191810E943A0A2196F701848132
S1130DD09581C817D90734F3D70116962D913C9104
S1130DE017972F5F3F4F220F331F220F331F220FFE
S1130DF0331FB9016850710940E450E080E090E08D
S1130E000E949A0B0E947A05F7012681378191E0AE
S1130E10813009F090E0992309F44FC091E0211545
S1130E20310509F490E0992309F447C0C0E0D0E00B
S1130E30D70116966D917C9117976F5F7F4F660F60
S1130E40771F660F771F660F771F9B012C1B3D0BC7
S1130E50225031096C1B7D0B6A50710940E450E04B
S1130E6080E090E00E949A0BF701668177816F5FC2
S1130E707F4F660F771F660F771F660F771F9B01E3
S1130E802C1B3D0B685071096C1B7D0B40E450E03A
S1130E9080E090E00E949A0B0E94360B2296C830A4
S1130EA0D10531F6D70116968D919C91179701972C
S1130EB017969C938E93169788C091E0833009F01F
S1130EC090E0992309F454C0F701448155814150BD
S1130ED0510991E02417350709F490E0992309F4A6
S1130EE047C0C0E0D0E0D70116966D917C9117976A
S1130EF06F5F7F4F660F771F660F771F660F771F31
S1130F009B012C0F3D1F685071096C0F7D1F40E43D
S1130F1050E080E090E00E949A0BF70166817781AF
S1130F206F5F7F4F660F771F660F771F660F771F00
S1130F309B012C0F3D1F2E5F3F4F6C0F7D1F665092
S1130F40710940E450E080E090E00E949A0B0E9416
S1130F50360B2296C830D10531F6D70116968D91FD
S1130F609C911797019617969C938E9316972DC074
S1130F70220F331FD7011A96ED91FC911B97E20FB4
S1130F80F31F0190F081E02D91E0811190E099230D
S1130F9041F091E024813581232B09F490E09111F3
S1130FA011C0F7012085318591E0823009F090E08D
S1130FB0992359F081E02115310509F480E081116C
S1130FC003C003C07F0101C0790181E090E09093E8
S1130FD06F0280936E02C701DF91CF911F910F9131
S1130FE0FF90EF900895AF92BF92CF92DF92EF926D
S1130FF0FF920F931F93CF93DF938C01E62EF72E6E
S1131000EA016A01CC0CDD1CC6010E94690FD801FB
S113101013969C938E9312971C161D0654F5AE2CB2
S1131020BF2CC0E0D0E0F801E280F380EC0EFD1E9E
S1131030F501A081B181FD0101900020E9F731970C
S1131040CF018A1B9B0B0E94690FD7018D939C9340
S1131050F501819191915F01D8011296ED91FC9176
S11310601397EC0FFD1F918380832296CC16DD0627
S1131070D1F6F80117821682DF91CF911F910F915B
S1131080FF90EF90DF90CF90BF90AF900895EF92D4
S1131090FF920F931F93CF93DF93EC018B018C810D
S11310A09D8101969D838C83FB01D187C0876C81D0
S11310B07D81660F771F8A859B850E9490109B8790
S11310C08A87EC80FD80F1E0EF1AF0E8FF0AEE0C6D
S11310D0FF1CE80EF91E8EE090E00E94690FF701F4
S11310E091838083EC81FD81E150F048EE0FFF1F76
S11310F08A859B85E80FF91F118300836C817D81AC
S1131100660F771F8A819B810E9490109B838A833C
S1131110EC80FD80F1E0EF1AF0E8FF0AEE0CFF1C12
S1131120E80EF91EF801A081B181FD0101900020B3
S1131130E9F73197CF018A1B9B0B0E94690FF701D6
S113114091838083F80180819181EC81FD81E1505C
S1131150F048EE0FFF1F2A813B81E20FF31F9183BA
S11311608083DF91CF911F910F91FF90EF900895AD
S1131170CF93DF93CDB7DEB76C970FB6F894DEBF8D
S11311800FBECDBF86E0ECE6F1E0DE0111960190E2
S11311900D928A95E1F743E050E0BE016F5F7F4F07
S11311A08EE191E00E94F3076EE171E08AE391E041
S11311B00E94470888E0E2E7F1E0DE01179601901B
S11311C00D928A95E1F744E050E0BE01695F7F4FDC
S11311D080E191E00E94F30760E171E08AE391E02D
S11311E00E9447086AE371E086E591E00E9447089F
S11311F086E0EAE7F1E0DE011F9601900D928A9500
S1131200E1F743E050E0BE01615F7F4F88E491E085
S11312100E94F30768E471E086E591E00E944708C4
S113122088E0E0E8F1E0DE01559601900D928A95A0
S1131230E1F744E050E0BE016B5E7F4F8CE291E049
S11312400E94F3076CE271E086E591E00E94470892
S11312506C960FB6F894DEBF0FBECDBFDF91CF9171
S113126008950E94A20A80910E0190910F01DC0161
S11312701C96ED91FC911D97099590930F01809315
S11312800E010E94360B089520916401309165018E
S1131290232BF9F02091700230917102211594E012
S11312A039072CF087E592E00E94C211089540911D
S11312B0680150916901FA01E20FF31F8083809164
S11312C07002909171020196909371028093700262
S11312D00895E0916601F091670180830895EF928B
S11312E0FF920F931F93CF93DF93683059F4082F25
S11312F010E0000F111F000F111F000F111F0B50E2
S11313001D4F1AC0653071F4082F10E00052110906
S1131310C801880F991F880F991F080F191F065EAF
S11313201D4F0AC0643041F4082F10E0000F111F54
S1131330000F111F025E1F4F452B31F0E62EF12CDA
S11313401E141F049CF01FC0E62EF12C1E141F0453
S1131350D4F4C0E0D0E0FE01E00FF11F84910E94BC
S113136044092196CE15DF05B4F30DC0C0E0D0E0EA
S1131370FE01E00FF11F849180950E94440921969B
S1131380CE15DF05ACF3DF91CF911F910F91FF9044
S1131390EF9008958091640190916501892BB9F0D3
S11313A08091700290917102811524E0920734F0CB
S11313B087E592E00E94C2118FEF089520916801A1
S11313C030916901F901E80FF91F8081089580E0E7
S11313D008954091640150916501452BD1F020910D
S11313E07002309171022F773078332334F4215016
S11313F0310920683F6F2F5F3F4F9695982F8827BC
S113140097958795280F391F3093710220937002A6
S113141008958055E0916A01F0916B0180830895ED
S11314202091640130916501232BC1F04091700239
S1131430509171029A012F773078332334F421507C
S1131440310920683F6F2F5F3F4F421B530B840FBE
S1131450951F90937102809370020895E0916A0140
S1131460F0916B011082E0916A01F0916B0180E1CF
S1131470808308956F927F928F929F92AF92BF92D2
S1131480CF92DF92EF92FF920F931F93CF93DF934C
S1131490EC01962E742E822E862F90E00E94100A64
S11314A0872D90E00E94E909FE0101900020E9F7F0
S11314B031976F01CC1ADD0A1C141D0424F57E013A
S11314C0C0E0D0E08FE790E05C01A818B108612C7F
S11314D0A801682DF70181917F010E946F09980C82
S11314E0892D90E0A816B90654F4739480E090E036
S11314F00E94100A872D90E00E94E909962C2196FB
S1131500CC16DD0629F7DF91CF911F910F91FF9043
S1131510EF90DF90CF90BF90AF909F908F907F908F
S11315206F900895CF930E94E90980E090E00E94B3
S1131530100AC0E080E00E944409CF5FC038D1F7B0
S1131540CF910895CF93DF93C0E0D0E0CE010E9405
S1131550920A2196C830D105C9F7DF91CF91089539
S1131560E0916A01F0916B018EEA8083E0916A0157
S1131570F0916B0181EA8083E0916A01F0916B0143
S11315808AED8083E0916A01F0916B0182E18083AE
S1131590E0916A01F0916B0188EC8083E0916A012B
S11315A0F0916B0188EA8083E0916A01F0916B010C
S11315B08FE38083E0916A01F0916B0185ED808374
S11315C0E0916A01F0916B0180E88083E0916A0107
S11315D0F0916B0181E88083E0916A01F0916B01E5
S11315E080E58083E0916A01F0916B0189ED80834D
S11315F0E0916A01F0916B0181E28083E0916A01DC
S1131600F0916B0180E28083E0916A01F0916B01BB
S113161082E08083E0916A01F0916B018BED80831D
S1131620E0916A01F0916B0180E38083E0916A01AB
S1131630F0916B018DEA8083E0916A01F0916B0176
S11316401082E0916A01F0916B0184EA8083E09159
S11316506A01F0916B0186EA8083E0916A01F0915E
S11316606B018FEA80830E94A20A0895CF93E091D0
S11316706A01F0916B011082E0916A01F0916B01B3
S113168080E180838091640190916501892B21F12F
S113169040E050E060EBC0E070E0E0916A01F0915E
S11316A06B0160838C2F972FE0916601F0916701A5
S11316B09C01240F351FA0916801B0916901A20F0C
S11316C0B31F2C91208301968038910569F76F5FD1
S11316D040585F4F683B09F7CF910895CF93DF934C
S11316E0EB010E94100ACE01DD230CF407969595B8
S11316F0879595958795959587950E94E9090E9408
S1131700CA09BE0167707078772334F46150710997
S1131710686F7F6F6F5F7F4F21E030E0A90102C0E7
S1131720440F551F6A95E2F784270E944409DF910C
S1131730CF9108958F929F92AF92BF92CF92DF92F2
S1131740EF92FF920F931F93CF93DF938C016B0162
S11317505A01790184179507B4F4862E9D2C0DC087
S1131760BE01C8010E946E0B2196CE15DF05C4F39D
S11317700F5F1F4F0A151B0534F4CE14DF04C4F7A2
S1131780C82DD92DEDCFDF91CF911F910F91FF90EF
S1131790EF90DF90CF90BF90AF909F908F9008957F
S11317A08130910541F487B3806B87BBBE9881E596
S11317B08DB9C49A0895029739F487B3876887BBB3
S11317C0BB9881E58DB9C79A08958FB9779BFECFF1
S11317D08FB10895B898B99808955D9BFECF8CB9E0
S11317E008955F9BFECF8CB10895CF93DF93EB01F7
S11317F0AA2797FDA095BA2F880F991FAA1FBB1F70
S1131800880F991FAA1FBB1F9C01AD01220F331F14
S1131810441F551F220F331F441F551F60E070E003
S11318208BE490E00E94140F2150310929B930BD96
S113183088E18AB9219711F48EE801C08EE080BD59
S113184061EF7BE08DEE9BE00E946311DF91CF910D
S1131850089563D158F080E891E009F49EEF64D1D3
S113186028F040E851E059F45EEF09C02EC196C15A
S1131870E92FE07871D168F3092E052AC1F3261700
S113188037074807590738F00E2E07F8E02569F0A6
S1131890E025E0640AC0EF6307F8009407FADB016F
S11318A0B9019D01DC01CA01AD01EF9341D043D1DF
S11318B00AD05F91552331F02BED3FE049E450FD10
S11318C049EC23C20895DF93DD27B92FBF7740E8A1
S11318D05FE31616170648075B0710F4D92F65D186
S11318E09F938F937F936F930CD2E0E7F0E0F0D057
S11318F022D12F913F914F915F916AD1DD2349F01D
S11319009058A2EA2AED3FE049EC5FE3D0785D27E6
S11319100DD2DF9110C108D140F0FFD030F021F496
S11319205F3F19F0CCC051113AC1CFC015D198F323
S11319309923C9F35523B1F3951B550BBB27AA274C
S113194062177307840738F09F5F5F4F220F331FBE
S1131950441FAA1FA9F333D00E2E3AF0E0E830D08A
S113196091505040E695001CCAF729D0FE2F27D08D
S1131970660F771F881FBB1F261737074807AB075B
S1131980B0E809F0BB0B802DBF01FF2793585F4FD0
S11319902AF09E3F510568F092C001C15F3FECF30D
S11319A0983EDCF3869577956795B795F7959F5F95
S11319B0C9F7880F911D9695879597F90895E1E0E9
S11319C0660F771F881FBB1F621773078407BA0748
S11319D020F0621B730B840BBA0BEE1F88F7E095A3
S11319E0089504D06894B111DAC00895BDD088F088
S11319F09F5790F0B92F9927B751A0F0D1F0660FF7
S1131A00771F881F991F1AF0BA95C9F712C0B13011
S1131A1081F0C4D0B1E00895C1C0672F782F882722
S1131A20B85F39F0B93FCCF3869577956795B39550
S1131A30D9F73EF490958095709561957F4F8F4FBF
S1131A409F4F0895E89409C097FB3EF490958095C4
S1131A50709561957F4F8F4F9F4F9923A9F0F92F70
S1131A6096E9BB279395F695879577956795B795EE
S1131A70F111F8CFFAF4BB0F11F460FF1BC06F5FD4
S1131A807F4F8F4F9F4F16C0882311F096E911C0E6
S1131A90772321F09EE8872F762F05C0662371F007
S1131AA096E8862F70E060E02AF09A95660F771F1B
S1131AB0881FDAF7880F9695879597F9089597F90F
S1131AC09F6780E870E060E008959FEF80EC0895E0
S1131AD0DF93CF931F930F93FF92EF92DF927B01DB
S1131AE08C01689405C0DA2EEF0172D0FE01E894EF
S1131AF0A5912591359145915591AEF3EF0116D1FC
S1131B00FE019701A801DA9479F7DF90EF90FF9036
S1131B100F911F91CF91DF91089500240A94161616
S1131B20170618060906089500240A9412161306C7
S1131B30140605060895092E0394000C11F4882355
S1131B4052F0BB0F40F4BF2B11F460FF04C06F5F71
S1131B507F4F8F4F9F4F089557FD9058440F551F47
S1131B6059F05F3F71F04795880F97FB991F61F01B
S1131B709F3F79F087950895121613061406551F92
S1131B80F2CF4695F1DF08C0161617061806991FFE
S1131B90F1CF86957105610508940895E894BB27F3
S1131BA066277727CB0197F908959B01AC0160E084
S1131BB070E080E89FE30DC10BD0BDCFAEDF28F00D
S1131BC0B3DF18F0952309F07ACF7FCF1124E7CF44
S1131BD0C3DFA0F3959FD1F3950F50E0551F629F8B
S1131BE0F001729FBB27F00DB11D639FAA27F00D72
S1131BF0B11DAA1F649F6627B00DA11D661F829F99
S1131C002227B00DA11D621F739FB00DA11D621F7D
S1131C10839FA00D611D221F749F3327A00D611D9A
S1131C20231F849F600D211D822F762F6A2F11247C
S1131C309F5750408AF0E1F088234AF0EE0FFF1FCF
S1131C40BB1F661F771F881F91505040A9F79E3F06
S1131C50510570F034CFA3CF5F3FECF3983EDCF333
S1131C60869577956795B795F795E7959F5FC1F743
S1131C70FE2B880F911D9695879597F9089511F479
S1131C800EF423CFA8C070DFD0F39923D9F3CEF399
S1131C909F57550B87FFADD00024A0E640EA900182
S1131CA080585695979528F4805C660F771F881F97
S1131CB020F026173707480730F4621B730B840B98
S1131CC0202931294A2BA6951794079420253125DC
S1131CD04A2758F7660F771F881F20F02617370703
S1131CE0480730F4620B730B840B200D311D411D2A
S1131CF0A09581F7B901842F9158880F96958795FF
S1131D0008959B01AC0158CF5058BB27AA270ED089
S1131D1012CF03DF30F008DF20F031F49F3F11F4DD
S1131D201EF4D3CE0EF4E095E7FBC9CEE92F14DF01
S1131D3080F3BA17620773078407950718F071F4E4
S1131D409EF52CCF0EF4E0950B2EBA2FA02D0B018F
S1131D50B90190010C01CA01A0011124FF27591BEC
S1131D6099F0593F50F4503E68F11A16F040A22FF2
S1131D70232F342F4427585FF3CF46953795279563
S1131D80A795F0405395C9F77EF41F16BA0B620B62
S1131D90730B840BBAF09150A1F0FF0FBB1F661FA9
S1131DA0771F881FC2F70EC0BA0F621F731F841FEC
S1131DB048F4879577956795B795F7959E3F08F012
S1131DC0B3CF9395880F08F09927EE0F97958795D1
S1131DD00895ACDDB0CE9F3F31F0915020F487954B
S1131DE077956795B795880F911D9695879597F97F
S1131DF0089591505040660F771F881FD2F70895B9
S1131E0097FB072E16F4009407D077FD09D00E94A3
S1131E10330F07FC05D03EF4909581959F4F0895AC
S1131E20709561957F4F0895052E97FB1EF40094DD
S1131E300E942B0F57FD07D00E94470F07FC03D0C9
S1131E404EF40C942B0F50954095309521953F4FAF
S1131E504F4F5F4F089590958095709561957F4F92
S1131E608F4F9F4F0895AA1BBB1B51E107C0AA1FA8
S1131E70BB1FA617B70710F0A61BB70B881F991F27
S1131E805A95A9F780959095BC01CD010895A1E2DA
S1131E901A2EAA1BBB1BFD010DC0AA1FBB1FEE1FE0
S1131EA0FF1FA217B307E407F50720F0A21BB30B2B
S1131EB0E40BF50B661F771F881F991F1A9469F7A7
S1131EC060957095809590959B01AC01BD01CF0103
S1131ED00895CF93DF938230910510F482E090E06F
S1131EE0E0917A02F0917B0220E030E0A0E0B0E0E3
S1131EF0309739F14081518148175907B8F0481794
S1131F00590771F482819381109729F013969C9359
S1131F108E9312972CC090937B0280937A0227C0F1
S1131F202115310531F04217530718F0A901DB01DF
S1131F3001C0EF019A01BD01DF010280F381E02DB0
S1131F40D7CF21153105F9F0281B390B2430310581
S1131F5080F48A819B816115710521F0FB019383D3
S1131F60828304C090937B0280937A02FE013296AE
S1131F7044C0FE01E20FF31F819391932250310973
S1131F80398328833AC02091780230917902232B37
S1131F9041F420910201309103013093790220939E
S1131FA0780220910001309101012115310541F49D
S1131FB02DB73EB74091040150910501241B350B08
S1131FC0E0917802F0917902E217F307A0F42E1B56
S1131FD03F0B2817390778F0AC014E5F5F4F241789
S1131FE0350748F04E0F5F1F5093790240937802F3
S1131FF08193919302C0E0E0F0E0CF01DF91CF91B3
S11320000895CF93DF93009709F487C0FC013297BA
S113201013821282C0917A02D0917B02209781F4BC
S113202020813181280F391F8091780290917902A3
S11320308217930779F5F0937902E09378026DC0E3
S1132040DE0120E030E0AE17BF0750F412964D9148
S11320505C9113979D014115510509F1DA01F3CF04
S1132060B383A28340815181840F951F8A179B07F4
S113207071F48D919C911197840F951F0296918311
S1132080808312968D919C9113979383828321155B
S1132090310529F4F0937B02E0937A023EC0D90122
S11320A01396FC93EE9312974D915D91A40FB51F77
S11320B0EA17FB0779F480819181840F951F0296BA
S11320C0D90111969C938E938281938113969C934C
S11320D08E931297E0E0F0E08A819B81009719F0DB
S11320E0FE01EC01F9CFCE01029628813981820FDD
S11320F0931F20917802309179022817390769F4E7
S1132100309729F410927B0210927A0202C0138253
S11321101282D0937902C0937802DF91CF9108950F
S1132120A0E0B0E0E6E9F0E10C948E14EC01CB0100
S1132130209719F40E94690FB8C0FE01E60FF71F3B
S11321409E0122503109E217F30708F4ACC0D9010B
S11321500D911C91119706171707B8F0053011055A
S113216008F49FC0A801445051094617570708F4C2
S113217098C002501109061B170B019311936D931C
S11321807C93CF010E9401108CC05B01A01AB10A9C
S11321904E01800E911EA0917A02B0917B02612CB7
S11321A0712C60E070E0109709F449C0A815B905D6
S11321B0C9F5ED90FC901197670142E0C40ED11C63
S11321C0CA14DB0478F147018A189B08640142E0D1
S11321D0C40ED11C1296BC9012971396AC91B5E024
S11321E0CB16D10440F0B282A38391828082D901BC
S11321F08D939C9309C00E5F1F4F0E0D1F1DF90197
S113220011830083EB2DFA2F6115710531F0DB0189
S11322101396FC93EE93129744C0F0937B02E093E1
S11322207A023FC06D917C9111976616770608F487
S11322303B01BD0112960D90BC91A02DB4CF6091CD
S113224078027091790268157905E9F468167906BF
S1132250D0F440910001509101014115510541F420
S11322604DB75EB76091040170910501461B570B91
S1132270E417F507C0F4F0937902E0937802F901CA
S1132280918380830EC00E94690F7C01009759F0EE
S1132290A801BE010E945A11CE010E940110C7017B
S11322A004C0CE0102C080E090E0CDB7DEB7EEE01E
S11322B00C94AA14FB01DC0102C001900D92415060
S11322C05040D8F708950F931F93CF93DF93EC01F9
S11322D08B01009731F46115710519F480E090E0E9
S11322E038C06EE070E081E090E00E94C113FC0110
S11322F00097A1F380E883830115110571F013871A
S1132300028781E8838380917C0290917D02892BEE
S113231021F4F0937D02E0937C022097C9F0D187E9
S1132320C08783818260838380917E0290917F0243
S1132330892B71F4F0937F02E0937E0280918002F6
S113234090918102892B21F4F0938102E093800221
S1132350CF01DF91CF911F910F910895A0E0B0E0DC
S1132360E4EBF1E10C949A14FE01359661917191BC
S1132370AF0180917E0290917F020E94EF11E2E012
S11323800C94B6140F931F93CF93DF93E0917E02C6
S1132390F0917F02238121FF1BC0EC0100E010E0DB
S11323A0899160917E0270917F02DB011896ED9114
S11323B0FC911997882331F00995892B89F30FEF44
S11323C01FEFEECF8AE00995892B11F4C80102C0F2
S11323D08FEF9FEFDF91CF911F910F910895ACE0A4
S11323E0B0E0E5EFF1E10C948A147C016B018A0101
S11323F0FC0117821682838181FFBDC1CE01019643
S11324004C01F7019381F60193FD859193FF81912E
S11324106F01882309F4ABC1853239F493FD8591AA
S113242093FF81916F01853229F4B70190E00E94F6
S1132430FA13E7CF512C312C20E02032A0F48B3258
S113244069F030F4803259F0833269F420612CC091
S11324508D3239F0803339F4216026C02260246043
S113246023C0286021C027FD27C030ED380F3A3043
S113247078F426FF06C0FAE05F9E300D1124532E37
S113248013C08AE0389E300D1124332E20620CC014
S11324908E3221F426FD6BC1206406C08C3611F403
S11324A0206802C0883641F4F60193FD859193FFBC
S11324B081916F018111C1CF982F9F7D95549330E5
S11324C028F40C5F1F4FFFE3F9830DC0833631F00E
S11324D0833771F0833509F05BC022C0F801808135
S11324E089830E5F1F4F44244394512C540115C01B
S11324F03801F2E06F0E711CF801A080B18026FF54
S113250003C0652D70E002C06FEF7FEFC5012C871B
S11325100E94EF132C0183012C852F77222E17C0E4
S11325203801F2E06F0E711CF801A080B18026FF23
S113253003C0652D70E002C06FEF7FEFC5012C87EB
S11325400E94DD132C012C852068222E830123FC9C
S11325501BC0832D90E048165906B0F4B70180E201
S113256090E00E94FA133A94F4CFF50127FC859188
S113257027FE81915F01B70190E00E94FA133110A8
S11325803A94F1E04F1A51084114510471F7E5C02F
S1132590843611F0893639F5F80127FF07C06081C8
S11325A07181828193810C5F1F4F08C060817181AA
S11325B0882777FD8095982F0E5F1F4F2F76B22EB8
S11325C097FF09C090958095709561957F4F8F4FC7
S11325D09F4F2068B22E2AE030E0A4010E942C1400
S11325E0A82EA81844C0853729F42F7EB22E2AE0DD
S11325F030E025C0F22FF97FBF2E8F36C1F018F4DA
S1132600883579F0B4C0803719F0883721F0AFC02D
S11326102F2F2061B22EB4FE0DC08B2D8460B82EF6
S113262009C024FF0AC09F2F9660B92E06C028E077
S113263030E005C020E130E002C020E132E0F801E2
S1132640B7FE07C060817181828193810C5F1F4F47
S113265006C06081718180E090E00E5F1F4FA4018D
S11326600E942C14A82EA818FB2DFF77BF2EB6FEAF
S11326700BC02B2D2E7FA51450F4B4FE0AC0B2FC5F
S113268008C02B2D2E7E05C07A2C2B2D03C07A2C4E
S113269001C0752C24FF0DC0FE01EA0DF11D8081DF
S11326A0803311F4297E09C022FF06C07394739409
S11326B004C0822F867809F0739423FD13C020FF91
S11326C006C05A2C731418F4530C5718732C731433
S11326D068F4B70180E290E02C870E94FA137394A7
S11326E02C85F5CF731410F4371801C0312C24FF56
S11326F012C0B70180E390E02C870E94FA132C8566
S113270022FF17C021FF03C088E590E002C088E7DC
S113271090E0B7010CC0822F867859F021FD02C0E9
S113272080E201C08BE227FD8DE2B70190E00E94B8
S1132730FA13A51438F4B70180E390E00E94FA1369
S11327405A94F7CFAA94F401EA0DF11D8081B701E0
S113275090E00E94FA13A110F5CF332009F451CE72
S1132760B70180E290E00E94FA133A94F6CFF701A1
S11327708681978102C08FEF9FEF2C96E2E10C9443
S1132780A6140F931F93CF93DF93869F8001879F97
S1132790100D969F100D1124C8010E94690FEC01C1
S11327A0009729F0A80160E070E00E94E813CE01D0
S11327B0DF91CF911F910F910895FC010590615015
S11327C070400110D8F7809590958E0F9F1F089543
S11327D0DC0101C06D9341505040E0F70895FC01C5
S11327E06150704001900110D8F7809590958E0F3C
S11327F09F1F08950F931F93CF93DF93182F092FD3
S1132800EB018B8181FD03C08FEF9FEF20C082FF1E
S113281010C04E815F812C813D81421753077CF4A7
S1132820E881F9819F012F5F3F4F3983288310830B
S113283006C0E885F985812F0995892B29F72E8112
S11328403F812F5F3F4F3F832E83812F902FDF9156
S1132850CF911F910F910895FA01AA27283051F1C1
S1132860203181F1E8946F936E7F6E5F7F4F8F4FBD
S11328709F4FAF4FB1E03ED0B4E03CD0670F781F1C
S1132880891F9A1FA11D680F791F8A1F911DA11D01
S11328906A0F711D811D911DA11D20D009F468943A
S11328A03F912AE0269F11243019305D3193DEF6E2
S11328B0CF010895462F4770405D4193B3E00FD098
S11328C0C9F7F6CF462F4F70405D4A3318F0495D83
S11328D031FD4052419302D0A9F7EACFB4E0A69566
S11328E09795879577956795BA95C9F70097610588
S11328F0710508959B01AC010A2E069457954795DE
S113290037952795BA95C9F7620F731F841F951FD2
S1132910A01D08952F923F924F925F926F927F92E3
S11329208F929F92AF92BF92CF92DF92EF92FF92DB
S11329300F931F93CF93DF93CDB7DEB7CA1BDB0B87
S11329400FB6F894DEBF0FBECDBF09942A8839882C
S113295048885F846E847D848C849B84AA84B98433
S1132960C884DF80EE80FD800C811B81AA81B9813F
S1132970CE0FD11D0FB6F894DEBF0FBECDBFED0153
S10929800895F894FFCF56
S1132986000082022000FF007F00FF007F00560146
S11329961E0200000000000000000000C10627021D
S11329A600000000000000000000C1062F02000025
S11329B6000000000000000065063A020000000066
S11329C6000000000000C1064202000000000000F2
S11329D600000000C1064D020000000000000000D7
S11329E60000C1060100001200180010B601BE0165
S11329F6C601CE01D201D901DE01E401D201E90109
S1132A06EE01F80101020F02506C656173652063E3
S1132A16616C696272617465206A6F797374696343
S1132A266B2100783A25346420793A253464207A77
S1132A363A2534640D00506C617965723100506C2E
S1132A46617965723200506C6179657233004C6F3E
S1132A5677004D656469756D004869676800556C53
S1132A667472610045617379004861726400312EA5
S1132A76204865726D616E00322E2052616F756C4E
S1132A8600332E20416C6C6520616E647265002DE6
S1132A96696E665E696E662E2048616E73004772C3
S1132AA661706869637300436F6E74726F6C00487B
S1132AB66967682073636F7265004F7074696F6E1F
S1132AC67300446966666963756C7479004D61695F
S1132AD66E206D656E75004F757473696465206F3D
S10D2AE6662073637265656E2100BB
S9030000FC
