S00D00004E6F6465312E7372656360
S11300000C9477030C948B040C9494030C94940335
S11300100C9494030C9494030C9494030C94A60AE7
S11300200C9494030C9494030C941E0E0C9494035B
S11300300C9494030C9494030C9494030C949403E0
S11300400C9494030C9494030C9494030C949403D0
S11300500C9494030C9494030C9494030C949403C0
S11300600C9494030C9494030C9494030C949403B0
S1130070084AD73B3BCE016E84BCBFFDC12F3D6C0B
S113008074319ABD56833DDA3D00C77F11BED9E471
S1130090BB4C3E916BAAAABE000000803F0000004A
S11300A00000005C00000C000C007C287C2858DC5C
S11300B068002410480028542840000C00000078F0
S11300C084008478000054385400107C1000804070
S11300D00000101010000040000060100C003854A4
S11300E03800487C40004864580044542C001C10DC
S11300F07C005C5424003854240064140C006854BC
S11301002C004854380000480000804800001028A3
S113011044002828280044281000045408003844C7
S11301205C00781478007C542800384428007C440F
S113013038007C5444007C140400384474007C105F
S11301407C00447C440020403C007C106C007C40DB
S113015040007C187C0078103C00384438007C1443
S113016008003844B8007C14680048542400047C17
S113017004007C407C003C603C007C307C006C10C3
S11301806C000C700C0064544C00007C44000C1097
S11301906000447C000008040800808080000004A3
S11301A00800304878007C48300030484800304827
S11301B07C00306850001078140090A878007C0807
S11301C0700050744000808074007C106800447C8F
S11301D04000781078007808700030483000F82823
S11301E010003048F8007810080050582800083CE7
S11301F0480038407800384038007820780048308B
S1130200480098A078004868580010788400007C62
S113021000008478100008040804000000000000B6
S1130220005F00000007000700147F147F14242AD5
S11302307F2A1223130864623649552250000503AD
S11302400000001C2241000041221C00082A1C2A34
S11302500808083E0808005030000008080808088C
S1130260006060000020100804023E5149453E0031
S1130270427F400042615149462141454B311814A7
S1130280127F1027454545393C4A494930017109D7
S113029005033649494936064949291E00363600C0
S11302A000005636000000081422411414141414DB
S11302B041221408000201510906324979413E7E67
S11302C01111117E7F494949363E414141227F4106
S11302D041221C7F494949417F090901013E4141AD
S11302E051327F0808087F00417F41002040413F90
S11302F0017F081422417F404040407F0204027F76
S11303007F0408107F3E4141413E7F090909063EB2
S11303104151215E7F091929464649494931010164
S11303207F01013F4040403F1F2040201F7F201895
S1130330207F63140814630304780403615149455E
S11303404300007F4141020408102041417F000026
S11303500402010204404040404000010204002025
S1130360545454787F4844443838444444203844EE
S113037044487F3854545418087E09010208145420
S1130380543C7F0804047800447D40002040443DF0
S113039000007F10284400417F40007C041804784A
S11303A07C0804047838444444387C141414080841
S11303B01414187C7C080404084854545420043F42
S11303C04440203C4040207C1C2040201C3C4030C9
S11303D0403C44281028440C5050503C4464544C35
S11303E044000836410000007F0000004136080048
S11303F00201030201000000000000000000065F8B
S11304005F060000000007070007070000147F7F55
S1130410147F7F1400242E6B6B3A12000046663062
S1130420180C666200307A4F5D377A48000407037F
S11304300000000000001C3E634100000000416316
S11304403E1C000000082A3E1C1C3E2A0808083EE8
S11304503E0808000000A0E0600000000008080852
S11304600808080000000060600000000060301808
S11304700C060301003E7F594D7F3E000042427F3F
S11304807F40400000627359496F6600002263494F
S1130490497F360000181C16137F7F10002767451C
S11304A0457D3900003C7E4B49793000000363717F
S11304B0190F070000367F49497F360000064F496F
S11304C0693F1E000000006C6C0000000000A0ECFE
S11304D06C00000000081C36634100000014141472
S11304E01414140000004163361C08000002035178
S11304F0590F0600003E7F415D5D1F1E007C7E1388
S1130500137E7C0000417F7F49497F36001C3E6397
S11305104141632200417F7F41637F1C00417F7F13
S1130520495D416300417F7F491D0103001C3E6317
S113053041517372007F7F08087F7F000000417F74
S11305407F41000000307040417F3F0100417F7FC8
S1130550081C776300417F7F41406070007F7F0605
S11305600C067F7F007F7F060C187F7F001C3E6394
S113057041633E1C00417F7F49090F06001E3F2155
S1130580717F5E0000417F7F19396F460026674DF9
S1130590597B32000003417F7F410300007F7F408D
S11305A0407F7F00001F3F60603F1F00007F7F305F
S11305B018307F7F0063771C081C776300074F782F
S11305C0784F0700006773594D47637100007F7FC0
S11305D041410000000103060C1830600000414155
S11305E07F7F000000080C0603060C080080808052
S11305F08080808080000003070400000020745481
S1130600543C784000413F7F44447C3800387C446B
S1130610446C280000307848493F7F4000387C54BF
S1130620545C180000487E7F490302000098BCA473
S1130630A4F87C0400417F7F08047C780000447D9A
S11306407D4000000040C484FD7D000000417F7FA8
S113065010386C440000417F7F400000007C7C0C1B
S1130660180C7C78007C7C04047C780000387C4482
S1130670447C38000084FCF8A4243C1800183C2472
S1130680A4F8FC8400447C78441C180000485C54A2
S1130690547424000000043E7F442400003C7C4049
S11306A0403C7C40001C3C60603C1C00003C7C6086
S11306B030607C3C00446C3810386C44009CBCA016
S11306C0A0FC7C00004C64745C4C64000008083E90
S11306D07741410000000000777700000041417736
S11306E03E08080000020301030203010000112474
S11306F01FBECFEFD4E0DEBFCDBF12E0A0E0B1E07B
S1130700E2EAFDE202C005900D92A63AB107D9F7DC
S113071022E0A6EAB2E001C01D92A23DB207E1F7D1
S11307200E94BA0A0C94CF160C94000030980895D5
S11307308237A9F018F48C3671F014C0883719F098
S1130740893729F00FC084E0809300140BC085E042
S11307508093001407C086E08093001403C087E0F0
S1130760809300142899FECF809100140895CF93AC
S1130770C82F0E94E90643E063E08BE20E94CB06A7
S113078040E660E680E60E94CB064C2F6FEF8FE0D8
S11307900E94CB0685B7826085BF8BB780648BBF10
S11307A0CF910895EF92FF920F931F93CF93DF930E
S11307B000D000D000D0CDB7DEB749835A836B8315
S11307C07C838D839E8309811A81EB80FC80B80130
S11307D075956795759567957595679581E50E94FB
S11307E0A906602F6295660F607E82E50E94A906C5
S11307F06E2D85E50E94A9061E141F0484F400E0F2
S113080010E0ED81FE81E00FF11F608186E5800F2D
S11308100E94A9060F5F1F4F0E151F0591F740E0B8
S113082050E060E070E081E090E00E94BB06269614
S11308300FB6F894DEBF0FBECDBFDF91CF911F91ED
S11308400F91FF90EF9008958F929F92AF92BF9275
S1130850CF92DF92EF92FF920F931F93CF93DF9388
S113086000D000D000D0CDB7DEB781E60E949A0652
S1130870A82E82E60E949A06829586958770B12CEE
S1130880AA0CBB1CAA0CBB1CAA0CBB1CA82A85E680
S11308900E949A068F70C82ED12CC6010E94821124
S11308A0982E892E1C141D0484F4E82EF92E00E0E1
S11308B010E086E6800F0E949A06F70181937F017B
S11308C00F5F1F4F0C151D05A4F340E061E08CE29F
S11308D00E94CB06BA82A982DC82CB829D828E8260
S11308E02A2D3A814C2D5C81692D782D80E090E091
S11308F026960FB6F894DEBF0FBECDBFDF91CF9121
S11309001F910F91FF90EF90DF90CF90BF90AF9029
S11309109F908F9008951F920F920FB60F921124FB
S11309208F939F9381E090E09093A7028093A60217
S11309309F918F910F900FBE0F901F9018950F935A
S11309401F93CF9388E70E94980390E090930D0142
S113095080930C0189E70E94980390E09093090129
S11309608093080110920B0110920A018FEF90E01E
S11309709093AB028093AA02109207011092060191
S11309809093A9028093A80200E010E028E030E0F0
S113099040E050E060E070E084EB91E00E94110CD4
S11309A00E94140DC1E049C088E70E94980390E0BA
S11309B09093C5028093C40289E70E94980390E053
S11309C09093C7028093C60226B3269526952C27BA
S11309D021702093AC021092AD022091C402309198
S11309E0C50240910A0150910B014217530724F4A8
S11309F030930B0120930A014091060150910701A5
S1130A004817590724F490930701809306014091F5
S1130A10AA025091AB022417350724F43093AB0299
S1130A202093AA022091A8023091A9028217930769
S1130A3024F49093A9028093A8028091AC0290912F
S1130A40AD02892B09F4B0CF0E94790C00E010E0CC
S1130A5028E030E040E050E060E070E08FEC91E0AE
S1130A600E94110C0E94140DCF911F910F910895B3
S1130A70BA98C29A0E949F040895CF92DF92EF928F
S1130A80FF920F931F93CF93DF93CDB7DEB72897D1
S1130A900FB6F894DEBF0FBECDBF88E70E9498035F
S1130AA090E09093C5028093C40289E70E94980362
S1130AB0282F30E03093C7022093C60216B3169550
S1130AC0169581E01827117000E01093AC02009392
S1130AD0AD028091C4029091C50240910C015091E5
S1130AE00D0148175907B4F4BC01641B750BE4E607
S1130AF0E69FC001E79F900D112460910A01709157
S1130B000B01641B750B0E9419117093C50260934D
S1130B10C40217C0BC01641B750BE4E6E69FC00168
S1130B20E79F900D11246091AA027091AB02FA0123
S1130B30E61BF70BBF010E9419117093C502609365
S1130B40C402409108015091090142175307ACF4C3
S1130B50241B350B64E6629FC001639F900D112432
S1130B606091060170910701641B750B0E941911B5
S1130B707093C7026093C60215C0241B350B64E64C
S1130B80629FC001639F900D11242091A8023091AF
S1130B90A902BA01621B730B0E9419117093C70258
S1130BA06093C602E090C402C090C502F090C602F1
S1130BB0D090C70282E70E94980390E06091C4023B
S1130BC07091C5026D5F7F4F6730710510F4E12CA1
S1130BD0C12CE091C602F091C7023396379710F406
S1130BE0F12CD12CE982CA82FB82DC821D830E8324
S1130BF098878F832E2D3C2D4F2D5D2D612F702FC7
S1130C00988528960FB6F894DEBF0FBECDBFDF914E
S1130C10CF911F910F91FF90EF90DF90CF900895A7
S1130C208F929F92AF92BF92CF92DF92EF92FF92F8
S1130C30CF93DF93CDB7DEB728970FB6F894DEBF16
S1130C400FBECDBF0E943D0529833A834B835C834D
S1130C5089809A80AB80BC80B401882777FD809519
S1130C60982F0E94A40F6B017C01B501882777FDA2
S1130C708095982F0E94A40FA70196010E94B60E9A
S1130C806B017C01889CB001899C700D700D11244E
S1130C90AA9CC001AB9C900D900D1124680F791F84
S1130CA080E090E00E94A20F0E94C3104B015C01FF
S1130CB020EE3EE245E652E4C701B6010E945C1014
S1130CC00E94710F6B01C501B4010E94710F7B0179
S1130CD0C701B60128960FB6F894DEBF0FBECDBF8C
S1130CE0DF91CF91FF90EF90DF90CF90BF90AF90C6
S1130CF09F908F9008950E9410069B018135910565
S1130D007CF06838710574F46E3271056CF4243D1E
S1130D108FEF38075CF42A373F4F54F083E008958F
S1130D208FEF089582E0089581E0089580E00895AA
S1130D3082E00895CF93C82FC49883E00E940E07E1
S1130D408C2F0E940E0780E00E940E07C49ACF9158
S1130D500895CF93DF93D82FC62FC49882E00E94C2
S1130D600E078D2F0E940E078C2F0E940E07C49A27
S1130D70DF91CF910895C498880F991F880F991F08
S1130D808068482B592BCB01880F991F842B0E9414
S1130D900E07C49A08951F93CF93DF93182FD62F6D
S1130DA0C42FC49885E00E940E07812F0E940E076D
S1130DB08D2F0E940E078C2F0E940E07C49ADF917C
S1130DC0CF911F910895C49880EC0E940E07C49A95
S1130DD008950E9406070E94E3060895880F991F4C
S1130DE0880F991F880F991F9C0140E050E060E034
S1130DF070E08BE490E00E942D1121503109309372
S1130E00AF022093AE0235BD24BD089587B3806B35
S1130E1087BBBE9881E58DB9C49A08958FB9779B35
S1130E20FECF8FB108955D9BFECF8CB908955F9B73
S1130E30FECF8CB10895AA2797FDA095BA2F880FED
S1130E40991FAA1FBB1F880F991FAA1FBB1F9C01B4
S1130E50AD01220F331F441F551F220F331F441FA0
S1130E60551F60E070E08BE490E00E944F11215028
S1130E70310929B930BD88E18AB98EE880BD67E1BE
S1130E8077E083E197E00E947C130895CF92DF928C
S1130E90EF92FF920F931F93CF93DF93CDB7DEB7FB
S1130EA067970FB6F894DEBF0FBECDBF8091B00236
S1130EB09091B102892B41F40E94790C81E090E079
S1130EC09093B1028093B0028091BC029091BD02D4
S1130ED0019751F46FE070E08EE091E00E947F0A88
S1130EE08091BC029091BD028091AA019091AB01C6
S1130EF0019709F056C08091320190913301019617
S1130F0090933301809332019F938F9386E392E011
S1130F109F938F937E018FE0E80EF11CFF92EF9276
S1130F200E94DB1385E08F9389E38F938AE392E039
S1130F309F938F936E0194E1C90ED11CDF92CF92DF
S1130F400E94DB1380E090E00E94690C00E010E056
S1130F5025E040E060E08EE392E00E94110C25E081
S1130F6040E068E3C6010E94110C81E090E00E9419
S1130F70690C25E041E060E083E492E00E94110CFA
S1130F8025E041E060E2C7010E94110C0E94140DAB
S1130F901092AB011092AA010FB6F894DEBF0FBEF7
S1130FA0CDBF0E943D0529833A834B835C836D83C7
S1130FB07E838F8398878AE2482F89871A8688E000
S1130FC0682F8B871C86CE0101969E878D8750E003
S1130FD070E09E850E94D2038091C0029091C1026C
S1130FE0892B59F18091B2029091B30201969093AA
S1130FF0B3028093B2029F938F9386E392E09F9310
S11310008F937E019FE0E90EF11CFF92EF920E9404
S1131010DB1300E010E028E045E065E0C7010E9432
S1131020110C0E94140D1092C1021092C0020F9074
S11310300F900F900F900F900F9067960FB6F89443
S1131040DEBF0FBECDBFDF91CF911F910F91FF90F7
S1131050EF90DF90CF90089582E08093A7010895E8
S1131060DC011296ED91FC911397EE0FFF1F1A9677
S11310702D913C911B97E20FF31F0190F081E02D1D
S113108026813781232B59F081E090E09093B502BB
S11310908093B4029093B9028093B802CF0108956B
S11310A0DC011296ED91FC911397EE0FFF1F1A9637
S11310B02D913C911B97E20FF31F0190F081E02DDD
S11310C02AE432E0318320830895EF92FF920F9354
S11310D01F93CF93DF937C01DC0116968D919C9135
S11310E0179718161906FCF4C0E0D0E0CE01880F5B
S11310F0991FD7011A96ED91FC911B97E80FF91FE0
S11311000190F081E02D00E010E025E04C2F60E03C
S1131110808191810E94110C2196F701868197812B
S1131120C817D9071CF30E947B06DF91CF911F914A
S11311300F91FF90EF900895EF92FF920F931F93FA
S1131140CF93DF93EC018B018E819F8101969F8366
S11311508E83FB01D187C0876E817F81660F771FE5
S11311608A859B850E94A9129B878A87EE80FF80CF
S1131170F1E0EF1AF0E8FF0AEE0CFF1CE80EF91E8E
S113118080E190E00E948211F70191838083EE81D7
S1131190FF81E150F048EE0FFF1F8A859B85E80F21
S11311A0F91F11830083DF91CF911F910F91FF905D
S11311B0EF90089566E371E086E991E00E949C084F
S11311C066E671E086E891E00E949C0866E571E0BD
S11311D086E891E00E949C0866E871E086E991E067
S11311E00E949C0866E471E086E991E00E949C08F4
S11311F066E771E086E991E00E949C0808950E94E8
S1131200790C8091340190913501DC011C96ED91AB
S1131210FC911D97099590933501809334010E94A8
S1131220140D08952091B6023091B702283031058B
S113123009F04AC02091A601213091F4FC012281D9
S1131240338121503109338322832F3F3F4FE1F40F
S1131250FC0126813781215031093383228314C054
S1131260233091F4FC01228133814681578141501E
S113127051092417350719F41382128205C02F5F10
S11312803F4FFC01338322831092B7021092B602BF
S11312902FEF2093A6011092B9021092B802FC011C
S11312A0228133812F5F3F4F220F331F220F331FC1
S11312B0220F331FB9016850710940E450E080E007
S11312C090E00E944C0D08954091B8025091B902EB
S11312D04130510589F54091A601413029F0433050
S11312E059F541E050E002C04FEF5FEFFC0162812D
S11312F07381660F771F660F771F660F771F429FF4
S1131300C001439F900D529F900D11249B01285FB3
S11313103F4F280F391F680F791F40E450E080E0E9
S113132090E00E944C0D8091B6029091B702019614
S11313309093B7028093B6020895CF92DF92EF9212
S1131340FF920F931F93CF93DF93CDB7DEB7289708
S11313500FB6F894DEBF0FBECDBF6C01DC0116964C
S11313608D919C911797181619060CF5E12CF12C08
S1131370C701880F991FD6011A96ED91FC911B970E
S1131380E80FF91F0190F081E02D00E010E025E066
S11313904E2D60E0808191810E94110CBFEFEB1A09
S11313A0FB0AF60186819781E816F9060CF3809111
S11313B0B8029091B902892BB1F4D60112962D91FD
S11313C03C9113972F5F3F4F220F331F220F331F80
S11313D0220F331FB9016850710940E450E080E0E6
S11313E090E00E944C0D0E947B06182F0E943D0540
S11313F029833A834B835C836D837E838F839887B1
S11314002091B8023091B902232B09F054C0113055
S113141059F02CF41F3F91F1112359F160C012309F
S1131420B1F0133051F05BC081E090E09093B902C9
S11314308093B8028093A60152C081E090E090931B
S1131440B9028093B80283E08093A60148C0F601F4
S113145080859185009709F442C021E030E0309303
S1131460B5022093B4023093B9022093B8026C0100
S113147036C0C6010E9430086C0131C08D819E8146
S1131480019769F5D60112968D919C911397880F57
S1131490991F1A96ED91FC911B97E80FF91F019083
S11314A0F081E02D0684F785E02D3097C1F0C60168
S11314B009956C0114C06091A601862F8D7F81303F
S11314C021F4C6010E9412090AC01F3F41F4109280
S11314D0B5021092B4021092B9021092B802C60179
S11314E028960FB6F894DEBF0FBECDBFDF91CF9123
S11314F01F910F91FF90EF90DF90CF90089520916E
S1131500BA023091BB022617370749F41092BB0286
S11315101092BA02EAE8F0E020812B7F2083209128
S1131520BA023091BB02220F331FFC01E20FF31FFA
S1131530808191810E94EE068091BA029091BB0253
S113154001969093BB028093BA0208951F920F9262
S11315500FB60F9211248F939F9381E090E09093A4
S1131560BD028093BC029F918F910F900FBE0F908C
S11315701F901895CF93DF9300D000D000D0CDB743
S1131580DEB785B7806885BF80B7806280BF80E89A
S113159095E20E941B0780E090E00E94B7030E943E
S11315A096030E94870C0E9438050E943F0E0E94F9
S11315B0DA0878940F2EF9E9EF2EF2E0FF2EF02DE1
S11315C001E010E08091A701813019F0823071F0C0
S11315D015C08091BE029091BF02019779F40E94D8
S11315E0FF081092BF021092BE0208C08091A801A9
S11315F09091A901019711F40E9446078091A602D7
S11316009091A702892BF1F20E94240429833A8342
S11316104B835C836D837E8389819A81039729F44C
S11316201093C1020093C00206C0FF92EF920E9481
S1131630C7130F900F908D819E810E941A121092F1
S1131640A7021092A602BECF2091B2013091B3013D
S1131650232BD1F02091C2023091C302211594E0D2
S11316603907BCF44091AE015091AF01FA01E20F89
S1131670F31F80838091C2029091C30201969093DC
S1131680C3028093C2020895E091AC01F091AD01D0
S113169080830895EF92FF920F931F93CF93DF936C
S11316A0683059F4082F10E0000F111F000F111FAC
S11316B0000F111F0B501D4F1AC0653071F4082F15
S11316C010E000521109C801880F991F880F991F53
S11316D0080F191F065E1D4F0AC0643041F4082F1D
S11316E010E0000F111F000F111F025E1F4F452B4A
S11316F031F0E62EF12C1E141F049CF01FC0E62EC0
S1131700F12C1E141F04D4F4C0E0D0E0FE01E00F5D
S1131710F11F84910E94240B2196CE15DF05B4F3AA
S11317200DC0C0E0D0E0FE01E00FF11F8491809570
S11317300E94240B2196CE15DF05ACF3DF91CF91E7
S11317401F910F91FF90EF9008958091B2019091B5
S1131750B301892B89F08091C2029091C302811553
S113176024E092075CF42091AE013091AF01F901BD
S1131770E80FF91F8081089580E0089580E00895BE
S11317804091B2015091B301452BD1F02091C20296
S11317903091C3022F773078332334F42150310948
S11317A020683F6F2F5F3F4F9695982F8827979516
S11317B08795280F391F3093C3022093C2020895DE
S11317C08055E091B001F091B1018083089520919A
S11317D0B2013091B301232BC1F04091C202509168
S11317E0C3029A012F773078332334F4215031091E
S11317F020683F6F2F5F3F4F421B530B840F951F91
S11318009093C3028093C2020895E091B001F091D5
S1131810B1011082E091B001F091B10180E18083C7
S113182008956F927F928F929F92AF92BF92CF92C0
S1131830DF92EF92FF920F931F93CF93DF93EC010C
S1131840962E742E822E862F90E00E94E70B872D11
S113185090E00E94C00BFE0101900020E9F731974F
S11318606F01CC1ADD0A1C141D0424F57E01C0E0AE
S1131870D0E08FE790E05C01A818B108612CA801C2
S1131880682DF70181917F010E944A0B980C892DE4
S113189090E0A816B90654F4739480E090E00E9496
S11318A0E70B872D90E00E94C00B962C2196CC1656
S11318B0DD0629F7DF91CF911F910F91FF90EF90F3
S11318C0DF90CF90BF90AF909F908F907F906F905C
S11318D00895CF930E94C00B80E090E00E94E70B34
S11318E0C0E080E00E94240BCF5FC038D1F7CF91D5
S11318F00895CF93DF93C0E0D0E0CE010E94690C3D
S11319002196C830D105C9F7DF91CF910895CF93BF
S1131910E091B001F091B1018EEA8083E091B001D1
S1131920F091B10181EA8083E091B001F091B101BD
S11319308AED8083E091B001F091B10182E180836E
S1131940E091B001F091B10188EC8083E091B001A5
S1131950F091B10188EA8083E091B001F091B10186
S11319608FE38083E091B001F091B10185ED808334
S1131970E091B001F091B10180E88083E091B00181
S1131980F091B10181E88083E091B001F091B1015F
S1131990C0E5C083E091B001F091B10189ED80838D
S11319A0E091B001F091B10181E28083E091B00156
S11319B0F091B10180E28083E091B001F091B10136
S11319C082E08083E091B001F091B1018BED8083DE
S11319D0E091B001F091B10180E38083E091B00126
S11319E0F091B1018DEA8083E091B001F091B101F1
S11319F01082E091B001F091B10184EA8083E0911A
S1131A00B001F091B10186EA8083E091B001F091D8
S1131A10B1018FEA80830E94790C8FE087BD80E159
S1131A2089BFC2BDCF910895CF93E091B001F091E9
S1131A30B1011082E091B001F091B10180E18083A5
S1131A408091B2019091B301892B21F140E050E0E3
S1131A5060EBC0E070E0E091B001F091B10160830F
S1131A608C2F972FE091AC01F091AD019C01240FD4
S1131A70351FA091AE01B091AF01A20FB31F2C91FD
S1131A80208301968038910569F76F5F40585F4F56
S1131A90683B09F7CF9108956F927F928F929F923E
S1131AA0AF92BF92CF92DF92EF92FF920F931F9368
S1131AB0CF93DF938C01EA01261737072CF4962F76
S1131AC0872FB901292F382FC017D10714F4E80143
S1131AD08901CB0187709078992324F40197886F4A
S1131AE09F6F01964FEF50E06A0102C0CC0CDD1CE1
S1131AF08A95E2F7C90187709078992324F40197B5
S1131B00886F9F6F019648E050E05A01A81AB90AFD
S1131B108FEF90E0AC0102C055954795AA94E2F787
S1131B205A013B0177231CF457E0650E711C759430
S1131B3067947594679475946794790133231CF4BE
S1131B4087E0E80EF11CF594E794F594E794F59496
S1131B50E7946E147F0409F44DC0C3010E94C00BC6
S1131B600C171D077CF44801C4010E94E70B0E9476
S1131B70A50B8C250E94240B4FEF841A940A8C1613
S1131B809D0694F35FEF651A750A6E147F04F4F4EE
S1131B90802E912EC3010E94C00B0C171D0784F4E4
S1131BA0C82CD92CC6010E94C00B0E94A50B80959D
S1131BB00E94240B8FEFC81AD80ACC16DD0694F3C2
S1131BC04FEF641A740A6E147F0424F3C7010E9451
S1131BD0C00B0C171D071CF5C8010E94E70B0E94DF
S1131BE0A50B8A250E94240B0F5F1F4F0C171D079E
S1131BF09CF315C0CA20DB20C3010E94C00B0C1744
S1131C001D076CF4C8010E94E70B0E94A50B8C25EC
S1131C100E94240B0F5F1F4F0C171D079CF3DF91CD
S1131C20CF911F910F91FF90EF90DF90CF90BF90D5
S1131C30AF909F908F907F906F9008951F920F9216
S1131C400FB60F9211248F939F938091A701813037
S1131C5039F481E090E09093BF028093BE0208C003
S1131C60823031F481E090E09093AB018093AA013B
S1131C709F918F910F900FBE0F901F901895B89859
S1131C80B99808955058BB27AA270ED0D4C1C5D1FE
S1131C9030F0CAD120F031F49F3F11F41EF495C105
S1131CA00EF4E095E7FB8BC1E92FD6D180F3BA1788
S1131CB0620773078407950718F071F49EF5EEC167
S1131CC00EF4E0950B2EBA2FA02D0B01B901900153
S1131CD00C01CA01A0011124FF27591B99F0593F97
S1131CE050F4503E68F11A16F040A22F232F342FDF
S1131CF04427585FF3CF469537952795A795F0402D
S1131D005395C9F77EF41F16BA0B620B730B840B41
S1131D10BAF09150A1F0FF0FBB1F661F771F881FF9
S1131D20C2F70EC0BA0F621F731F841F48F4879551
S1131D3077956795B795F7959E3F08F0B3CF939540
S1131D40880F08F09927EE0F97958795089565D128
S1131D5058F080E891E009F49EEF66D128F040E85D
S1131D6051E059F45EEF09C030C198C1E92FE07821
S1131D7073D168F3092E052AC1F3261737074807DC
S1131D80590738F00E2E07F8E02569F0E025E064E5
S1131D900AC0EF6307F8009407FADB01B9019D015B
S1131DA0DC01CA01AD01EF9343D045D10AD05F9164
S1131DB0552331F02BED3FE049E450FD49EC63CF6E
S1131DC00895DF93DD27B92FBF7740E85FE3161648
S1131DD0170648075B0710F4D92F67D19F938F9399
S1131DE07F936F930ED2E0E7F0E0F2D024D12F91ED
S1131DF03F914F915F916CD1DD2349F09058A2EA55
S1131E002AED3FE049EC5FE3D0785D274DDFDF91B9
S1131E1012C10CD010C108D140F0FFD030F021F431
S1131E205F3F19F0CCC051113AC1CFC015D198F31E
S1131E309923C9F35523B1F3951B550BBB27AA2747
S1131E4062177307840738F09F5F5F4F220F331FB9
S1131E50441FAA1FA9F333D00E2E3AF0E0E830D085
S1131E6091505040E695001CCAF729D0FE2F27D088
S1131E70660F771F881FBB1F261737074807AB0756
S1131E80B0E809F0BB0B802DBF01FF2793585F4FCB
S1131E902AF09E3F510568F092C001C15F3FECF308
S1131EA0983EDCF3869577956795B795F7959F5F90
S1131EB0C9F7880F911D9695879597F90895E1E0E4
S1131EC0660F771F881FBB1F621773078407BA0743
S1131ED020F0621B730B840BBA0BEE1F88F7E0959E
S1131EE0089504D06894B111DAC00895BDD088F083
S1131EF09F5790F0B92F9927B751A0F0D1F0660FF2
S1131F00771F881F991F1AF0BA95C9F712C0B1300C
S1131F1081F0C4D0B1E00895C1C0672F782F88271D
S1131F20B85F39F0B93FCCF3869577956795B3954B
S1131F30D9F73EF490958095709561957F4F8F4FBA
S1131F409F4F0895E89409C097FB3EF490958095BF
S1131F50709561957F4F8F4F9F4F9923A9F0F92F6B
S1131F6096E9BB279395F695879577956795B795E9
S1131F70F111F8CFFAF4BB0F11F460FF1BC06F5FCF
S1131F807F4F8F4F9F4F16C0882311F096E911C0E1
S1131F90772321F09EE8872F762F05C0662371F002
S1131FA096E8862F70E060E02AF09A95660F771F16
S1131FB0881FDAF7880F9695879597F9089597F90A
S1131FC09F6780E870E060E008959FEF80EC0895DB
S1131FD0DF93CF931F930F93FF92EF92DF927B01D6
S1131FE08C01689405C0DA2EEF0172D0FE01E894EA
S1131FF0A5912591359145915591AEF3EF0154DEAC
S1132000FE019701A801DA9479F7DF90EF90FF9031
S11320100F911F91CF91DF91089500240A94161611
S1132020170618060906089500240A9412161306C2
S1132030140605060895092E0394000C11F4882350
S113204052F0BB0F40F4BF2B11F460FF04C06F5F6C
S11320507F4F8F4F9F4F089557FD9058440F551F42
S113206059F05F3F71F04795880F97FB991F61F016
S11320709F3F79F087950895121613061406551F8D
S1132080F2CF4695F1DF08C0161617061806991FF9
S1132090F1CF86957105610508940895E894BB27EE
S11320A066277727CB0197F908959B01AC0160E07F
S11320B070E080E89FE3ADCE0BD0BDCFAEDF28F05B
S11320C0B3DF18F0952309F07ACF7FCF1124E7CF3F
S11320D0C3DFA0F3959FD1F3950F50E0551F629F86
S11320E0F001729FBB27F00DB11D639FAA27F00D6D
S11320F0B11DAA1F649F6627B00DA11D661F829F94
S11321002227B00DA11D621F739FB00DA11D621F78
S1132110839FA00D611D221F749F3327A00D611D95
S1132120231F849F600D211D822F762F6A2F112477
S11321309F5750408AF0E1F088234AF0EE0FFF1FCA
S1132140BB1F661F771F881F91505040A9F79E3F01
S1132150510570F034CFA3CF5F3FECF3983EDCF32E
S1132160869577956795B795F795E7959F5FC1F73E
S1132170FE2B880F911D9695879597F9089511F474
S11321800EF423CF41C070DFD0F39923D9F3CEF3FB
S11321909F57550B87FF46D00024A0E640EA9001E4
S11321A080585695979528F4805C660F771F881F92
S11321B020F026173707480730F4621B730B840B93
S11321C0202931294A2BA6951794079420253125D7
S11321D04A2758F7660F771F881F20F026173707FE
S11321E0480730F4620B730B840B200D311D411D25
S11321F0A09581F7B901842F9158880F96958795FA
S113220008959B01AC0158CF9F3F31F0915020F4C9
S1132210879577956795B795880F911D96958795BE
S113222097F9089591505040660F771F881FD2F791
S1132230089597FB072E16F4009407D077FD09D074
S11322400E946E1107FC05D03EF4909581959F4F36
S11322500895709561957F4F0895A1E21A2EAA1BE7
S1132260BB1BFD010DC0AA1FBB1FEE1FFF1FA21742
S1132270B307E407F50720F0A21BB30BE40BF50B3F
S1132280661F771F881F991F1A9469F760957095C8
S1132290809590959B01AC01BD01CF010895052E59
S11322A097FB1EF400940E94661157FD07D00E940C
S11322B02D1107FC03D04EF40C94661150954095F3
S11322C0309521953F4F4F4F5F4F089590958095DE
S11322D0709561957F4F8F4F9F4F0895AA1BBB1B2D
S11322E051E107C0AA1FBB1FA617B70710F0A61B12
S11322F0B70B881F991F5A95A9F780959095BC0133
S1132300CD010895CF93DF938230910510F482E0DC
S113231090E0E091CA02F091CB0220E030E0A0E02E
S1132320B0E0309739F14081518148175907B8F02E
S11323304817590771F482819381109729F01396F5
S11323409C938E9312972CC09093CB028093CA02D5
S113235027C02115310531F04217530718F0A901A0
S1132360DB0101C0EF019A01BD01DF010280F381AD
S1132370E02DD7CF21153105F9F0281B390B243076
S1132380310580F48A819B816115710521F0FB017F
S11323909383828304C09093CB028093CA02FE018C
S11323A0329644C0FE01E20FF31F819391932250B1
S11323B03109398328833AC02091C8023091C90277
S11323C0232B41F420910201309103013093C9027F
S11323D02093C8022091000130910101211531059B
S11323E041F42DB73EB74091040150910501241BDF
S11323F0350BE091C802F091C902E217F307A0F48B
S11324002E1B3F0B2817390778F0AC014E5F5F4F46
S11324102417350748F04E0F5F1F5093C9024093AD
S1132420C8028193919302C0E0E0F0E0CF01DF9114
S1132430CF910895CF93DF93009709F487C0FC01EF
S1132440329713821282C091CA02D091CB02209794
S113245081F420813181280F391F8091C802909125
S1132460C9028217930779F5F093C902E093C80271
S11324706DC0DE0120E030E0AE17BF0750F41296C5
S11324804D915C9113979D014115510509F1DA01B4
S1132490F3CFB383A28340815181840F951F8A17A0
S11324A09B0771F48D919C911197840F951F02964F
S11324B09183808312968D919C9113979383828349
S11324C02115310529F4F093CB02E093CA023EC0F2
S11324D0D9011396FC93EE9312974D915D91A40F3D
S11324E0B51FEA17FB0779F480819181840F951F4A
S11324F00296D90111969C938E93828193811396AF
S11325009C938E931297E0E0F0E08A819B81009780
S113251019F0FE01EC01F9CFCE0102962881398130
S1132520820F931F2091C8023091C90228173907DE
S113253069F4309729F41092CB021092CA0202C0B7
S113254013821282D093C902C093C802DF91CF9143
S11325500895A0E0B0E0EFEAF2E10C949C16EC01DF
S1132560CB01209719F40E948211B8C0FE01E60F36
S1132570F71F9E0122503109E217F30708F4ACC09B
S1132580D9010D911C91119706171707B8F0053062
S1132590110508F49FC0A801445051094617570774
S11325A008F498C002501109061B170B01931193EC
S11325B06D937C93CF010E941A128CC05B01A01A08
S11325C0B10A4E01800E911EA091CA02B091CB02B5
S11325D0612C712C60E070E0109709F449C0A815D3
S11325E0B905C9F5ED90FC901197670142E0C40E5E
S11325F0D11CCA14DB0478F147018A189B086401D2
S113260042E0C40ED11C1296BC9012971396AC9162
S1132610B5E0CB16D10440F0B282A38391828082CC
S1132620D9018D939C9309C00E5F1F4F0E0D1F1D82
S1132630F90111830083EB2DFA2F6115710531F037
S1132640DB011396FC93EE93129744C0F093CB02F4
S1132650E093CA023FC06D917C911197661677068C
S113266008F43B01BD0112960D90BC91A02DB4CF8E
S11326706091C8027091C90268157905E9F4681679
S11326807906D0F4409100015091010141155105A2
S113269041F44DB75EB76091040170910501461B8A
S11326A0570BE417F507C0F4F093C902E093C8028E
S11326B0F901918380830EC00E9482117C010097EE
S11326C059F0A801BE010E947313CE010E941A1290
S11326D0C70104C0CE0102C080E090E0CDB7DEB7F0
S11326E0EEE00C94B816FB01DC0102C001900D92DF
S11326F041505040D8F708950F931F93CF93DF9321
S1132700EC018B01009731F46115710519F480E037
S113271090E038C06EE070E081E090E00E94CF1558
S1132720FC010097A1F380E883830115110571F082
S11327301387028781E883838091CC029091CD0234
S1132740892B21F4F093CD02E093CC022097C9F0B9
S1132750D187C0878381826083838091CE029091E8
S1132760CF02892B71F4F093CF02E093CE028091D3
S1132770D0029091D102892B21F4F093D102E093FD
S1132780D002CF01DF91CF911F910F910895A0E066
S1132790B0E0EDECF3E10C94A816FE0135966191DE
S11327A07191AF018091CE029091CF020E94FD13EE
S11327B0E2E00C94C416AEE0B0E0E1EEF3E10C9478
S11327C0A6160D891E8986E08C831A8309838FEFF0
S11327D09FE79E838D83AE01475E5F4F6F89788D3F
S11327E0CE0101960E94FD13EF81F885E00FF11FE1
S11327F010822E96E4E00C94C216ACE0B0E0E3E064
S1132800F4E10C9498167C016B018A01FC01178297
S11328101682838181FFBDC1CE0101964C01F7016F
S11328209381F60193FD859193FF81916F01882334
S113283009F4ABC1853239F493FD859193FF8191FD
S11328406F01853229F4B70190E00E940816E7CFA2
S1132850512C312C20E02032A0F48B3269F030F47A
S1132860803259F0833269F420612CC08D3239F002
S1132870803339F4216026C02260246023C028609C
S113288021C027FD27C030ED380F3A3078F426FFF9
S113289006C0FAE05F9E300D1124532E13C08AE067
S11328A0389E300D1124332E20620CC08E3221F458
S11328B026FD6BC1206406C08C3611F4206802C06A
S11328C0883641F4F60193FD859193FF81916F0160
S11328D08111C1CF982F9F7D9554933028F40C5FBC
S11328E01F4FFFE3F9830DC0833631F0833771F056
S11328F0833509F05BC022C0F801808189830E5FB3
S11329001F4F44244394512C540115C03801F2E064
S11329106F0E711CF801A080B18026FF03C0652DE5
S113292070E002C06FEF7FEFC5012C870E94FD1598
S11329302C0183012C852F77222E17C03801F2E059
S11329406F0E711CF801A080B18026FF03C0652DB5
S113295070E002C06FEF7FEFC5012C870E94EB157A
S11329602C012C852068222E830123FC1BC0832D7F
S113297090E048165906B0F4B70180E290E00E9456
S113298008163A94F4CFF50127FC859127FE81912E
S11329905F01B70190E00E94081631103A94F1E00B
S11329A04F1A51084114510471F7E5C0843611F0EF
S11329B0893639F5F80127FF07C06081718182816A
S11329C093810C5F1F4F08C060817181882777FD58
S11329D08095982F0E5F1F4F2F76B22E97FF09C058
S11329E090958095709561957F4F8F4F9F4F20688C
S11329F0B22E2AE030E0A4010E943A16A82EA818AC
S1132A0044C0853729F42F7EB22E2AE030E025C059
S1132A10F22FF97FBF2E8F36C1F018F4883579F084
S1132A20B4C0803719F0883721F0AFC02F2F206150
S1132A30B22EB4FE0DC08B2D8460B82E09C024FFC5
S1132A400AC09F2F9660B92E06C028E030E005C06A
S1132A5020E130E002C020E132E0F801B7FE07C017
S1132A6060817181828193810C5F1F4F06C06081F8
S1132A70718180E090E00E5F1F4FA4010E943A161E
S1132A80A82EA818FB2DFF77BF2EB6FE0BC02B2D4A
S1132A902E7FA51450F4B4FE0AC0B2FC08C02B2D3E
S1132AA02E7E05C07A2C2B2D03C07A2C01C0752CE8
S1132AB024FF0DC0FE01EA0DF11D8081803311F465
S1132AC0297E09C022FF06C07394739404C0822F28
S1132AD0867809F0739423FD13C020FF06C05A2C96
S1132AE0731418F4530C5718732C731468F4B70147
S1132AF080E290E02C870E94081673942C85F5CF11
S1132B00731410F4371801C0312C24FF12C0B7011C
S1132B1080E390E02C870E9408162C8522FF17C0C2
S1132B2021FF03C088E590E002C088E790E0B70188
S1132B300CC0822F867859F021FD02C080E201C0CA
S1132B408BE227FD8DE2B70190E00E940816A514E0
S1132B5038F4B70180E390E00E9408165A94F7CF46
S1132B60AA94F401EA0DF11D8081B70190E00E945E
S1132B700816A110F5CF332009F451CEB70180E235
S1132B8090E00E9408163A94F6CFF7018681978167
S1132B9002C08FEF9FEF2C96E2E10C94B4160F93D2
S1132BA01F93CF93DF93869F8001879F100D969F7D
S1132BB0100D1124C8010E948211EC01009729F024
S1132BC0A80160E070E00E94F615CE01DF91CF917C
S1132BD01F910F910895FC01059061507040011000
S1132BE0D8F7809590958E0F9F1F0895DC0101C042
S1132BF06D9341505040E0F70895FC0161507040DE
S1132C0001900110D8F7809590958E0F9F1F08951D
S1132C100F931F93CF93DF93182F092FEB018B8111
S1132C2081FD03C08FEF9FEF20C082FF10C04E8153
S1132C305F812C813D81421753077CF4E881F9813F
S1132C409F012F5F3F4F39832883108306C0E88597
S1132C50F985812F0995892B29F72E813F812F5FD3
S1132C603F4F3F832E83812F902FDF91CF911F9170
S1132C700F910895FA01AA27283051F1203181F1EA
S1132C80E8946F936E7F6E5F7F4F8F4F9F4FAF4F70
S1132C90B1E03ED0B4E03CD0670F781F891F9A1F83
S1132CA0A11D680F791F8A1F911DA11D6A0F711D37
S1132CB0811D911DA11D20D009F468943F912AE043
S1132CC0269F11243019305D3193DEF6CF0108952B
S1132CD0462F4770405D4193B3E00FD0C9F7F6CF5C
S1132CE0462F4F70405D4A3318F0495D31FD405224
S1132CF0419302D0A9F7EACFB4E0A69597958795BA
S1132D0077956795BA95C9F7009761057105089598
S1132D109B01AC010A2E0694579547953795279544
S1132D20BA95C9F7620F731F841F951FA01D0895DC
S1132D302F923F924F925F926F927F928F929F92C7
S1132D40AF92BF92CF92DF92EF92FF920F931F93B5
S1132D50CF93DF93CDB7DEB7CA1BDB0B0FB6F89466
S1132D60DEBF0FBECDBF09942A88398848885F84A6
S1132D706E847D848C849B84AA84B984C884DF8017
S1132D80EE80FD800C811B81AA81B981CE0FD11DFB
S1132D900FB6F894DEBF0FBECDBFED010895F894D1
S1052DA0FFCF5F
S1132DA20000D2022000FF007F00FF007F006A07BC
S1132DB29A06DC058C05F104AA0466042704E903D7
S1132DC2B3037D034B031B03ED02C6029C0276028E
S1132DD25202FFFF960151020000000000000000B1
S1132DE200009D092C085B020000000000000000A6
S1132DF200009D095008600200000000000000006D
S1132E0200009D0930086902000000000000000073
S1132E1200009D093008710200000000000000005B
S1132E220000650830087C02000000000000000079
S1132E3200009D0930088F0200000000000000001D
S1132E4200009D090000FF010100010000120018AA
S1132E5200100100506C656173652063616C6962E6
S1132E6272617465206A6F79737469636B210043BC
S1132E72616C69627261746564210078203D202569
S1132E8234642C2079203D202534642C20583D20A4
S1132E922534642C2059203D202534642C205A20CA
S1132EA23D202531642C20616D706C6974756465F4
S1132EB2203D202534642C20616E676C65203D2002
S1132EC22534642C20646972656374696F6E203DD5
S1132ED2202532640D0025356400253464004849F8
S1132EE247482053434F52453A004865726D616E1C
S1132EF200506C61792067616D650048616E7300F2
S1132F02477261706869637300436F6E74726F6CA9
S1132F1200486967682073636F7265006F70746933
S1132F226F6E7300446966666963756C7479004DEB
S1132F3261696E206D656E7500494420756E6B6E15
S1092F426F776E0D000024
S9030000FC
