S019000054544B34313535204772757070652034342E737265632E
S11300000C9438000C9455000C9455000C94550035
S11300100C9455000C9455000C9455000C94550008
S11300200C9455000C9455000C9455000C945500F8
S11300300C9455000C9455000C9455000C945500E8
S11300400C9455000C9455000C9455000C945500D8
S11300500C9455000C9455000C9455000C945500C8
S11300600C9455000C9455000C9455000C945500B8
S113007011241FBECFEFD4E0DEBFCDBF11E0A0E05E
S1130080B1E0EEE2FFE002C005900D92A23BB107A1
S1130090D9F721E0A2EBB1E001C01D92A83CB20760
S11300A0E1F70E949D010C9495070C940000309890
S11300B00895883721F484E08093001211C08937B1
S11300C021F485E0809300120BC08C3621F486E085
S11300D08093001205C0823719F487E080930012E0
S11300E02899FECF809100120895CF92DF92EF926B
S11300F0FF920F931F93CF93DF9388E70E945900D9
S113010090E09093B9018093B80189E70E94590067
S113011090E09093BD018093BC0186B384701F92DC
S11301208F938AE091E09F938F930E9454030F90E2
S11301300F900F900F900F2EFDE0EF2EF1E0FF2EA9
S1130140F02D60C088E70E945900D82EC82FD0E057
S113015089E70E945900C82E082F10E02091B401AD
S11301603091B5012C173D0774F4D093B501C093B9
S1130170B4011F92DF92FF92EF920E9454030F90FA
S11301800F900F900F902091B2013091B30120177E
S1130190310774F41093B3010093B2011F92CF920C
S11301A0FF92EF920E9454030F900F900F900F90C4
S11301B02091080130910901C217D30774F4D09338
S11301C00901C09308011F92DF92FF92EF920E94EF
S11301D054030F900F900F900F908091060190910F
S11301E007010817190774F4109307010093060117
S11301F01F930F93FF92EF920E9454030F900F905E
S11302000F900F90B2999ECFDF91CF911F910F91D4
S1130210FF90EF90DF90CF900895BA98C29A82E150
S113022091E00E946F030E94750081E291E09F9328
S11302308F930E9454030F900F90089588E70E94B3
S1130240590090E09093B7018093B60189E70E942A
S11302505900E82FF0E08091B6019091B701209108
S1130260B8013091B90128173907B4F4AC01421B25
S1130270530B64E6649FC001659F900D1124609147
S1130280B4017091B501621B730B0E94A0027093BC
S1130290B7016093B60116C0AC01421B530B64E670
S11302A0649FC001659F900D1124409108015091F5
S11302B00901B901641B750B0E94A0027093B70178
S11302C06093B6016091BC017091BD016E177F0708
S11302D0BCF4E61BF70B24E62E9FC0012F9F900D64
S11302E011242091B2013091B301A901461B570B8F
S11302F0BA010E94A0027093BB016093BA0114C0BA
S1130300E61BF70B24E62E9FC0012F9F900D1124AE
S11303102091060130910701621B730B0E94A00219
S11303207093BB016093BA016091B6017091B701FB
S11303308091BA019091BB01089585B7806885BF0B
S113034080B7806280BF80E895E20E946F020E94BD
S113035057000E9462020E940D010F2EFDE2AF2E93
S1130360F1E0BF2EF02DCAE0D1E00F2EF2E3CF2E44
S1130370F1E0DF2EF02D0F2EFAE3EF2EF1E0FF2E49
S1130380F02D0CE411E00F2EFFE58F2EF1E09F2EEF
S1130390F02D0F2EF0E76F2EF1E07F2EF02D0F2EB3
S11303A0F2E84F2EF1E05F2EF02D0F2EF5E92F2EFF
S11303B0F1E03F2EF02DBF92AF920E94540388E7E4
S11303C00E9459001F928F93DF93CF930E9454038E
S11303D0DF92CF920E94540389E70E9459001F9232
S11303E08F93DF93CF930E945403FF92EF920E9466
S11303F054038CE60E9459001F928F93DF93CF938E
S11304000E9454031F930F930E94540382E70E9497
S113041059001F928F93DF93CF930E9454039F92AE
S11304208F920E94540386B382701F928F93DF933E
S1130430CF930E9454037F926F920E94540386B319
S1130440ADB7BEB790960FB6F894BEBF0FBEADBFA2
S113045081701F928F93DF93CF930E9454035F9216
S11304604F920E94540386B384701F928F93DF933C
S1130470CF930E9454033F922F920E9454030E94F0
S11304801E017F936F93DF93CF930E945403A3EADB
S1130490B1E0BF93AF930E9454030E941E019F9347
S11304A08F93DF93CF930E9454038AE090E00E94DD
S11304B06803ADB7BEB756960FB6F894BEBF0FBE6D
S11304C0ADBF79CFB898B99808955D9BFECF8CB92C
S11304D081E090E008955F9BFECF8CB10895CF93A7
S11304E0DF93AA2797FDA095BA2F880F991FAA1FFB
S11304F0BB1F880F991FAA1FBB1F9C01AD01220FB0
S1130500331F441F551F220F331F441F551F60E024
S113051070E08BE490E00E94B402E90121976BE65D
S113052072E085E692E00E940903C9B9D0BD88E172
S11305308AB98EE880BD81E090E0DF91CF91089583
S113054097FB072E16F4009407D077FD09D00E947C
S1130550D30207FC05D03EF4909581959F4F0895F2
S1130560709561957F4F0895052E97FB1EF40094B6
S11305700E94CB0257FD07D00E94E70207FC03D07C
S11305804EF40C94CB0250954095309521953F4FF5
S11305904F4F5F4F089590958095709561957F4F6B
S11305A08F4F9F4F0895AA1BBB1B51E107C0AA1F81
S11305B0BB1FA617B70710F0A61BB70B881F991F00
S11305C05A95A9F780959095BC01CD010895A1E2B3
S11305D01A2EAA1BBB1BFD010DC0AA1FBB1FEE1FB9
S11305E0FF1FA217B307E407F50720F0A21BB30B04
S11305F0E40BF50B661F771F881F991F1A9469F780
S113060060957095809590959B01AC01BD01CF01DB
S113061008950F931F93CF93DF93EC018B01009701
S113062031F46115710519F480E090E038C06EE092
S113063070E081E090E00E946E05FC010097A1F358
S113064080E883830115110571F01387028781E81F
S113065083838091BE019091BF01892B21F4F09393
S1130660BF01E093BE012097C9F0D187C087838181
S1130670826083838091C0019091C101892B71F4C0
S1130680F093C101E093C0018091C2019091C30134
S1130690892B21F4F093C301E093C201CF01DF91D0
S11306A0CF911F910F910895A0E0B0E0EAE5F3E047
S11306B00C946E07FE01359661917191AF018091A2
S11306C0C0019091C1010E949C03E2E00C948A074E
S11306D06091C0017091C1010E94CE0608950F93EC
S11306E01F93CF93DF93E091C001F091C101238167
S11306F021FF1BC0EC0100E010E089916091C00172
S11307007091C101DB011896ED91FC911997882332
S113071031F00995892B89F30FEF1FEFEECF8AE0B3
S11307200995892B11F4C80102C08FEF9FEFDF9167
S1130730CF911F910F910895ACE0B0E0E2EAF3E0AD
S11307400C945E077C016B018A01FC0117821682FE
S1130750838181FFBDC1CE0101964C01F7019381D4
S1130760F60193FD859193FF81916F01882309F42C
S1130770ABC1853239F493FD859193FF81916F016B
S1130780853229F4B70190E00E94CE06E7CF512CC0
S1130790312C20E02032A0F48B3269F030F4803226
S11307A059F0833269F420612CC08D3239F08033E2
S11307B039F4216026C02260246023C0286021C04F
S11307C027FD27C030ED380F3A3078F426FF06C0F5
S11307D0FAE05F9E300D1124532E13C08AE0389E38
S11307E0300D1124332E20620CC08E3221F426FDEC
S11307F06BC1206406C08C3611F4206802C08836B0
S113080041F4F60193FD859193FF81916F0181116C
S1130810C1CF982F9F7D9554933028F40C5F1F4FC0
S1130820FFE3F9830DC0833631F0833771F08335EC
S113083009F05BC022C0F801808189830E5F1F4FDD
S113084044244394512C540115C03801F2E06F0E36
S1130850711CF801A080B18026FF03C0652D70E0F3
S113086002C06FEF7FEFC5012C870E94C3062C01E5
S113087083012C852F77222E17C03801F2E06F0EEA
S1130880711CF801A080B18026FF03C0652D70E0C3
S113089002C06FEF7FEFC5012C870E94B1062C01C7
S11308A02C852068222E830123FC1BC0832D90E01D
S11308B048165906B0F4B70180E290E00E94CE06D3
S11308C03A94F4CFF50127FC859127FE81915F01CD
S11308D0B70190E00E94CE0631103A94F1E04F1A2D
S11308E051084114510471F7E5C0843611F089367A
S11308F039F5F80127FF07C06081718182819381F6
S11309000C5F1F4F08C060817181882777FD809537
S1130910982F0E5F1F4F2F76B22E97FF09C0909528
S11309208095709561957F4F8F4F9F4F2068B22EB1
S11309302AE030E0A4010E940007A82EA81844C0B1
S1130940853729F42F7EB22E2AE030E025C0F22F1D
S1130950F97FBF2E8F36C1F018F4883579F0B4C012
S1130960803719F0883721F0AFC02F2F2061B22EC5
S1130970B4FE0DC08B2D8460B82E09C024FF0AC0BC
S11309809F2F9660B92E06C028E030E005C020E114
S113099030E002C020E132E0F801B7FE07C0608118
S11309A07181828193810C5F1F4F06C060817181C8
S11309B080E090E00E5F1F4FA4010E940007A82E64
S11309C0A818FB2DFF77BF2EB6FE0BC02B2D2E7F54
S11309D0A51450F4B4FE0AC0B2FC08C02B2D2E7E20
S11309E005C07A2C2B2D03C07A2C01C0752C24FF52
S11309F00DC0FE01EA0DF11D8081803311F4297EC2
S1130A0009C022FF06C07394739404C0822F8678B1
S1130A1009F0739423FD13C020FF06C05A2C7314ED
S1130A2018F4530C5718732C731468F4B70180E24C
S1130A3090E02C870E94CE0673942C85F5CF731416
S1130A4010F4371801C0312C24FF12C0B70180E321
S1130A5090E02C870E94CE062C8522FF17C021FF30
S1130A6003C088E590E002C088E790E0B7010CC0BD
S1130A70822F867859F021FD02C080E201C08BE20A
S1130A8027FD8DE2B70190E00E94CE06A51438F44C
S1130A90B70180E390E00E94CE065A94F7CFAA945F
S1130AA0F401EA0DF11D8081B70190E00E94CE06A9
S1130AB0A110F5CF332009F451CEB70180E290E0C4
S1130AC00E94CE063A94F6CFF7018681978102C040
S1130AD08FEF9FEF2C96E2E10C947A070F931F930C
S1130AE0CF93DF93869F8001879F100D969F100DF3
S1130AF01124C8010E948A05EC01009729F0A8017D
S1130B0060E070E00E94BC06CE01DF91CF911F919E
S1130B100F910895CF93DF938230910510F482E012
S1130B2090E0E091C601F091C70120E030E0A0E040
S1130B30B0E0309739F14081518148175907B8F036
S1130B404817590771F482819381109729F01396FD
S1130B509C938E9312972CC09093C7018093C601E7
S1130B6027C02115310531F04217530718F0A901A8
S1130B70DB0101C0EF019A01BD01DF010280F381B5
S1130B80E02DD7CF21153105F9F0281B390B24307E
S1130B90310580F48A819B816115710521F0FB0187
S1130BA09383828304C09093C7018093C601FE019E
S1130BB0329644C0FE01E20FF31F819391932250B9
S1130BC03109398328833AC02091C4013091C50189
S1130BD0232B41F420910201309103013093C5018C
S1130BE02093C401209100013091010121153105A8
S1130BF041F42DB73EB74091040150910501241BE7
S1130C00350BE091C401F091C501E217F307A0F49C
S1130C102E1B3F0B2817390778F0AC014E5F5F4F4E
S1130C202417350748F04E0F5F1F5093C5014093BA
S1130C30C4018193919302C0E0E0F0E0CF01DF9121
S1130C40CF910895CF93DF93009709F487C0FC01F7
S1130C50329713821282C091C601D091C7012097A6
S1130C6081F420813181280F391F8091C401909132
S1130C70C5018217930779F5F093C501E093C40188
S1130C806DC0DE0120E030E0AE17BF0750F41296CD
S1130C904D915C9113979D014115510509F1DA01BC
S1130CA0F3CFB383A28340815181840F951F8A17A8
S1130CB09B0771F48D919C911197840F951F029657
S1130CC09183808312968D919C9113979383828351
S1130CD02115310529F4F093C701E093C6013EC004
S1130CE0D9011396FC93EE9312974D915D91A40F45
S1130CF0B51FEA17FB0779F480819181840F951F52
S1130D000296D90111969C938E93828193811396B6
S1130D109C938E931297E0E0F0E08A819B81009788
S1130D2019F0FE01EC01F9CFCE0102962881398138
S1130D30820F931F2091C4013091C50128173907F0
S1130D4069F4309729F41092C7011092C60102C0C9
S1130D5013821282D093C501C093C401DF91CF9155
S1130D600895FC010590615070400110D8F78095FA
S1130D7090958E0F9F1F0895DC0101C06D93415023
S1130D805040E0F70895FC0161507040019001105B
S1130D90D8F7809590958E0F9F1F08950F931F93FA
S1130DA0CF93DF93182F092FEB018B8181FD03C0B3
S1130DB08FEF9FEF20C082FF10C04E815F812C8196
S1130DC03D81421753077CF4E881F9819F012F5F2D
S1130DD03F4F39832883108306C0E885F985812F26
S1130DE00995892B29F72E813F812F5F3F4F3F8340
S1130DF02E83812F902FDF91CF911F910F91089512
S1130E00FA01AA27283051F1203181F1E8946F9337
S1130E106E7F6E5F7F4F8F4F9F4FAF4FB1E03ED0DD
S1130E20B4E03CD0670F781F891F9A1FA11D680F7B
S1130E30791F8A1F911DA11D6A0F711D811D911DAE
S1130E40A11D20D009F468943F912AE0269F112423
S1130E503019305D3193DEF6CF010895462F477087
S1130E60405D4193B3E00FD0C9F7F6CF462F4F70E2
S1130E70405D4A3318F0495D31FD4052419302D040
S1130E80A9F7EACFB4E0A6959795879577956795E6
S1130E90BA95C9F700976105710508959B01AC01E6
S1130EA00A2E06945795479537952795BA95C9F70D
S1130EB0620F731F841F951FA01D08952F923F92E8
S1130EC04F925F926F927F928F929F92AF92BF9256
S1130ED0CF92DF92EF92FF920F931F93CF93DF9302
S1130EE0CDB7DEB7CA1BDB0B0FB6F894DEBF0FBE5F
S1130EF0CDBF09942A88398848885F846E847D84AC
S1130F008C849B84AA84B984C884DF80EE80FD80AD
S1130F100C811B81AA81B981CE0FD11D0FB6F89423
S1110F20DEBF0FBECDBFED010895F894FFCFE4
S1130F2E0000C8012000FF00FF0025640025642096
S1130F3E0A0043616C6962726174696E672E2E2EAB
S1130F4E0043616C696272617465642E0078203DA1
S1130F5E20002C202079203D20002C20204C65667A
S1130F6E7420736C69646572203D20002C2020521D
S1130F7E6967687420736C69646572203D20002C67
S1130F8E20204C65667420627574746F6E3D20006B
S1130F9E2C2020526967687420627574746F6E3DDC
S1130FAE20002C20204D6964646C65206275747475
S1130FBE6F6E3D20002C202058207374727563745C
S1130FCE3D20002C202059207374727563743D20CB
S1050FDE00000D
S9030000FC
