:100000000C9438000C9442000C9442000C94420072
:100010000C9442000C9442000C9442000C94420058
:100020000C9442000C9442000C9442000C94420048
:100030000C9442000C9442000C9442000C94420038
:100040000C9442000C9442000C9442000C94420028
:100050000C9442000C9442000C9442000C94420018
:100060000C9442000C9442000C9442000C94420008
:1000700011241FBECFEFD4E0DEBFCDBF0E944400ED
:100080000C946D000C9400000E94490080E090E008
:100090000895D09A319AD89A2FE58CED9CE22150A0
:1000A00080409040E1F700C00000399A39982FE570
:1000B0008CED9CE2215080409040E1F700C00000B0
:1000C000D8982FE58CED9CE2215080409040E1F7DC
:0E00D00000C00000399A39980895F894FFCFC7
:00000001FF
