:100000000C9438000C9455000C9455000C94550039
:100010000C9455000C9455000C9455000C9455000C
:100020000C9455000C9455000C9455000C945500FC
:100030000C9455000C9455000C9455000C945500EC
:100040000C9455000C9455000C9455000C945500DC
:100050000C9455000C9455000C9455000C945500CC
:100060000C9455000C9455000C9455000C945500BC
:1000700011241FBECFEFD4E0DEBFCDBF12E0A0E061
:10008000B1E0E0E2FDE002C005900D92A232B107BE
:10009000D9F722E0A2E2B2E001C01D92AC32B20771
:1000A000E1F70E9457000C948E060C94000080E843
:1000B00095E20E94720069E970E08CE690E00E948F
:1000C000E70185B7806885BF80B7806280BF0E94E6
:1000D0009D0080E090E008955D9BFECF8CB981E0AB
:1000E00090E00895AA2797FDA095BA2F880F991F31
:1000F000AA1FBB1F880F991FAA1FBB1F9C01AD0120
:10010000220F331F441F551F220F331F441F551F3B
:1001100060E070E08BE490E00E94480121503109DA
:1001200029B930BD88E18AB98EE880BD81E090E0D0
:1001300008955F9BFECF8CB108956F927F928F924E
:100140009F92AF92BF92CF92DF92EF92FF920F9366
:100150001F93CF93DF938AE091E00E9446020E94B2
:10016000D7014C010E94DC01C0E0D0E0C12CD12CB1
:100170000F2EF0E2EF2EF1E0FF2EF02D0F2EF4E522
:10018000AF2EF1E0BF2EF02D0E94D701682EFE01A8
:10019000F85E808370808C0111271F930F931F924C
:1001A0007F92DF93CF93FF92EF920E9432028DB73E
:1001B0009EB708960FB6F8949EBF0FBE8DBF7614FB
:1001C000A9F01F930F931F927F92DF93CF93BF925B
:1001D000AF920E9432029FEFC91AD90A8DB79EB71B
:1001E00008960FB6F8949EBF0FBE8DBF2196C1151D
:1001F00098E0D90749F6C4010E94DC01C0E0D0E0D4
:1002000000E010E00F2EFDE8EF2EF1E0FF2EF02DC4
:100210000E94D701FE01F85E20812817A9F09927D6
:100220009F938F931F922F93DF93CF93FF92EF9221
:100230000E9432020F5F1F4F8DB79EB708960FB610
:10024000F8949EBF0FBE8DBF2196C11598E0D907C7
:10025000F9F61F930F93DF92CF928AEC91E09F9370
:100260008F930E9432020F900F900F900F900F907B
:100270000F90DF91CF911F910F91FF90EF90DF9042
:10028000CF90BF90AF909F908F907F906F90089588
:10029000052E97FB1EF400940E945F0157FD07D0C6
:1002A0000E94670107FC03D04EF40C945F01509547
:1002B0004095309521953F4F4F4F5F4F0895909552
:1002C0008095709561957F4F8F4F9F4F0895A1E264
:1002D0001A2EAA1BBB1BFD010DC0AA1FBB1FEE1FC0
:1002E000FF1FA217B307E407F50720F0A21BB30B0B
:1002F000E40BF50B661F771F881F991F1A9469F787
:1003000060957095809590959B01AC01BD01CF01E2
:1003100008958F929F92AF92BF92CF92DF92EF9209
:10032000FF92CF93DF93EC01688179818A819B8171
:10033000611571058105910521F464E279ED8BE584
:1003400097E02DE133EF41E050E00E944801490180
:100350005A019B01AC01A7EAB1E40E9435066B018A
:100360007C01ACEEB4EFA50194010E944306C60ED9
:10037000D71EE81EF91EF7FE06C081E0C81AD10894
:10038000E10880E8F80AC882D982EA82FB82C601C5
:100390009F77DF91CF91FF90EF90DF90CF90BF904C
:1003A000AF909F908F9008950E948901089580E0FA
:1003B00091E00E9489010895A0E0B0E080930001DF
:1003C00090930101A0930201B093030108950F934C
:1003D0001F93CF93DF93EC018B01009731F46115EC
:1003E000710519F480E090E038C06EE070E081E0C3
:1003F00090E00E944504FC010097A1F380E883830C
:100400000115110571F01387028781E883838091BC
:10041000220290912302892B21F4F0932302E0938E
:1004200022022097C9F0D187C087838182608383AD
:100430008091240290912502892B71F4F09325027A
:10044000E09324028091260290912702892B21F4C7
:10045000F0932702E0932602CF01DF91CF911F9105
:100460000F910895A0E0B0E0E8E3F2E00C945806A4
:10047000FE01359661917191AF01809124029091B6
:1004800025020E947302E2E00C9474060F931F93FE
:10049000CF93DF93E0912402F0912502238121FF85
:1004A0001BC0EC0100E010E0899160912402709182
:1004B0002502DB011896ED91FC911997882331F004
:1004C0000995892B89F30FEF1FEFEECF8AE009958D
:1004D000892B11F4C80102C08FEF9FEFDF91CF91FC
:1004E0001F910F910895ACE0B0E0E9E7F2E00C94C1
:1004F00048067C016B018A01FC0117821682838108
:1005000081FFBDC1CE0101964C01F7019381F60137
:1005100093FD859193FF81916F01882309F4ABC10D
:10052000853239F493FD859193FF81916F01853276
:1005300029F4B70190E00E94A505E7CF512C312C9A
:1005400020E02032A0F48B3269F030F4803259F090
:10055000833269F420612CC08D3239F0803339F454
:10056000216026C02260246023C0286021C027FDAE
:1005700027C030ED380F3A3078F426FF06C0FAE095
:100580005F9E300D1124532E13C08AE0389E300D2B
:100590001124332E20620CC08E3221F426FD6BC153
:1005A000206406C08C3611F4206802C0883641F4FD
:1005B000F60193FD859193FF81916F018111C1CF68
:1005C000982F9F7D9554933028F40C5F1F4FFFE3C5
:1005D000F9830DC0833631F0833771F0833509F02C
:1005E0005BC022C0F801808189830E5F1F4F4424C5
:1005F0004394512C540115C03801F2E06F0E711C68
:10060000F801A080B18026FF03C0652D70E002C014
:100610006FEF7FEFC5012C870E949A052C018301A3
:100620002C852F77222E17C03801F2E06F0E711C37
:10063000F801A080B18026FF03C0652D70E002C0E4
:100640006FEF7FEFC5012C870E9488052C012C8558
:100650002068222E830123FC1BC0832D90E04816C6
:100660005906B0F4B70180E290E00E94A5053A94E3
:10067000F4CFF50127FC859127FE81915F01B70139
:1006800090E00E94A50531103A94F1E04F1A51080C
:100690004114510471F7E5C0843611F0893639F5FB
:1006A000F80127FF07C060817181828193810C5F0F
:1006B0001F4F08C060817181882777FD8095982F32
:1006C0000E5F1F4F2F76B22E97FF09C09095809531
:1006D000709561957F4F8F4F9F4F2068B22E2AE013
:1006E00030E0A4010E94D705A82EA81844C0853781
:1006F00029F42F7EB22E2AE030E025C0F22FF97FB8
:10070000BF2E8F36C1F018F4883579F0B4C0803729
:1007100019F0883721F0AFC02F2F2061B22EB4FE20
:100720000DC08B2D8460B82E09C024FF0AC09F2FF6
:100730009660B92E06C028E030E005C020E130E028
:1007400002C020E132E0F801B7FE07C0608171818C
:10075000828193810C5F1F4F06C06081718180E0B0
:1007600090E00E5F1F4FA4010E94D705A82EA81885
:10077000FB2DFF77BF2EB6FE0BC02B2D2E7FA514B1
:1007800050F4B4FE0AC0B2FC08C02B2D2E7E05C06A
:100790007A2C2B2D03C07A2C01C0752C24FF0DC0A0
:1007A000FE01EA0DF11D8081803311F4297E09C01C
:1007B00022FF06C07394739404C0822F867809F0D8
:1007C000739423FD13C020FF06C05A2C731418F431
:1007D000530C5718732C731468F4B70180E290E03F
:1007E0002C870E94A50573942C85F5CF731410F403
:1007F000371801C0312C24FF12C0B70180E390E00C
:100800002C870E94A5052C8522FF17C021FF03C05D
:1008100088E590E002C088E790E0B7010CC0822F25
:10082000867859F021FD02C080E201C08BE227FDED
:100830008DE2B70190E00E94A505A51438F4B70138
:1008400080E390E00E94A5055A94F7CFAA94F401A2
:10085000EA0DF11D8081B70190E00E94A505A1106D
:10086000F5CF332009F451CEB70180E290E00E9429
:10087000A5053A94F6CFF7018681978102C08FEFE4
:100880009FEF2C96E2E10C9464060F931F93CF9395
:10089000DF93869F8001879F100D969F100D112476
:1008A000C8010E946104EC01009729F0A80160E0F2
:1008B00070E00E949305CE01DF91CF911F910F91BF
:1008C0000895CF93DF938230910510F482E090E099
:1008D000E0912A02F0912B0220E030E0A0E0B0E0AD
:1008E000309739F14081518148175907B8F04817BE
:1008F000590771F482819381109729F013969C9384
:100900008E9312972CC090932B0280932A0227C0BB
:100910002115310531F04217530718F0A901DB0109
:1009200001C0EF019A01BD01DF010280F381E02DDA
:10093000D7CF21153105F9F0281B390B24303105AB
:1009400080F48A819B816115710521F0FB019383FD
:10095000828304C090932B0280932A02FE01329678
:1009600044C0FE01E20FF31F81939193225031099D
:10097000398328833AC02091280230912902232B01
:1009800041F4209106013091070130932902209310
:10099000280220910401309105012115310541F40F
:1009A0002DB73EB74091080150910901241B350B2A
:1009B000E0912802F0912902E217F307A0F42E1B20
:1009C0003F0B2817390778F0AC014E5F5F4F2417B3
:1009D000350748F04E0F5F1F5093290240932802BD
:1009E0008193919302C0E0E0F0E0CF01DF91CF91DD
:1009F0000895CF93DF93009709F487C0FC013297E5
:100A000013821282C0912A02D0912B02209781F486
:100A100020813181280F391F80912802909129026D
:100A20008217930779F5F0932902E09328026DC0AD
:100A3000DE0120E030E0AE17BF0750F412964D9172
:100A40005C9113979D014115510509F1DA01F3CF2E
:100A5000B383A28340815181840F951F8A179B071E
:100A600071F48D919C911197840F951F029691833B
:100A7000808312968D919C91139793838283211585
:100A8000310529F4F0932B02E0932A023EC0D901EC
:100A90001396FC93EE9312974D915D91A40FB51FA1
:100AA000EA17FB0779F480819181840F951F0296E4
:100AB000D90111969C938E938281938113969C9376
:100AC0008E931297E0E0F0E08A819B81009719F005
:100AD000FE01EC01F9CFCE01029628813981820F07
:100AE000931F20912802309129022817390769F4B1
:100AF000309729F410922B0210922A0202C013821E
:100B00001282D0932902C0932802DF91CF910895D9
:100B1000FC010590615070400110D8F780959095C8
:100B20008E0F9F1F0895DC0101C06D93415050400E
:100B3000E0F70895FC016150704001900110D8F772
:100B4000809590958E0F9F1F08950F931F93CF93BD
:100B5000DF93182F092FEB018B8181FD03C08FEFED
:100B60009FEF20C082FF10C04E815F812C813D81AC
:100B7000421753077CF4E881F9819F012F5F3F4FB3
:100B800039832883108306C0E885F985812F09956C
:100B9000892B29F72E813F812F5F3F4F3F832E8383
:100BA000812F902FDF91CF911F910F910895FA011E
:100BB000AA27283051F1203181F1E8946F936E7F9C
:100BC0006E5F7F4F8F4F9F4FAF4FB1E03ED0B4E08D
:100BD0003CD0670F781F891F9A1FA11D680F791FCE
:100BE0008A1F911DA11D6A0F711D811D911DA11DDF
:100BF00020D009F468943F912AE0269F11243019EF
:100C0000305D3193DEF6CF010895462F4770405D89
:100C10004193B3E00FD0C9F7F6CF462F4F70405D38
:100C20004A3318F0495D31FD4052419302D0A9F793
:100C3000EACFB4E0A6959795879577956795BA958D
:100C4000C9F700976105710508959B01AC010A2E53
:100C500006945795479537952795BA95C9F7620F2A
:100C6000731F841F951FA01D08950E947F06A59FD6
:100C7000900DB49F900DA49F800D911D1124089597
:100C8000B7FF0C9435060E943506821B930B08951E
:100C90002F923F924F925F926F927F928F929F928C
:100CA000AF92BF92CF92DF92EF92FF920F931F937A
:100CB000CF93DF93CDB7DEB7CA1BDB0B0FB6F8942B
:100CC000DEBF0FBECDBF09942A88398848885F846B
:100CD0006E847D848C849B84AA84B984C884DF80DC
:100CE000EE80FD800C811B81AA81B981CE0FD11DC0
:100CF0000FB6F894DEBF0FBECDBFED010895A29FE1
:100D0000B001B39FC001A39F700D811D1124911DDF
:100D1000B29F700D811D1124911D0895F894FFCF8D
:100D20000100000000002C022000537461727469FD
:100D30006E67205352414D20746573742E2E2E0021
:100D40005772697465207068617365203A20657810
:100D5000745F72616D5B2534645D203D2025303207
:100D600058202873686F756C6420626520253032C6
:100D700058290A005772697465207068617365208C
:100D80006572726F723A206578745F72616D5B256F
:100D900034645D203D2025303258202873686F75FB
:100DA0006C642062652025303258290A005265742F
:100DB00072696576616C2070686173652065727216
:100DC0006F723A206578745F72616D5B2534645D83
:100DD000203D2025303258202873686F756C6420C0
:100DE00062652025303258290A005352414D207443
:100DF00065737420636F6D706C65746564207769CA
:100E00007468200A253464206572726F72732069D9
:100E10006E20777269746520706861736520616EF9
:100E2000640A253464206572726F727320696E20C3
:100E300072657472696576616C2070686173650AA9
:020E40000A00A6
:00000001FF
