S011000050696E6720506F6E672E73726563D1
S11300000C9477030C9494030C9494030C9494032D
S11300100C9494030C9494030C9494030C94940300
S11300200C9494030C9494030C9494030C949403F0
S11300300C9494030C9494030C9494030C949403E0
S11300400C9494030C9494030C9494030C949403D0
S11300500C9494030C9494030C9494030C949403C0
S11300600C9494030C9494030C9494030C949403B0
S1130070084AD73B3BCE016E84BCBFFDC12F3D6C0B
S113008074319ABD56833DDA3D00C77F11BED9E471
S1130090BB4C3E916BAAAABE000000803F0000004A
S11300A00000005C00000C000C007C287C2858DC5C
S11300B068002410480028542840000C00000078F0
S11300C084008478000054385400107C1000804070
S11300D00000101010000040000060100C003854A4
S11300E03800487C40004864580044542C001C10DC
S11300F07C005C5424003854240064140C006854BC
S11301002C004854380000480000804800001028A3
S113011044002828280044281000045408003844C7
S11301205C00781478007C542800384428007C440F
S113013038007C5444007C140400384474007C105F
S11301407C00447C440020403C007C106C007C40DB
S113015040007C187C0078103C00384438007C1443
S113016008003844B8007C14680048542400047C17
S113017004007C407C003C603C007C307C006C10C3
S11301806C000C700C0064544C00007C44000C1097
S11301906000447C000008040800808080000004A3
S11301A00800304878007C48300030484800304827
S11301B07C00306850001078140090A878007C0807
S11301C0700050744000808074007C106800447C8F
S11301D04000781078007808700030483000F82823
S11301E010003048F8007810080050582800083CE7
S11301F0480038407800384038007820780048308B
S1130200480098A078004868580010788400007C62
S113021000008478100008040804000000000000B6
S1130220005F00000007000700147F147F14242AD5
S11302307F2A1223130864623649552250000503AD
S11302400000001C2241000041221C00082A1C2A34
S11302500808083E0808005030000008080808088C
S1130260006060000020100804023E5149453E0031
S1130270427F400042615149462141454B311814A7
S1130280127F1027454545393C4A494930017109D7
S113029005033649494936064949291E00363600C0
S11302A000005636000000081422411414141414DB
S11302B041221408000201510906324979413E7E67
S11302C01111117E7F494949363E414141227F4106
S11302D041221C7F494949417F090901013E4141AD
S11302E051327F0808087F00417F41002040413F90
S11302F0017F081422417F404040407F0204027F76
S11303007F0408107F3E4141413E7F090909063EB2
S11303104151215E7F091929464649494931010164
S11303207F01013F4040403F1F2040201F7F201895
S1130330207F63140814630304780403615149455E
S11303404300007F4141020408102041417F000026
S11303500402010204404040404000010204002025
S1130360545454787F4844443838444444203844EE
S113037044487F3854545418087E09010208145420
S1130380543C7F0804047800447D40002040443DF0
S113039000007F10284400417F40007C041804784A
S11303A07C0804047838444444387C141414080841
S11303B01414187C7C080404084854545420043F42
S11303C04440203C4040207C1C2040201C3C4030C9
S11303D0403C44281028440C5050503C4464544C35
S11303E044000836410000007F0000004136080048
S11303F00201030201000000000000000000065F8B
S11304005F060000000007070007070000147F7F55
S1130410147F7F1400242E6B6B3A12000046663062
S1130420180C666200307A4F5D377A48000407037F
S11304300000000000001C3E634100000000416316
S11304403E1C000000082A3E1C1C3E2A0808083EE8
S11304503E0808000000A0E0600000000008080852
S11304600808080000000060600000000060301808
S11304700C060301003E7F594D7F3E000042427F3F
S11304807F40400000627359496F6600002263494F
S1130490497F360000181C16137F7F10002767451C
S11304A0457D3900003C7E4B49793000000363717F
S11304B0190F070000367F49497F360000064F496F
S11304C0693F1E000000006C6C0000000000A0ECFE
S11304D06C00000000081C36634100000014141472
S11304E01414140000004163361C08000002035178
S11304F0590F0600003E7F415D5D1F1E007C7E1388
S1130500137E7C0000417F7F49497F36001C3E6397
S11305104141632200417F7F41637F1C00417F7F13
S1130520495D416300417F7F491D0103001C3E6317
S113053041517372007F7F08087F7F000000417F74
S11305407F41000000307040417F3F0100417F7FC8
S1130550081C776300417F7F41406070007F7F0605
S11305600C067F7F007F7F060C187F7F001C3E6394
S113057041633E1C00417F7F49090F06001E3F2155
S1130580717F5E0000417F7F19396F460026674DF9
S1130590597B32000003417F7F410300007F7F408D
S11305A0407F7F00001F3F60603F1F00007F7F305F
S11305B018307F7F0063771C081C776300074F782F
S11305C0784F0700006773594D47637100007F7FC0
S11305D041410000000103060C1830600000414155
S11305E07F7F000000080C0603060C080080808052
S11305F08080808080000003070400000020745481
S1130600543C784000413F7F44447C3800387C446B
S1130610446C280000307848493F7F4000387C54BF
S1130620545C180000487E7F490302000098BCA473
S1130630A4F87C0400417F7F08047C780000447D9A
S11306407D4000000040C484FD7D000000417F7FA8
S113065010386C440000417F7F400000007C7C0C1B
S1130660180C7C78007C7C04047C780000387C4482
S1130670447C38000084FCF8A4243C1800183C2472
S1130680A4F8FC8400447C78441C180000485C54A2
S1130690547424000000043E7F442400003C7C4049
S11306A0403C7C40001C3C60603C1C00003C7C6086
S11306B030607C3C00446C3810386C44009CBCA016
S11306C0A0FC7C00004C64745C4C64000008083E90
S11306D07741410000000000777700000041417736
S11306E03E08080000020301030203010000112474
S11306F01FBECFEFD4E0DEBFCDBF12E0A0E0B1E07B
S1130700E2ECF6E202C005900D92A83BB107D9F7DE
S113071022E0A8EBB2E001C01D92A03DB207E1F7D0
S11307200E94D7070C945F130C940000309808952E
S1130730883721F484E08093001411C0893721F4B0
S113074085E0809300140BC08C3621F486E08093FE
S1130750001405C0823719F487E0809300142899A7
S1130760FECF809100140895EF92FF920F931F9390
S1130770CF93DF937C01DC0114968D919C911597A6
S113078018161906E4F4C0E0D0E0CE01880F991FD2
S1130790D7011296ED91FC911397E80FF91F00E031
S11307A010E025E04C2F60E0808191810E94F308E5
S11307B02196F70184819581C817D90734F3D701AD
S11307C016962D913C9117972F5F3F4F220F331FA1
S11307D0220F331F220F331FB901685071094FE7ED
S11307E050E080E090E00E94530A0E94B807F701AD
S11307F02681378191E0813009F090E0992379F0E6
S113080091E02115310509F490E0992341F021503C
S11308103109D70117963C932E93169748C0F701D8
S11308204481558191E0833009F090E0992391F05F
S113083091E0BA01615071092617370709F490E075
S1130840992341F02F5F3F4FD70117963C932E9386
S113085016972DC0F70163857485E1E06115710574
S113086009F4E0E091E0452B09F490E09E2369F05F
S113087091E0811190E0992341F0220F331FFB0195
S1130880E20FF31FE080F18012C0D70119962D9179
S11308903C911A9791E0823009F090E0992339F065
S11308A081E02115310509F480E081117901C70146
S11308B0DF91CF911F910F91FF90EF900895EF92E8
S11308C0FF920F931F93CF93DF937C01DC01149667
S11308D08D919C91159718161906E4F4C0E0D0E0A8
S11308E0CE01880F991FD7011296ED91FC911397B1
S11308F0E80FF91F00E010E025E04C2F60E0808154
S113090091810E94F3082196F70184819581C8178B
S1130910D90734F30E94B807D70119962D913C9159
S11309201A9791E0823009F090E0992339F081E040
S11309302115310509F480E0811101C09701C90135
S1130940DF91CF911F910F91FF90EF9008958F92B7
S11309509F92AF92BF92CF92DF92EF92FF920F934A
S11309601F93CF93DF938C01D62FC72F5A016A01AF
S1130970CC0CDD1CC6010E94070ED80113969C9373
S11309808E9312971A141B0454F58D2E9C2EC0E0DE
S1130990D0E0F801E280F380EC0EFD1ED401ED916D
S11309A0FC91DF010D900020E9F7CD0101978E1B2A
S11309B09F0B0E94070EF70191838083D4018D91D0
S11309C09D914D01D8011296ED91FC911397EC0F76
S11309D0FD1F918380832296CC16DD06D1F6F801A3
S11309E0B582A48217821682DF91CF911F910F9155
S11309F0FF90EF90DF90CF90BF90AF909F908F903B
S1130A000895CF92DF92EF92FF920F931F93CF93AB
S1130A10DF93EC018B018C819D8101969D838C83F6
S1130A20FB01D287C1876C817D81660F771F8B851F
S1130A309C850E942E0F7C019C878B87CC80DD8057
S1130A408FE0F82FFC9DC001FD9D900D11240E94A4
S1130A50070E21E0C21A20E8D20ACC0CDD1CF701F3
S1130A60EC0DFD1D91838083EC81FD81E150F04804
S1130A70EE0FFF1F8B859C85E80FF91F1183008300
S1130A806C817D81660F771F8A819B810E942E0F66
S1130A909B838A83EC80FD80E1E0EE1AE0E8FE0AA5
S1130AA0EE0CFF1CE80EF91EF801A081B181FD01D6
S1130AB001900020E9F73197CF018A1B9B0B0E941C
S1130AC0070EF70191838083F80180819181EC8185
S1130AD0FD81E150F048EE0FFF1F2A813B81E20FB8
S1130AE0F31F91838083DF91CF911F910F91FF902A
S1130AF0EF90DF90CF900895CF93DF93CDB7DEB71B
S1130B006C970FB6F894DEBF0FBECDBF86E0EEE65D
S1130B10F1E0DE01119601900D928A95E1F743E030
S1130B2050E0BE016F5F7F4F87E191E00E94A70410
S1130B3067E171E085E391E00E94010588E0E4E764
S1130B40F1E0DE01179601900D928A95E1F744E0F9
S1130B5050E0BE01695F7F4F88E091E00E94A704E6
S1130B6068E071E085E391E00E94010565E371E0CE
S1130B7083E591E00E94010586E0ECE7F1E0DE0107
S1130B801F9601900D928A95E1F743E050E0BE0173
S1130B90615F7F4F84E491E00E94A70464E471E004
S1130BA083E591E00E94010588E0E2E8F1E0DE01DE
S1130BB0559601900D928A95E1F744E050E0BE010C
S1130BC06B5E7F4F86E291E00E94A70466E271E0CB
S1130BD083E591E00E9401056C960FB6F894DEBFA0
S1130BE00FBECDBFDF91CF9108950E945B09809124
S1130BF0060190910701DC011D96ED91FC911E9771
S1130C00099590930701809306010E94EF090895C6
S1130C10CF93DF9388E70E94980390E09093C102FA
S1130C208093C00289E70E94980390E09093C502E4
S1130C308093C40286B384701F928F9383E292E000
S1130C409F938F930E944C100F900F900F900F90D2
S1130C50C6E2D2E074C088E70E94980390E09093C3
S1130C60BF028093BE0289E70E94980390E09093AC
S1130C70C3028093C2028091BE029091BF02209170
S1130C80BA023091BB022817390774F49093BB025F
S1130C908093BA029F938F93DF93CF930E944C105B
S1130CA00F900F900F900F908091C2029091C30209
S1130CB02091B8023091B9022817390774F490933F
S1130CC0B9028093B8029F938F93DF93CF930E94CE
S1130CD04C100F900F900F900F908091BE02909146
S1130CE0BF0220916401309165018217930774F467
S1130CF090936501809364019F938F93DF93CF93C7
S1130D000E944C100F900F900F900F908091C20290
S1130D109091C3022091620130916301821793077D
S1130D2074F490936301809362019F938F93DF9394
S1130D30CF930E944C100F900F900F900F90B29988
S1130D408ACFDF91CF910895BA98C29A8BE292E04C
S1130D500E9460100E9408068AE392E00E946010DC
S1130D600895CF93DF9300D000D000D0CDB7DEB785
S1130D7088E70E94980390E09093BF028093BE029C
S1130D8089E70E949803E82FF0E08091BE029091D9
S1130D90BF022091C0023091C10228173907B4F470
S1130DA0AC01421B530B64E6649FC001659F900D28
S1130DB011246091BA027091BB02621B730B0E94F2
S1130DC09E0D7093BF026093BE0216C0AC01421B1D
S1130DD0530B64E6649FC001659F900D11244091FC
S1130DE0640150916501B901641B750B0E949E0D4D
S1130DF07093BF026093BE026091C4027091C502F9
S1130E006E177F07BCF4E61BF70B24E62E9FC00188
S1130E102F9F900D11242091B8023091B902A9019D
S1130E20461B570BBA010E949E0D7093C302609338
S1130E30C20214C0E61BF70B24E62E9FC0012F9FAD
S1130E40900D11242091620130916301621B730B98
S1130E500E949E0D7093C3026093C2024091C2022D
S1130E608091C30266B32091BE029091BF02298390
S1130E709A834B838C836695669581E068276170BD
S1130E806D831E82392F5C8170E080E090E02696AD
S1130E900FB6F894DEBF0FBECDBFDF91CF9108959A
S1130EA08F929F92AF92BF92CF92DF92EF92FF9276
S1130EB0CF93DF9300D000D000D0CDB7DEB70E942F
S1130EC0B10629833A834B835C8389809A80AB8003
S1130ED0BC80B401882777FD8095982F0E94C20BAF
S1130EE06B017C01B501882777FD8095982F0E94BE
S1130EF0C20BA70196010E94D60A6B017C01889C53
S1130F00B001899C700D700D1124AA9CC001AB9C8A
S1130F10900D900D1124680F791F80E090E00E94DD
S1130F20C00B0E94E10C4B015C0120EE3EE245E661
S1130F3052E4C701B6010E947A0C0E948F0B6B0128
S1130F40C501B4010E948F0B7B01C701B60126962F
S1130F500FB6F894DEBF0FBECDBFDF91CF91FF90E7
S1130F60EF90DF90CF90BF90AF909F908F900895B7
S1130F700E9450079B01813591057CF0683871050A
S1130F8074F46E3271056CF4243D8FEF38075CF411
S1130F902A373F4F54F083E008958FEF089582E09D
S1130FA0089581E0089580E0089582E0089585B76A
S1130FB0806885BF80B7806280BF80E895E20E9428
S1130FC0960A0E9496030E94690900E010E028E056
S1130FD040E060E08AE892E00E94F3080E94EF0992
S1130FE00E94A4060E94890A0E945B090E94EF09DC
S1130FF00E947C050E94F505FDCF20916601309189
S11310006701232BF9F02091BC023091BD02211518
S113101094E039072CF085EA92E00E94601008956C
S113102040916A0150916B01FA01E20FF31F808332
S11310308091BC029091BD0201969093BD02809371
S1131040BC020895E0916801F091690180830895DC
S1131050EF92FF920F931F93CF93DF93683059F46D
S1131060082F10E0000F111F000F111F000F111F98
S11310700B501D4F1AC0653071F4082F10E0005258
S11310801109C801880F991F880F991F080F191F8C
S1131090065E1D4F0AC0643041F4082F10E0000FB3
S11310A0111F000F111F025E1F4F452B31F0E62E5A
S11310B0F12C1E141F049CF01FC0E62EF12C1E14EC
S11310C01F04D4F4C0E0D0E0FE01E00FF11F8491CE
S11310D00E94FD072196CE15DF05B4F30DC0C0E0D4
S11310E0D0E0FE01E00FF11F849180950E94FD077E
S11310F02196CE15DF05ACF3DF91CF911F910F91AF
S1131100FF90EF9008958091660190916701892B7B
S1131110B9F08091BC029091BD02811524E0920740
S113112034F085EA92E00E9460108FEF08952091D8
S11311306A0130916B01F901E80FF91F808108956C
S113114080E008954091660150916701452BD1F0EC
S11311502091BC023091BD022F773078332334F4D0
S11311602150310920683F6F2F5F3F4F9695982F8C
S1131170882797958795280F391F3093BD022093B0
S1131180BC0208958055E0916C01F0916D0180835B
S113119008952091660130916701232BC1F040919D
S11311A0BC025091BD029A012F773078332334F476
S11311B02150310920683F6F2F5F3F4F421B530B73
S11311C0840F951F9093BD028093BC020895E09113
S11311D06C01F0916D011082E0916C01F0916D0150
S11311E080E1808308956F927F928F929F92AF9255
S11311F0BF92CF92DF92EF92FF920F931F93CF9300
S1131200DF93EC01962E742E822E862F90E00E949E
S1131210C908872D90E00E94A208FE0101900020D9
S1131220E9F731976F01CC1ADD0A1C141D0424F56B
S11312307E01C0E0D0E08FE790E05C01A818B1081F
S1131240612CA801682DF70181917F010E94280873
S1131250980C892D90E0A816B90654F4739480E094
S113126090E00E94C908872D90E00E94A208962C65
S11312702196CC16DD0629F7DF91CF911F910F91AE
S1131280FF90EF90DF90CF90BF90AF909F908F90A2
S11312907F906F900895CF930E94A20880E090E021
S11312A00E94C908C0E080E00E94FD07CF5FC038FB
S11312B0D1F7CF910895CF93DF93C0E0D0E0CE0172
S11312C00E944B092196C830D105C9F7DF91CF910F
S11312D00895E0916C01F0916D018EEA8083E091B4
S11312E06C01F0916D0181EA8083E0916C01F091D1
S11312F06D018AED8083E0916C01F0916D0182E1D2
S11313008083E0916C01F0916D0188EC8083E09121
S11313106C01F0916D0188EA8083E0916C01F09199
S11313206D018FE38083E0916C01F0916D0185ED97
S11313308083E0916C01F0916D0180E88083E091FD
S11313406C01F0916D0181E88083E0916C01F09172
S11313506D0180E58083E0916C01F0916D0189ED70
S11313608083E0916C01F0916D0181E28083E091D2
S11313706C01F0916D0180E28083E0916C01F09149
S11313806D0182E08083E0916C01F0916D018BED41
S11313908083E0916C01F0916D0180E38083E091A2
S11313A06C01F0916D018DEA8083E0916C01F09104
S11313B06D011082E0916C01F0916D0184EA8083EB
S11313C0E0916C01F0916D0186EA8083E0916C01FB
S11313D0F0916D018FEA80830E945B090895CF9399
S11313E0E0916C01F0916D011082E0916C01F0913B
S11313F06D0180E180838091660190916701892B62
S113140021F140E050E060EBC0E070E0E0916C015D
S1131410F0916D0160838C2F972FE0916801F0911A
S113142069019C01240F351FA0916A01B0916B01E1
S1131430A20FB31F2C91208301968038910569F780
S11314406F5F40585F4F683B09F7CF910895CF9382
S1131450DF93EB010E94C908CE01DD230CF407964B
S11314609595879595958795959587950E94A2085A
S11314700E948308BE0167707078772334F461504A
S11314807109686F7F6F6F5F7F4F21E030E0A901C2
S113149002C0440F551F6A95E2F784270E94FD0796
S11314A0DF91CF9108958F929F92AF92BF92CF9286
S11314B0DF92EF92FF920F931F93CF93DF938C01F0
S11314C06B015A01790184179507B4F4862E9D2C7B
S11314D00DC0BE01C8010E94270A2196CE15DF0562
S11314E0C4F30F5F1F4F0A151B0534F4CE14DF0439
S11314F0C4F7C82DD92DEDCFDF91CF911F910F9156
S1131500FF90EF90DF90CF90BF90AF909F908F901F
S11315100895B898B99808955D9BFECF8CB981E081
S113152090E008955F9BFECF8CB10895CF93DF9335
S1131530AA2797FDA095BA2F880F991FAA1FBB1F32
S1131540880F991FAA1FBB1F9C01AD01220F331FD7
S1131550441F551F220F331F441F551F60E070E0C6
S11315608BE490E00E94B20DE901219762E97AE0F0
S11315708CE89AE00E940110C9B9D0BD88E18AB90B
S11315808EE880BD81E090E0DF91CF91089563D132
S113159058F080E891E009F49EEF64D128F040E827
S11315A051E059F45EEF09C02EC196C1E92FE078ED
S11315B071D168F3092E052AC1F3261737074807A6
S11315C0590738F00E2E07F8E02569F0E025E064AD
S11315D00AC0EF6307F8009407FADB01B9019D0123
S11315E0DC01CA01AD01EF9341D043D10AD05F9130
S11315F0552331F02BED3FE049E450FD49EC23C283
S11316000895DF93DD27B92FBF7740E85FE316160F
S1131610170648075B0710F4D92F65D19F938F9362
S11316207F936F930CD2E0E7F0E0F0D022D12F91BA
S11316303F914F915F916AD1DD2349F09058A2EA1E
S11316402AED3FE049EC5FE3D0785D270DD2DF91CE
S113165010C108D140F0FFD030F021F45F3F19F001
S1131660CCC051113AC1CFC015D198F39923C9F315
S11316705523B1F3951B550BBB27AA276217730794
S1131680840738F09F5F5F4F220F331F441FAA1F48
S1131690A9F333D00E2E3AF0E0E830D09150504008
S11316A0E695001CCAF729D0FE2F27D0660F771FB6
S11316B0881FBB1F261737074807AB07B0E809F098
S11316C0BB0B802DBF01FF2793585F4F2AF09E3F2D
S11316D0510568F092C001C15F3FECF3983EDCF322
S11316E0869577956795B795F7959F5FC9F7880FA6
S11316F0911D9695879597F90895E1E0660F771FF8
S1131700881FBB1F621773078407BA0720F0621B88
S1131710730B840BBA0BEE1F88F7E095089504D081
S11317206894B111DAC00895BDD088F09F5790F045
S1131730B92F9927B751A0F0D1F0660F771F881FF2
S1131740991F1AF0BA95C9F712C0B13081F0C4D00C
S1131750B1E00895C1C0672F782F8827B85F39F0AA
S1131760B93FCCF3869577956795B395D9F73EF451
S113177090958095709561957F4F8F4F9F4F0895F9
S1131780E89409C097FB3EF4909580957095619517
S11317907F4F8F4F9F4F9923A9F0F92F96E9BB27CD
S11317A09395F695879577956795B795F111F8CF49
S11317B0FAF4BB0F11F460FF1BC06F5F7F4F8F4FB4
S11317C09F4F16C0882311F096E911C0772321F0AA
S11317D09EE8872F762F05C0662371F096E8862F42
S11317E070E060E02AF09A95660F771F881FDAF799
S11317F0880F9695879597F9089597F99F6780E8DC
S113180070E060E008959FEF80EC0895DF93CF933C
S11318101F930F93FF92EF92DF927B018C016894E8
S113182005C0DA2EEF0172D0FE01E894A59125914E
S1131830359145915591AEF3EF0116D1FE01970113
S1131840A801DA9479F7DF90EF90FF900F911F9140
S1131850CF91DF91089500240A94161617061806EE
S11318600906089500240A941216130614060506A0
S11318700895092E0394000C11F4882352F0BB0F31
S113188040F4BF2B11F460FF04C06F5F7F4F8F4F94
S11318909F4F089557FD9058440F551F59F05F3FCF
S11318A071F04795880F97FB991F61F09F3F79F07E
S11318B087950895121613061406551FF2CF469500
S11318C0F1DF08C0161617061806991FF1CF869582
S11318D07105610508940895E894BB276627772766
S11318E0CB0197F908959B01AC0160E070E080E8BA
S11318F09FE30DC10BD0BDCFAEDF28F0B3DF18F0EE
S1131900952309F07ACF7FCF1124E7CFC3DFA0F36B
S1131910959FD1F3950F50E0551F629FF001729F80
S1131920BB27F00DB11D639FAA27F00DB11DAA1F9F
S1131930649F6627B00DA11D661F829F2227B00DEC
S1131940A11D621F739FB00DA11D621F839FA00D77
S1131950611D221F749F3327A00D611D231F849FC7
S1131960600D211D822F762F6A2F11249F5750401E
S11319708AF0E1F088234AF0EE0FFF1FBB1F661FB9
S1131980771F881F91505040A9F79E3F510570F072
S113199034CFA3CF5F3FECF3983EDCF38695779585
S11319A06795B795F795E7959F5FC1F7FE2B880F6D
S11319B0911D9695879597F9089511F40EF423CF08
S11319C0A8C070DFD0F39923D9F3CEF39F57550BFA
S11319D087FFADD00024A0E640EA900180585695D8
S11319E0979528F4805C660F771F881F20F02617D0
S11319F03707480730F4621B730B840B2029312905
S1131A004A2BA69517940794202531254A2758F781
S1131A10660F771F881F20F026173707480730F412
S1131A20620B730B840B200D311D411DA09581F7B2
S1131A30B901842F9158880F9695879508959B0135
S1131A40AC0158CF5058BB27AA270ED012CF03DFC2
S1131A5030F008DF20F031F49F3F11F41EF4D3CEB0
S1131A600EF4E095E7FBC9CEE92F14DF80F3BA1733
S1131A70620773078407950718F071F49EF52CCF5D
S1131A800EF4E0950B2EBA2FA02D0B01B901900195
S1131A900C01CA01A0011124FF27591B99F0593FD9
S1131AA050F4503E68F11A16F040A22F232F342F21
S1131AB04427585FF3CF469537952795A795F0406F
S1131AC05395C9F77EF41F16BA0B620B730B840B84
S1131AD0BAF09150A1F0FF0FBB1F661F771F881F3C
S1131AE0C2F70EC0BA0F621F731F841F48F4879594
S1131AF077956795B795F7959E3F08F0B3CF939583
S1131B00880F08F09927EE0F979587950895ACDD17
S1131B10B0CE9F3F31F0915020F48795779567952B
S1131B20B795880F911D9695879597F908959150CB
S1131B305040660F771F881FD2F7089597FB072E32
S1131B4016F4009407D077FD09D00E94D10D07FC4C
S1131B5005D03EF4909581959F4F089570956195B9
S1131B607F4F0895052E97FB1EF400940E94C90D23
S1131B7057FD07D00E94E50D07FC03D04EF40C94EA
S1131B80C90D50954095309521953F4F4F4F5F4F6C
S1131B90089590958095709561957F4F8F4F9F4FD5
S1131BA00895AA1BBB1B51E107C0AA1FBB1FA617A0
S1131BB0B70710F0A61BB70B881F991F5A95A9F7F2
S1131BC080959095BC01CD010895A1E21A2EAA1B1F
S1131BD0BB1BFD010DC0AA1FBB1FEE1FFF1FA217D9
S1131BE0B307E407F50720F0A21BB30BE40BF50BD6
S1131BF0661F771F881F991F1A9469F7609570955F
S1131C00809590959B01AC01BD01CF010895CF93C0
S1131C10DF938230910510F482E090E0E091C802F5
S1131C20F091C90220E030E0A0E0B0E0309739F153
S1131C304081518148175907B8F04817590771F482
S1131C4082819381109729F013969C938E93129717
S1131C502CC09093C9028093C80227C02115310576
S1131C6031F04217530718F0A901DB0101C0EF015D
S1131C709A01BD01DF010280F381E02DD7CF211548
S1131C803105F9F0281B390B2430310580F48A81A1
S1131C909B816115710521F0FB019383828304C04C
S1131CA09093C9028093C802FE01329644C0FE019B
S1131CB0E20FF31F819391932250310939832883D2
S1131CC03AC02091C6023091C702232B41F42091DF
S1131CD00201309103013093C7022093C602209180
S1131CE00001309101012115310541F42DB73EB7B2
S1131CF04091040150910501241B350BE091C6026B
S1131D00F091C702E217F307A0F42E1B3F0B28172C
S1131D10390778F0AC014E5F5F4F2417350748F060
S1131D204E0F5F1F5093C7024093C6028193919355
S1131D3002C0E0E0F0E0CF01DF91CF910895CF93AE
S1131D40DF93009709F487C0FC0132971382128253
S1131D50C091C802D091C902209781F420813181B9
S1131D60280F391F8091C6029091C70282179307EA
S1131D7079F5F093C702E093C6026DC0DE0120E05E
S1131D8030E0AE17BF0750F412964D915C91139753
S1131D909D014115510509F1DA01F3CFB383A28303
S1131DA040815181840F951F8A179B0771F48D918F
S1131DB09C911197840F951F0296918380831296AC
S1131DC08D919C911397938382832115310529F476
S1131DD0F093C902E093C8023EC0D9011396FC9364
S1131DE0EE9312974D915D91A40FB51FEA17FB076F
S1131DF079F480819181840F951F0296D9011196FF
S1131E009C938E938281938113969C938E931297C5
S1131E10E0E0F0E08A819B81009719F0FE01EC017B
S1131E20F9CFCE01029628813981820F931F209128
S1131E30C6023091C7022817390769F4309729F48C
S1131E401092C9021092C80202C013821282D09367
S1131E50C702C093C602DF91CF910895A0E0B0E01D
S1131E60E4E3FFE00C942C13EC01CB01209719F46C
S1131E700E94070EB8C0FE01E60FF71F9E01225014
S1131E803109E217F30708F4ACC0D9010D911C9194
S1131E90119706171707B8F00530110508F49FC00D
S1131EA0A801445051094617570708F498C0025036
S1131EB01109061B170B019311936D937C93CF01AA
S1131EC00E949F0E8CC05B01A01AB10A4E01800EC5
S1131ED0911EA091C802B091C902612C712C60E0DE
S1131EE070E0109709F449C0A815B905C9F5ED903B
S1131EF0FC901197670142E0C40ED11CCA14DB04A4
S1131F0078F147018A189B08640142E0C40ED11C91
S1131F101296BC9012971396AC91B5E0CB16D104EF
S1131F2040F0B282A38391828082D9018D939C93E5
S1131F3009C00E5F1F4F0E0D1F1DF9011183008391
S1131F40EB2DFA2F6115710531F0DB011396FC932B
S1131F50EE93129744C0F093C902E093C8023FC0C5
S1131F606D917C9111976616770608F43B01BD01CB
S1131F7012960D90BC91A02DB4CF6091C6027091C1
S1131F80C70268157905E9F468167906D0F440911A
S1131F900001509101014115510541F44DB75EB75F
S1131FA06091040170910501461B570BE417F50776
S1131FB0C0F4F093C702E093C602F90191838083D1
S1131FC00EC00E94070E7C01009759F0A801BE01C3
S1131FD00E94F80FCE010E949F0EC70104C0CE01DB
S1131FE002C080E090E0CDB7DEB7EEE00C94481379
S1131FF0FB01DC0102C001900D9241505040D8F722
S113200008950F931F93CF93DF93EC018B010097F7
S113201031F46115710519F480E090E038C06EE088
S113202070E081E090E00E945F12FC010097A1F350
S113203080E883830115110571F01387028781E815
S113204083838091CA029091CB02892B21F4F0936F
S1132050CB02E093CA022097C9F0D187C08783815D
S1132060826083838091CC029091CD02892B71F49C
S1132070F093CD02E093CC028091CE029091CF02F6
S1132080892B21F4F093CF02E093CE02CF01DF91AC
S1132090CF911F910F910895A0E0B0E0E2E5F0E147
S11320A00C943813FE01359661917191AF018091C2
S11320B0CC029091CD020E948D10E2E00C94541356
S11320C00F931F93CF93DF93E091CC02F091CD0255
S11320D0238121FF1BC0EC0100E010E08991609195
S11320E0CC027091CD02DB011896ED91FC91199709
S11320F0882331F00995892B89F30FEF1FEFEECF79
S11321008AE00995892B11F4C80102C08FEF9FEF73
S1132110DF91CF911F910F910895ACE0B0E0E3E916
S1132120F0E10C9428137C016B018A01FC011782F5
S11321301682838181FFBDC1CE0101964C01F70156
S11321409381F60193FD859193FF81916F0188231B
S113215009F4ABC1853239F493FD859193FF8191E4
S11321606F01853229F4B70190E00E949812E7CFFD
S1132170512C312C20E02032A0F48B3269F030F461
S1132180803259F0833269F420612CC08D3239F0E9
S1132190803339F4216026C02260246023C0286083
S11321A021C027FD27C030ED380F3A3078F426FFE0
S11321B006C0FAE05F9E300D1124532E13C08AE04E
S11321C0389E300D1124332E20620CC08E3221F43F
S11321D026FD6BC1206406C08C3611F4206802C051
S11321E0883641F4F60193FD859193FF81916F0147
S11321F08111C1CF982F9F7D9554933028F40C5FA3
S11322001F4FFFE3F9830DC0833631F0833771F03C
S1132210833509F05BC022C0F801808189830E5F99
S11322201F4F44244394512C540115C03801F2E04B
S11322306F0E711CF801A080B18026FF03C0652DCC
S113224070E002C06FEF7FEFC5012C870E948D12F2
S11322502C0183012C852F77222E17C03801F2E040
S11322606F0E711CF801A080B18026FF03C0652D9C
S113227070E002C06FEF7FEFC5012C870E947B12D4
S11322802C012C852068222E830123FC1BC0832D66
S113229090E048165906B0F4B70180E290E00E943D
S11322A098123A94F4CFF50127FC859127FE819189
S11322B05F01B70190E00E94981231103A94F1E066
S11322C04F1A51084114510471F7E5C0843611F0D6
S11322D0893639F5F80127FF07C060817181828151
S11322E093810C5F1F4F08C060817181882777FD3F
S11322F08095982F0E5F1F4F2F76B22E97FF09C03F
S113230090958095709561957F4F8F4F9F4F206872
S1132310B22E2AE030E0A4010E94CA12A82EA81806
S113232044C0853729F42F7EB22E2AE030E025C040
S1132330F22FF97FBF2E8F36C1F018F4883579F06B
S1132340B4C0803719F0883721F0AFC02F2F206137
S1132350B22EB4FE0DC08B2D8460B82E09C024FFAC
S11323600AC09F2F9660B92E06C028E030E005C051
S113237020E130E002C020E132E0F801B7FE07C0FE
S113238060817181828193810C5F1F4F06C06081DF
S1132390718180E090E00E5F1F4FA4010E94CA1279
S11323A0A82EA818FB2DFF77BF2EB6FE0BC02B2D31
S11323B02E7FA51450F4B4FE0AC0B2FC08C02B2D25
S11323C02E7E05C07A2C2B2D03C07A2C01C0752CCF
S11323D024FF0DC0FE01EA0DF11D8081803311F44C
S11323E0297E09C022FF06C07394739404C0822F0F
S11323F0867809F0739423FD13C020FF06C05A2C7D
S1132400731418F4530C5718732C731468F4B7012D
S113241080E290E02C870E94981273942C85F5CF6B
S1132420731410F4371801C0312C24FF12C0B70103
S113243080E390E02C870E9498122C8522FF17C01D
S113244021FF03C088E590E002C088E790E0B7016F
S11324500CC0822F867859F021FD02C080E201C0B1
S11324608BE227FD8DE2B70190E00E949812A5143B
S113247038F4B70180E390E00E9498125A94F7CFA1
S1132480AA94F401EA0DF11D8081B70190E00E9445
S11324909812A110F5CF332009F451CEB70180E290
S11324A090E00E9498123A94F6CFF70186819781C2
S11324B002C08FEF9FEF2C96E2E10C9444130F932C
S11324C01F93CF93DF93869F8001879F100D969F64
S11324D0100D1124C8010E94070EEC01009729F089
S11324E0A80160E070E00E948612CE01DF91CF91D6
S11324F01F910F910895FC010590615070400110E7
S1132500D8F7809590958E0F9F1F0895DC0101C028
S11325106D9341505040E0F70895FC0161507040C4
S113252001900110D8F7809590958E0F9F1F089504
S11325300F931F93CF93DF93182F092FEB018B81F8
S113254081FD03C08FEF9FEF20C082FF10C04E813A
S11325505F812C813D81421753077CF4E881F98126
S11325609F012F5F3F4F39832883108306C0E8857E
S1132570F985812F0995892B29F72E813F812F5FBA
S11325803F4F3F832E83812F902FDF91CF911F9157
S11325900F910895FA01AA27283051F1203181F1D1
S11325A0E8946F936E7F6E5F7F4F8F4F9F4FAF4F57
S11325B0B1E03ED0B4E03CD0670F781F891F9A1F6A
S11325C0A11D680F791F8A1F911DA11D6A0F711D1E
S11325D0811D911DA11D20D009F468943F912AE02A
S11325E0269F11243019305D3193DEF6CF01089512
S11325F0462F4770405D4193B3E00FD0C9F7F6CF43
S1132600462F4F70405D4A3318F0495D31FD40520A
S1132610419302D0A9F7EACFB4E0A69597958795A0
S113262077956795BA95C9F700976105710508957F
S11326309B01AC010A2E069457954795379527952B
S1132640BA95C9F7620F731F841F951FA01D0895C3
S11326502F923F924F925F926F927F928F929F92AE
S1132660AF92BF92CF92DF92EF92FF920F931F939C
S1132670CF93DF93CDB7DEB7CA1BDB0B0FB6F8944D
S1132680DEBF0FBECDBF09942A88398848885F848D
S11326906E847D848C849B84AA84B984C884DF80FE
S11326A0EE80FD800C811B81AA81B981CE0FD11DE2
S11326B00FB6F894DEBF0FBECDBFED010895F894B8
S10526C0FFCF46
S11326C20000D00220005301EA01000000000000D3
S11326D20000000000B403F3010000000000000049
S11326E200000000B403FB01000000000000010030
S11326F20000005F04060200000000000000000069
S11327020000B4030E0200000000000000000000FC
S113271200B40319020000000000000000000000E1
S1132722B403FF00FF0001000012001800108A0128
S113273292019A01A201A601AD01B201B801A6015A
S1132742BD01C201CA01D301E101506C6179657214
S11327523100506C617965723200506C6179657236
S113276233004C6F77004D656469756D0048696785
S11327726800556C74726100456173790048617236
S11327826400312E2048616E7300312E2052616F35
S1132792756C00312E20416C6C6520616E6472652B
S11327A2002E204865726D616E004772617068691F
S11327B2637300436F6E74726F6C004869676820BC
S11327C273636F7265004F7074696F6E730044694E
S11327D266666963756C7479004D61696E206D6516
S11327E26E75002564002564200A0043616C6962E9
S11327F2726174696E672E2E2E0043616C69627277
S1132802617465642E0078203D2000256420200038
S113281279203D200058203D200059203D200041D0
S1132822203D20007468657461203D200044697273
S1132832656374696F6E203D20004D6964646C6544
S113284220627574746F6E3D2000506C656173650F
S11328522063616C696272617465206A6F79737452
S113286269636B21004F757473696465206F662018
S10B287273637265656E2100B9
S9030000FC
