S011000050696E6720506F6E672E73726563D1
S11300000C9477030C9494030C9494030C9494032D
S11300100C9494030C9494030C9494030C94940300
S11300200C9494030C9494030C9494030C949403F0
S11300300C9494030C9494030C9494030C949403E0
S11300400C9494030C9494030C9494030C949403D0
S11300500C9494030C9494030C9494030C949403C0
S11300600C9494030C9494030C9494030C949403B0
S1130070084AD73B3BCE016E84BCBFFDC12F3D6C0B
S113008074319ABD56833DDA3D00C77F11BED9E471
S1130090BB4C3E916BAAAABE000000803F0000004A
S11300A00000005C00000C000C007C287C2858DC5C
S11300B068002410480028542840000C00000078F0
S11300C084008478000054385400107C1000804070
S11300D00000101010000040000060100C003854A4
S11300E03800487C40004864580044542C001C10DC
S11300F07C005C5424003854240064140C006854BC
S11301002C004854380000480000804800001028A3
S113011044002828280044281000045408003844C7
S11301205C00781478007C542800384428007C440F
S113013038007C5444007C140400384474007C105F
S11301407C00447C440020403C007C106C007C40DB
S113015040007C187C0078103C00384438007C1443
S113016008003844B8007C14680048542400047C17
S113017004007C407C003C603C007C307C006C10C3
S11301806C000C700C0064544C00007C44000C1097
S11301906000447C000008040800808080000004A3
S11301A00800304878007C48300030484800304827
S11301B07C00306850001078140090A878007C0807
S11301C0700050744000808074007C106800447C8F
S11301D04000781078007808700030483000F82823
S11301E010003048F8007810080050582800083CE7
S11301F0480038407800384038007820780048308B
S1130200480098A078004868580010788400007C62
S113021000008478100008040804000000000000B6
S1130220005F00000007000700147F147F14242AD5
S11302307F2A1223130864623649552250000503AD
S11302400000001C2241000041221C00082A1C2A34
S11302500808083E0808005030000008080808088C
S1130260006060000020100804023E5149453E0031
S1130270427F400042615149462141454B311814A7
S1130280127F1027454545393C4A494930017109D7
S113029005033649494936064949291E00363600C0
S11302A000005636000000081422411414141414DB
S11302B041221408000201510906324979413E7E67
S11302C01111117E7F494949363E414141227F4106
S11302D041221C7F494949417F090901013E4141AD
S11302E051327F0808087F00417F41002040413F90
S11302F0017F081422417F404040407F0204027F76
S11303007F0408107F3E4141413E7F090909063EB2
S11303104151215E7F091929464649494931010164
S11303207F01013F4040403F1F2040201F7F201895
S1130330207F63140814630304780403615149455E
S11303404300007F4141020408102041417F000026
S11303500402010204404040404000010204002025
S1130360545454787F4844443838444444203844EE
S113037044487F3854545418087E09010208145420
S1130380543C7F0804047800447D40002040443DF0
S113039000007F10284400417F40007C041804784A
S11303A07C0804047838444444387C141414080841
S11303B01414187C7C080404084854545420043F42
S11303C04440203C4040207C1C2040201C3C4030C9
S11303D0403C44281028440C5050503C4464544C35
S11303E044000836410000007F0000004136080048
S11303F00201030201000000000000000000065F8B
S11304005F060000000007070007070000147F7F55
S1130410147F7F1400242E6B6B3A12000046663062
S1130420180C666200307A4F5D377A48000407037F
S11304300000000000001C3E634100000000416316
S11304403E1C000000082A3E1C1C3E2A0808083EE8
S11304503E0808000000A0E0600000000008080852
S11304600808080000000060600000000060301808
S11304700C060301003E7F594D7F3E000042427F3F
S11304807F40400000627359496F6600002263494F
S1130490497F360000181C16137F7F10002767451C
S11304A0457D3900003C7E4B49793000000363717F
S11304B0190F070000367F49497F360000064F496F
S11304C0693F1E000000006C6C0000000000A0ECFE
S11304D06C00000000081C36634100000014141472
S11304E01414140000004163361C08000002035178
S11304F0590F0600003E7F415D5D1F1E007C7E1388
S1130500137E7C0000417F7F49497F36001C3E6397
S11305104141632200417F7F41637F1C00417F7F13
S1130520495D416300417F7F491D0103001C3E6317
S113053041517372007F7F08087F7F000000417F74
S11305407F41000000307040417F3F0100417F7FC8
S1130550081C776300417F7F41406070007F7F0605
S11305600C067F7F007F7F060C187F7F001C3E6394
S113057041633E1C00417F7F49090F06001E3F2155
S1130580717F5E0000417F7F19396F460026674DF9
S1130590597B32000003417F7F410300007F7F408D
S11305A0407F7F00001F3F60603F1F00007F7F305F
S11305B018307F7F0063771C081C776300074F782F
S11305C0784F0700006773594D47637100007F7FC0
S11305D041410000000103060C1830600000414155
S11305E07F7F000000080C0603060C080080808052
S11305F08080808080000003070400000020745481
S1130600543C784000413F7F44447C3800387C446B
S1130610446C280000307848493F7F4000387C54BF
S1130620545C180000487E7F490302000098BCA473
S1130630A4F87C0400417F7F08047C780000447D9A
S11306407D4000000040C484FD7D000000417F7FA8
S113065010386C440000417F7F400000007C7C0C1B
S1130660180C7C78007C7C04047C780000387C4482
S1130670447C38000084FCF8A4243C1800183C2472
S1130680A4F8FC8400447C78441C180000485C54A2
S1130690547424000000043E7F442400003C7C4049
S11306A0403C7C40001C3C60603C1C00003C7C6086
S11306B030607C3C00446C3810386C44009CBCA016
S11306C0A0FC7C00004C64745C4C64000008083E90
S11306D07741410000000000777700000041417736
S11306E03E08080000020301030203010000112474
S11306F01FBECFEFD4E0DEBFCDBF13E0A0E0B1E07A
S1130700ECE2F6E202C005900D92AE30B107D9F7E3
S113071023E0AEE0B3E001C01D92AA32B207E1F7D4
S11307200E9483050C9414130C94000030980895CF
S1130730883721F484E08093001411C0893721F4B0
S113074085E0809300140BC08C3621F486E08093FE
S1130750001405C0823719F487E0809300142899A7
S1130760FECF809100140895CF93DF9388E70E9411
S1130770980390E090931B0380931A0389E70E94E7
S1130780980390E090931F0380931E0386B38470B4
S11307901F928F9386E191E09F938F930E94B80EEE
S11307A00F900F900F900F90C9E1D1E074C088E7CB
S11307B00E94980390E0909319038093180389E7AB
S11307C00E94980390E090931D0380931C038091F2
S11307D018039091190320911003309111032817E5
S11307E0390774F490931103809310039F938F93AC
S11307F0DF93CF930E94B80E0F900F900F900F903D
S113080080911C0390911D0320910E0330910F03DE
S11308102817390774F490930F0380930E039F9362
S11308208F93DF93CF930E94B80E0F900F900F9089
S11308300F90809118039091190320910C0130912D
S11308400D018217930774F490930D0180930C01AA
S11308509F938F93DF93CF930E94B80E0F900F90C6
S11308600F900F9080911C0390911D0320910A0119
S113087030910B018217930774F490930B018093CA
S11308800A019F938F93DF93CF930E94B80E0F902A
S11308900F900F900F90B2998ACFDF91CF91089566
S11308A0BA98C29A8EE191E00E94CC0E0E94B403E1
S11308B08DE291E00E94CC0E0895CF93DF9300D097
S11308C000D000D0CDB7DEB788E70E94980390E04F
S11308D0909319038093180389E70E949803E82FE3
S11308E0F0E0809118039091190320911A0330913C
S11308F01B0328173907B4F4AC01421B530B64E6FD
S1130900649FC001659F900D112460911003709144
S11309101103621B730B0E94A60D7093190360935D
S1130920180316C0AC01421B530B64E6649FC0015C
S1130930659F900D112440910C0150910D01B90156
S1130940641B750B0E94A60D709319036093180322
S113095060911E0370911F036E177F07BCF4E61BA2
S1130960F70B24E62E9FC0012F9F900D1124209198
S11309700E0330910F03A901461B570BBA010E94C5
S1130980A60D70931D0360931C0314C0E61BF70BA4
S113099024E62E9FC0012F9F900D112420910A015F
S11309A030910B01621B730B0E94A60D70931D0303
S11309B060931C0340911C0380911D0366B3209136
S11309C018039091190329839A834B838C8366952A
S11309D0669581E0682761706D831E82392F5C8182
S11309E070E080E090E026960FB6F894DEBF0FBE6C
S11309F0CDBFDF91CF9108958F929F92AF92BF9216
S1130A00CF92DF92EF92FF92CF93DF9300D000D08A
S1130A1000D0CDB7DEB70E945D0429833A834B83AF
S1130A205C8389809A80AB80BC80B401882777FD81
S1130A308095982F0E94CA0B6B017C01B501882711
S1130A4077FD8095982F0E94CA0BA70196010E94FA
S1130A50DE0A6B017C01889CB001899C700D700DCD
S1130A601124AA9CC001AB9C900D900D1124680F19
S1130A70791F80E090E00E94C80B0E94E90C4B01B2
S1130A805C0120EE3EE245E652E4C701B6010E9455
S1130A90820C0E94970B6B01C501B4010E94970B55
S1130AA07B01C701B60126960FB6F894DEBF0FBED0
S1130AB0CDBFDF91CF91FF90EF90DF90CF90BF90AB
S1130AC0AF909F908F9008950E94FC049B01813504
S1130AD091057CF06838710574F46E3271056CF41C
S1130AE0243D8FEF38075CF42A373F4F54F083E0FE
S1130AF008958FEF089582E0089581E0089580E0DD
S1130B00089582E0089585B7806885BF80B78062C4
S1130B1080BF80E895E20E949E0A0E9496030E948C
S1130B20920800E010E028E040E060E08DE791E00A
S1130B300E941C080E9418090E9450040E94910AF5
S1130B400E94840828E040E060E088E991E00E9487
S1130B501C0828E041E060E081EA91E00E941C0862
S1130B6028E042E060E08CEA91E00E941C080E94C8
S1130B70180962E370E082E390E00E94500963E3A5
S1130B8070E082E390E00E94500964E370E082E345
S1130B9090E00E94500963E370E082E390E00E94D9
S1130BA07C092CE030E04FE750E060E070E08EE13B
S1130BB090E00E94D6090E9418090E940C0A0E9423
S1130BC0E205FDCF0F931F9380911503813009F443
S1130BD073C020F0823009F4D2C033C10E9484086B
S1130BE000E010E028E040E060E084EB91E00E9447
S1130BF01C0828E041E060E08FEB91E00E941C08B3
S1130C0028E042E060E08CEA91E00E941C0828E0C1
S1130C1043E060E089EC91E00E941C080E946405B6
S1130C202091140391E0813009F090E0992351F070
S1130C3091E0211101C090E0992321F021502093EB
S1130C40140325C091E0833009F090E0992351F01A
S1130C5091E0233009F490E0992321F02F5F209351
S1130C60140315C0811113C0809115031F928F9333
S1130C7086E191E09F938F930E94B80E80911403B4
S1130C808F5F809315030F900F900F900F9020911A
S1130C90140330E02F5F3F4F220F331F220F331F07
S1130CA0220F331FB901685071094FE750E080E00B
S1130CB090E00E94D609C5C00E94840800E010E0BC
S1130CC028E040E060E084ED91E00E941C0828E008
S1130CD041E060E089ED91E00E941C0828E042E0D8
S1130CE060E080EE91E00E941C0828E043E060E0B0
S1130CF085EE91E00E941C080E9464052091130374
S1130D0091E0813009F090E0992351F081E02111C4
S1130D1001C080E0882321F02150209313031AC0DE
S1130D200E9464052091130391E0833009F090E060
S1130D30992351F081E0233009F480E0882321F0E5
S1130D402F5F2093130306C00E946405823011F4C0
S1130D50109215032091130330E02F5F3F4F220FB1
S1130D60331F220F331F220F331FB901685071093B
S1130D704FE750E080E090E00E94D60962C00E94F4
S1130D80840800E010E028E040E060E08FEE91E0AD
S1130D900E941C0828E041E060E089EF91E00E9495
S1130DA01C0828E042E060E082E092E00E941C0817
S1130DB028E043E060E08EE092E00E941C080E947C
S1130DC064052091120391E0813009F090E09923A9
S1130DD051F081E0211101C080E0882321F02150ED
S1130DE0209312031AC00E9464052091120391E01B
S1130DF0833009F090E0992351F081E0233009F425
S1130E0080E0882321F02F5F2093120306C00E9404
S1130E106405823011F4109215032091130330E01D
S1130E202F5F3F4F220F331F220F331F220F331F19
S1130E30B901685071094FE750E080E090E00E94EA
S1130E40D6090E9418091F910F91089520910E014F
S1130E5030910F01232BF9F02091160330911703E1
S1130E60211594E039072CF086E192E00E94CC0E23
S1130E7008954091120150911301FA01E20FF31FFA
S1130E808083809116039091170301969093170322
S1130E90809316030895E0911001F091110180836D
S1130EA00895EF92FF920F931F93CF93DF936830CF
S1130EB059F4082F10E0000F111F000F111F000F2D
S1130EC0111F0B501D4F1AC0653071F4082F10E02C
S1130ED000521109C801880F991F880F991F080F24
S1130EE0191F065E1D4F0AC0643041F4082F10E03C
S1130EF0000F111F000F111F025E1F4F452B31F011
S1130F00E62EF12C1E141F049CF01FC0E62EF12CBB
S1130F101E141F04D4F4C0E0D0E0FE01E00FF11F62
S1130F2084910E9426072196CE15DF05B4F30DC0E7
S1130F30C0E0D0E0FE01E00FF11F849180950E9493
S1130F4026072196CE15DF05ACF3DF91CF911F91D3
S1130F500F91FF90EF90089580910E0190910F01F1
S1130F60892BB9F08091160390911703811524E021
S1130F70920734F086E192E00E94CC0E8FEF089540
S1130F802091120130911301F901E80FF91F8081BA
S1130F90089580E0089540910E0150910F01452B72
S1130FA0D1F020911603309117032F773078332333
S1130FB034F42150310920683F6F2F5F3F4F9695DD
S1130FC0982F882797958795280F391F30931703F3
S1130FD02093160308958055E0911401F0911501B2
S1130FE08083089520910E0130910F01232BC1F0CD
S1130FF040911603509117039A012F7730783323C9
S113100034F42150310920683F6F2F5F3F4F421B5A
S1131010530B840F951F9093170380931603089521
S1131020E0911401F09115011082E0911401F09106
S1131030150180E1808308956F927F928F929F9231
S1131040AF92BF92CF92DF92EF92FF920F931F93D2
S1131050CF93DF93EC01962E742E822E862F90E090
S11310600E94F207872D90E00E94CB07FE010190B9
S11310700020E9F731976F01CC1ADD0A1C141D0416
S113108024F57E01C0E0D0E08FE790E05C01A81871
S1131090B108612CA801682DF70181917F010E949C
S11310A05107980C892D90E0A816B90654F473944E
S11310B080E090E00E94F207872D90E00E94CB0729
S11310C0962C2196CC16DD0629F7DF91CF911F913E
S11310D00F91FF90EF90DF90CF90BF90AF909F90D3
S11310E08F907F906F900895CF930E94CB0780E0FC
S11310F090E00E94F207C0E080E00E942607CF5FE4
S1131100C038D1F7CF910895CF93DF93C0E0D0E0FA
S1131110CE010E9474082196C830D105C9F7DF9129
S1131120CF910895E0911401F09115018EEA808326
S1131130E0911401F091150181EA8083E09114019A
S1131140F09115018AED8083E0911401F09115016D
S113115082E18083E0911401F091150188EC808391
S1131160E0911401F091150188EA8083E091140163
S1131170F09115018FE38083E0911401F091150142
S113118085ED8083E0911401F091150180E880835E
S1131190E0911401F091150181E88083E09114013C
S11311A0F091150180E58083E0911401F09115011F
S11311B089ED8083E0911401F091150181E280832F
S11311C0E0911401F091150180E28083E091140113
S11311D0F091150182E08083E0911401F0911501F2
S11311E08BED8083E0911401F091150180E38083FD
S11311F0E0911401F09115018DEA8083E0911401CE
S1131200F09115011082E0911401F091150184EA26
S11312108083E0911401F091150186EA8083E091C6
S11312201401F09115018FEA80830E9484080895C7
S1131230CF93E0911401F09115011082E091140113
S1131240F091150180E1808380910E0190910F014E
S1131250892B21F140E050E060EBC0E070E0E091C8
S11312601401F091150160838C2F972FE0911001E8
S1131270F09111019C01240F351FA0911201B0912E
S11312801301A20FB31F2C9120830196803891057E
S113129069F76F5F40585F4F683B09F7CF91089536
S11312A0CF93DF93EB010E94F207CE01DD230CF410
S11312B007969595879595958795959587950E9419
S11312C0CB070E94AC07BE0167707078772334F4B3
S11312D061507109686F7F6F6F5F7F4F21E030E06D
S11312E0A90102C0440F551F6A95E2F7842B0E949E
S11312F02607DF91CF910895CF93DF93EB010E94EE
S1131300F207CE01DD230CF4079695958795959504
S11313108795959587950E94CB070E94AC07BE01DF
S113132067707078772334F461507109686F7F6F48
S11313306F5F7F4F21E030E0A90102C0440F551FC9
S11313406A95E2F7BA01609586230E942607DF9129
S1131350CF910895CF93DF93EB010E94F207CE0162
S1131360DD230CF407969595879595958795959526
S113137087950E94CB070E94AC07BE016770707806
S1131380772334F461507109686F7F6F6F5F7F4F0B
S113139021E030E0A90102C0440F551F6A95E2F72D
S11313A084270E942607DF91CF9108958F929F9200
S11313B0AF92BF92CF92DF92EF92FF920F931F935F
S11313C0CF93DF938C016B015A0179018417950740
S11313D0B4F4862E9D2C0DC0BE01C8010E94AA093A
S11313E02196CE15DF05C4F30F5F1F4F0A151B05A9
S11313F034F4CE14DF04C4F7C82DD92DEDCFDF911A
S1131400CF911F910F91FF90EF90DF90CF90BF90FD
S1131410AF909F908F900895CF92DF92EF92FF92BA
S11314200F931F93CF93DF9389E292E00E94CC0E37
S11314300E945D0E6C010E94620EC0E0D0E000E0EC
S113144010E00F2EFFE3EF2EF2E0FF2EF02D0E94AE
S11314505D0EFE01F45E808320812817A9F0992790
S11314609F938F931F922F93DF93CF93FF92EF92CB
S11314700E94B80E0F5F1F4F8DB79EB708960FB628
S1131480F8949EBF0FBE8DBF2196C11594E0D90775
S1131490F1F6C6010E94620EC0E0D0E0E12CF12C0E
S11314A00F2EF8E7CF2EF2E0DF2EF02D0E945D0E16
S11314B0FE01F45E20812817B1F099279F938F9342
S11314C01F922F93DF93CF93DF92CF920E94B80E97
S11314D08FEFE81AF80A8DB79EB708960FB6F894FE
S11314E09EBF0FBE8DBF2196C11594E0D907F1F6BA
S11314F0FF92EF921F930F9385EB92E09F938F934C
S11315000E94B80E0F900F900F900F900F900F90B5
S1131510DF91CF911F910F91FF90EF90DF90CF90CB
S11315200895B898B99808955D9BFECF8CB981E071
S113153090E008955F9BFECF8CB10895CF93DF9325
S1131540AA2797FDA095BA2F880F991FAA1FBB1F22
S1131550880F991FAA1FBB1F9C01AD01220F331FC7
S1131560441F551F220F331F441F551F60E070E0B6
S11315708BE490E00E94BA0DE90121976AE97AE0D0
S113158084E99AE00E946D0EC9B9D0BD88E18AB998
S11315908EE880BD81E090E0DF91CF91089563D122
S11315A058F080E891E009F49EEF64D128F040E817
S11315B051E059F45EEF09C02EC196C1E92FE078DD
S11315C071D168F3092E052AC1F326173707480796
S11315D0590738F00E2E07F8E02569F0E025E0649D
S11315E00AC0EF6307F8009407FADB01B9019D0113
S11315F0DC01CA01AD01EF9341D043D10AD05F9120
S1131600552331F02BED3FE049E450FD49EC23C272
S11316100895DF93DD27B92FBF7740E85FE31616FF
S1131620170648075B0710F4D92F65D19F938F9352
S11316307F936F930CD2E0E7F0E0F0D022D12F91AA
S11316403F914F915F916AD1DD2349F09058A2EA0E
S11316502AED3FE049EC5FE3D0785D270DD2DF91BE
S113166010C108D140F0FFD030F021F45F3F19F0F1
S1131670CCC051113AC1CFC015D198F39923C9F305
S11316805523B1F3951B550BBB27AA276217730784
S1131690840738F09F5F5F4F220F331F441FAA1F38
S11316A0A9F333D00E2E3AF0E0E830D091505040F8
S11316B0E695001CCAF729D0FE2F27D0660F771FA6
S11316C0881FBB1F261737074807AB07B0E809F088
S11316D0BB0B802DBF01FF2793585F4F2AF09E3F1D
S11316E0510568F092C001C15F3FECF3983EDCF312
S11316F0869577956795B795F7959F5FC9F7880F96
S1131700911D9695879597F90895E1E0660F771FE7
S1131710881FBB1F621773078407BA0720F0621B78
S1131720730B840BBA0BEE1F88F7E095089504D071
S11317306894B111DAC00895BDD088F09F5790F035
S1131740B92F9927B751A0F0D1F0660F771F881FE2
S1131750991F1AF0BA95C9F712C0B13081F0C4D0FC
S1131760B1E00895C1C0672F782F8827B85F39F09A
S1131770B93FCCF3869577956795B395D9F73EF441
S113178090958095709561957F4F8F4F9F4F0895E9
S1131790E89409C097FB3EF4909580957095619507
S11317A07F4F8F4F9F4F9923A9F0F92F96E9BB27BD
S11317B09395F695879577956795B795F111F8CF39
S11317C0FAF4BB0F11F460FF1BC06F5F7F4F8F4FA4
S11317D09F4F16C0882311F096E911C0772321F09A
S11317E09EE8872F762F05C0662371F096E8862F32
S11317F070E060E02AF09A95660F771F881FDAF789
S1131800880F9695879597F9089597F99F6780E8CB
S113181070E060E008959FEF80EC0895DF93CF932C
S11318201F930F93FF92EF92DF927B018C016894D8
S113183005C0DA2EEF0172D0FE01E894A59125913E
S1131840359145915591AEF3EF0116D1FE01970103
S1131850A801DA9479F7DF90EF90FF900F911F9130
S1131860CF91DF91089500240A94161617061806DE
S11318700906089500240A94121613061406050690
S11318800895092E0394000C11F4882352F0BB0F21
S113189040F4BF2B11F460FF04C06F5F7F4F8F4F84
S11318A09F4F089557FD9058440F551F59F05F3FBF
S11318B071F04795880F97FB991F61F09F3F79F06E
S11318C087950895121613061406551FF2CF4695F0
S11318D0F1DF08C0161617061806991FF1CF869572
S11318E07105610508940895E894BB276627772756
S11318F0CB0197F908959B01AC0160E070E080E8AA
S11319009FE30DC10BD0BDCFAEDF28F0B3DF18F0DD
S1131910952309F07ACF7FCF1124E7CFC3DFA0F35B
S1131920959FD1F3950F50E0551F629FF001729F70
S1131930BB27F00DB11D639FAA27F00DB11DAA1F8F
S1131940649F6627B00DA11D661F829F2227B00DDC
S1131950A11D621F739FB00DA11D621F839FA00D67
S1131960611D221F749F3327A00D611D231F849FB7
S1131970600D211D822F762F6A2F11249F5750400E
S11319808AF0E1F088234AF0EE0FFF1FBB1F661FA9
S1131990771F881F91505040A9F79E3F510570F062
S11319A034CFA3CF5F3FECF3983EDCF38695779575
S11319B06795B795F795E7959F5FC1F7FE2B880F5D
S11319C0911D9695879597F9089511F40EF423CFF8
S11319D0A8C070DFD0F39923D9F3CEF39F57550BEA
S11319E087FFADD00024A0E640EA900180585695C8
S11319F0979528F4805C660F771F881F20F02617C0
S1131A003707480730F4621B730B840B20293129F4
S1131A104A2BA69517940794202531254A2758F771
S1131A20660F771F881F20F026173707480730F402
S1131A30620B730B840B200D311D411DA09581F7A2
S1131A40B901842F9158880F9695879508959B0125
S1131A50AC0158CF5058BB27AA270ED012CF03DFB2
S1131A6030F008DF20F031F49F3F11F41EF4D3CEA0
S1131A700EF4E095E7FBC9CEE92F14DF80F3BA1723
S1131A80620773078407950718F071F49EF52CCF4D
S1131A900EF4E0950B2EBA2FA02D0B01B901900185
S1131AA00C01CA01A0011124FF27591B99F0593FC9
S1131AB050F4503E68F11A16F040A22F232F342F11
S1131AC04427585FF3CF469537952795A795F0405F
S1131AD05395C9F77EF41F16BA0B620B730B840B74
S1131AE0BAF09150A1F0FF0FBB1F661F771F881F2C
S1131AF0C2F70EC0BA0F621F731F841F48F4879584
S1131B0077956795B795F7959E3F08F0B3CF939572
S1131B10880F08F09927EE0F979587950895ACDD07
S1131B20B0CE9F3F31F0915020F48795779567951B
S1131B30B795880F911D9695879597F908959150BB
S1131B405040660F771F881FD2F7089597FB072E22
S1131B5016F4009407D077FD09D00E94D90D07FC34
S1131B6005D03EF4909581959F4F089570956195A9
S1131B707F4F0895052E97FB1EF400940E94D10D0B
S1131B8057FD07D00E94ED0D07FC03D04EF40C94D2
S1131B90D10D50954095309521953F4F4F4F5F4F54
S1131BA0089590958095709561957F4F8F4F9F4FC5
S1131BB00895AA1BBB1B51E107C0AA1FBB1FA61790
S1131BC0B70710F0A61BB70B881F991F5A95A9F7E2
S1131BD080959095BC01CD010895A1E21A2EAA1B0F
S1131BE0BB1BFD010DC0AA1FBB1FEE1FFF1FA217C9
S1131BF0B307E407F50720F0A21BB30BE40BF50BC6
S1131C00661F771F881F991F1A9469F7609570954E
S1131C10809590959B01AC01BD01CF0108958F92F1
S1131C209F92AF92BF92CF92DF92EF92FF92CF93A7
S1131C30DF93EC01688179818A819B81611571054B
S1131C408105910521F464E279ED8BE597E02DE1BE
S1131C5033EF41E050E00E94BA0D49015A019B0163
S1131C60AC01A7EAB1E40E94BB126B017C01ACEEAB
S1131C70B4EFA50194010E94C912C60ED71EE81E36
S1131C80F91EF7FE06C081E0C81AD108E10880E811
S1131C90F80AC882D982EA82FB82C6019F77DF9163
S1131CA0CF91FF90EF90DF90CF90BF90AF909F9037
S1131CB08F9008950E940F0E089580E091E00E9495
S1131CC00F0E0895A0E0B0E080930001909301010D
S1131CD0A0930201B093030108950F931F93CF9330
S1131CE0DF93EC018B01009731F46115710519F450
S1131CF080E090E038C06EE070E081E090E00E9407
S1131D00CB10FC010097A1F380E883830115110532
S1131D1071F01387028781E8838380912003909177
S1131D202103892B21F4F0932103E09320032097CE
S1131D30C9F0D187C0878381826083838091220325
S1131D4090912303892B71F4F0932303E0932203EE
S1131D508091240390912503892B21F4F09325038A
S1131D60E0932403CF01DF91CF911F910F91089548
S1131D70A0E0B0E0EEEBFEE00C94DE12FE0135963E
S1131D8061917191AF0180912203909123030E948C
S1131D90F90EE2E00C94FA120F931F93CF93DF93A2
S1131DA0E0912203F0912303238121FF1BC0EC0166
S1131DB000E010E089916091220370912303DB011C
S1131DC01896ED91FC911997882331F00995892B88
S1131DD089F30FEF1FEFEECF8AE00995892B11F4F9
S1131DE0C80102C08FEF9FEFDF91CF911F910F9138
S1131DF00895ACE0B0E0EFEFFEE00C94CE127C016D
S1131E006B018A01FC0117821682838181FFBDC1A7
S1131E10CE0101964C01F7019381F60193FD859162
S1131E2093FF81916F01882309F4ABC1853239F4A2
S1131E3093FD859193FF81916F01853229F4B70158
S1131E4090E00E942B12E7CF512C312C20E020325D
S1131E50A0F48B3269F030F4803259F0833269F4A3
S1131E6020612CC08D3239F0803339F4216026C0D2
S1131E702260246023C0286021C027FD27C030EDE4
S1131E80380F3A3078F426FF06C0FAE05F9E300D32
S1131E901124532E13C08AE0389E300D1124332EA2
S1131EA020620CC08E3221F426FD6BC1206406C072
S1131EB08C3611F4206802C0883641F4F60193FD93
S1131EC0859193FF81916F018111C1CF982F9F7DDF
S1131ED09554933028F40C5F1F4FFFE3F9830DC032
S1131EE0833631F0833771F0833509F05BC022C04B
S1131EF0F801808189830E5F1F4F44244394512C41
S1131F00540115C03801F2E06F0E711CF801A08075
S1131F10B18026FF03C0652D70E002C06FEF7FEF34
S1131F20C5012C870E9420122C0183012C852F7758
S1131F30222E17C03801F2E06F0E711CF801A08048
S1131F40B18026FF03C0652D70E002C06FEF7FEF04
S1131F50C5012C870E940E122C012C852068222E8C
S1131F60830123FC1BC0832D90E048165906B0F46E
S1131F70B70180E290E00E942B123A94F4CFF5016D
S1131F8027FC859127FE81915F01B70190E00E94B3
S1131F902B1231103A94F1E04F1A510841145104B4
S1131FA071F7E5C0843611F0893639F5F80127FF59
S1131FB007C060817181828193810C5F1F4F08C0CB
S1131FC060817181882777FD8095982F0E5F1F4F60
S1131FD02F76B22E97FF09C09095809570956195E4
S1131FE07F4F8F4F9F4F2068B22E2AE030E0A4012C
S1131FF00E945D12A82EA81844C0853729F42F7EAC
S1132000B22E2AE030E025C0F22FF97FBF2E8F36A2
S1132010C1F018F4883579F0B4C0803719F08837E6
S113202021F0AFC02F2F2061B22EB4FE0DC08B2D36
S11320308460B82E09C024FF0AC09F2F9660B92E71
S113204006C028E030E005C020E130E002C020E115
S113205032E0F801B7FE07C060817181828193810B
S11320600C5F1F4F06C06081718180E090E00E5FBD
S11320701F4FA4010E945D12A82EA818FB2DFF7704
S1132080BF2EB6FE0BC02B2D2E7FA51450F4B4FE2C
S11320900AC0B2FC08C02B2D2E7E05C07A2C2B2D35
S11320A003C07A2C01C0752C24FF0DC0FE01EA0D7B
S11320B0F11D8081803311F4297E09C022FF06C0FE
S11320C07394739404C0822F867809F0739423FD6B
S11320D013C020FF06C05A2C731418F4530C57185D
S11320E0732C731468F4B70180E290E02C870E948B
S11320F02B1273942C85F5CF731410F4371801C088
S1132100312C24FF12C0B70180E390E02C870E9499
S11321102B122C8522FF17C021FF03C088E590E015
S113212002C088E790E0B7010CC0822F867859F08E
S113213021FD02C080E201C08BE227FD8DE2B701E0
S113214090E00E942B12A51438F4B70180E390E0CC
S11321500E942B125A94F7CFAA94F401EA0DF11DB0
S11321608081B70190E00E942B12A110F5CF33209B
S113217009F451CEB70180E290E00E942B123A9408
S1132180F6CFF7018681978102C08FEF9FEF2C96DF
S1132190E2E10C94EA120F931F93CF93DF93869F8F
S11321A08001879F100D969F100D1124C8010E9475
S11321B0E710EC01009729F0A80160E070E00E94AC
S11321C01912CE01DF91CF911F910F910895CF93F2
S11321D0DF938230910510F482E090E0E0912803CF
S11321E0F091290320E030E0A0E0B0E0309739F12D
S11321F04081518148175907B8F04817590771F4BD
S113220082819381109729F013969C938E93129751
S11322102CC0909329038093280327C021153105EE
S113222031F04217530718F0A901DB0101C0EF0197
S11322309A01BD01DF010280F381E02DD7CF211582
S11322403105F9F0281B390B2430310580F48A81DB
S11322509B816115710521F0FB019383828304C086
S11322609093290380932803FE01329644C0FE0113
S1132270E20FF31F8193919322503109398328830C
S11322803AC02091260330912703232B41F4209157
S113229006013091070130932703209326032091F0
S11322A00401309105012115310541F42DB73EB7E4
S11322B04091080150910901241B350BE09126033C
S11322C0F0912703E217F307A0F42E1B3F0B281706
S11322D0390778F0AC014E5F5F4F2417350748F09B
S11322E04E0F5F1F509327034093260381939193CE
S11322F002C0E0E0F0E0CF01DF91CF910895CF93E9
S1132300DF93009709F487C0FC013297138212828D
S1132310C0912803D0912903209781F42081318131
S1132320280F391F80912603909127038217930762
S113233079F5F0932703E09326036DC0DE0120E0D6
S113234030E0AE17BF0750F412964D915C9113978D
S11323509D014115510509F1DA01F3CFB383A2833D
S113236040815181840F951F8A179B0771F48D91C9
S11323709C911197840F951F0296918380831296E6
S11323808D919C911397938382832115310529F4B0
S1132390F0932903E09328033EC0D9011396FC93DC
S11323A0EE9312974D915D91A40FB51FEA17FB07A9
S11323B079F480819181840F951F0296D901119639
S11323C09C938E938281938113969C938E93129700
S11323D0E0E0F0E08A819B81009719F0FE01EC01B6
S11323E0F9CFCE01029628813981820F931F209163
S11323F02603309127032817390769F4309729F405
S1132400109229031092280302C013821282D093DF
S11324102703C0932603DF91CF910895FC01059013
S1132420615070400110D8F7809590958E0F9F1FD2
S11324300895DC0101C06D9341505040E0F70895C8
S1132440FC016150704001900110D8F7809590957F
S11324508E0F9F1F08950F931F93CF93DF93182F11
S1132460092FEB018B8181FD03C08FEF9FEF20C00B
S113247082FF10C04E815F812C813D81421753073A
S11324807CF4E881F9819F012F5F3F4F39832883D2
S1132490108306C0E885F985812F0995892B29F7D2
S11324A02E813F812F5F3F4F3F832E83812F902FBB
S11324B0DF91CF911F910F910895FA01AA27283037
S11324C051F1203181F1E8946F936E7F6E5F7F4FFD
S11324D08F4F9F4FAF4FB1E03ED0B4E03CD0670F79
S11324E0781F891F9A1FA11D680F791F8A1F911DCC
S11324F0A11D6A0F711D811D911DA11D20D009F41C
S113250068943F912AE0269F11243019305D31935D
S1132510DEF6CF010895462F4770405D4193B3E046
S11325200FD0C9F7F6CF462F4F70405D4A3318F0ED
S1132530495D31FD4052419302D0A9F7EACFB4E09E
S1132540A6959795879577956795BA95C9F7009756
S11325506105710508959B01AC010A2E06945795F7
S1132560479537952795BA95C9F7620F731F841F4E
S1132570951FA01D08950E940513A59F900DB49F5B
S1132580900DA49F800D911D11240895B7FF0C9404
S1132590BB120E94BB12821B930B08952F923F9291
S11325A04F925F926F927F928F929F92AF92BF925F
S11325B0CF92DF92EF92FF920F931F93CF93DF930B
S11325C0CDB7DEB7CA1BDB0B0FB6F894DEBF0FBE68
S11325D0CDBF09942A88398848885F846E847D84B5
S11325E08C849B84AA84B984C884DF80EE80FD80B7
S11325F00C811B81AA81B981CE0FD11D0FB6F8942D
S1132600DEBF0FBECDBFED010895A29FB001B39F01
S1132610C001A39F700D811D1124911DB29F700DE7
S10F2620811D1124911D0895F894FFCF32
S113262C0100000000002A032000FF00FF0001004D
S113263C0012001800102564002564200A00436170
S113264C6C6962726174696E672E2E2E0043616C24
S113265C696272617465642E0078203D20002564E3
S113266C20200079203D200058203D200059203D99
S113267C200041203D20007468657461203D2000D9
S113268C446972656374696F6E203D20004D696402
S113269C646C6520627574746F6E3D2000506C65BB
S11326AC6173652063616C696272617465206A6F21
S11326BC79737469636B21004E65772047616D658E
S11326CC00486967682073636F7265004F707469A2
S11326DC6F6E7300446966666963756C747900483F
S11326EC69676873636F7265004561737465722002
S11326FC4567670045617379004D656469756D00C4
S113270C48617264004E696768746D61726500316A
S113271C2E204865726D616E00322E2052616F75E9
S113272C6C00332E2042657374656D6F7200342E09
S113273C2048616E73004F757473696465206F660D
S113274C2073637265656E21005374617274696ED3
S113275C67205352414D20746573742E2E2E0057EE
S113276C72697465207068617365206572726F722A
S113277C3A206578745F72616D5B2534645D203D2D
S113278C2025303258202873686F756C642062657C
S113279C2025303258290A005265747269657661B5
S11327AC6C207068617365206572726F723A206573
S11327BC78745F72616D5B2534645D203D20253037
S11327CC3258202873686F756C642062652025303C
S11327DC3258290A005352414D2074657374206396
S11327EC6F6D706C657465642077697468200A2554
S11327FC3464206572726F727320696E207772690B
S113280C746520706861736520616E640A25346494
S113281C206572726F727320696E207265747269AE
S111282C6576616C2070686173650A0A0000AD
S9030000FC
